:100000000C94070C0C94B7190C94240C0C94240C2D
:100010000C94240C0C94240C0C94240C0C944C1C68
:100020000C94240C0C94240C0C94240C0C94240C90
:100030000C94240C0C94240C0C94240C0C94240C80
:100040000C94240C0C94240C0C9457190C94240C30
:100050000C94240C0C94240C0C94240C0C94240C60
:100060000C94240C0C94240CE40CDF0CDA0CD50C4E
:10007000D00CCC0CC30CBE0CB50CE90C10132D121B
:100080002D122D122D125B132D122D122D122D1249
:100090002D122D122D122D1250132D122D122D1244
:1000A0002D122D122D122D122D122D122D122D1258
:1000B00045132D122D122D122D122D122D122D122F
:1000C0003F132D122D122D122D122D122D122D1225
:1000D0002D122D132D122D122D122D122D122D1227
:1000E0002D122D122D122D122D122D122D122D1218
:1000F0002D122D122D122D122D122D122D122D1208
:1001000033132D122D122D122D122D122D122D12F0
:100110002D122D132D1227132D122D1221132D12F6
:100120002D1239130042A9D9F0E5C38C0D22FFFF2F
:10013000EAD9DFFFFF8D79FF7800000044FFAAB7FE
:10014000FF0B0000002DFF81E8E3000000006FFFBF
:1001500052F2ED3C23233BE8FF1BB4FFFFFFFFFF00
:10016000FF9B000053828686824C000000000080C6
:10017000F2F23200000010ADFFE2F9080000004387
:10018000DD30E3DE00000000010010FFAF000000E2
:100190000000004DFF7B0000000000007CFF4D00D0
:1001A0000000000000D3FF28000000000000657977
:1001B00004000000000D84CED3D5C5700007DEFF1B
:1001C000D6C6C1E6FF7C37F57A0000000CFFB80008
:1001D0001F3C56898ABFFF7135DCFFFFFFFFEC72C1
:1001E00003DDFF6F3419190F0000FFFFFCFFFFFF55
:1001F000FFEC04747B898989898960000031A3D868
:10020000D6D6CE921726FFFFB39E9FCCFFB92C8F78
:100210003C00000034FFC400000090FFFFFFCD2130
:10022000000000488080E1DF06A09711000000BCBC
:10023000FF22E0FFFFFFFFFFFFBA00015788898917
:100240008961030000000000007DF2F24900000017
:1002500041DFFFF4FF29000697FFED4CC4FF05477F
:10026000D6F5630000F9C600F2FFC072849BFFDE82
:1002700052EDF2FFFFFFFFFFFF840D0D0D0D0DA3EB
:10028000FF5F00000000000048790A0006A9C4D6FC
:10029000D4D3D7E46127FFD77D868A7877374DFF9F
:1002A000D899ABB173170084FFE6CFD0D5FFFF1507
:1002B000062300000000AAFF41795200060611DD66
:1002C000FF1FFFFFFFFFFFFFFFA60013768989894D
:1002D000875000000038A9F2F2F2ECA72017FDFFCA
:1002E0009D8A89BEFF8B5CFF830C16162C421F80F3
:1002F000FFFDFEFFFFFF9500AFFC693D3F3EC8FFDD
:100300002FE8F200000000AEFF23BCFFFFF0F0FF7B
:10031000FFB5010F73A5B3B59E63000033CFD1CFF6
:10032000D0CBB2B59E4DD5CCCDC5B8FFFF9800005F
:100330000000006EFF9D000000000077FFAA000093
:100340000000007BFFB1000000000076FFBD000050
:1003500000000D9BFFC0000000000018897E000017
:10036000000000000058E1F2F2F2F2C12E33FFD695
:100370004F323571FFD44EFF8900000019FFBA00DB
:10038000CCFFD6B1D3FFC6187BE55C42524AD5E11B
:1003900013F2FF05000000C7FF33CAFFFFFFFFFF96
:1003A000FFBA010F6F86898987550000003EA4E7D8
:1003B000F2F2D58A0C22FFFFC4BBB7DCFF8962FFD3
:1003C000630000001AFF9E67FFCA888993C0FF6C14
:1003D0000089F8FFFFEEE7FF465C4100000000BC2B
:1003E000FF16E0FFD1AAA8DEFF9A001379B3BFC0C1
:1003F000AE640000006BBBCFD0D0D2B34500D7FFB6
:10040000BCB9B9B7FFFF08FFDB05030214ECF02A03
:10041000FFFFF4F7F9FFFF6B54FF8F383F4278FF7F
:10042000A680FF4000000012FFCAD9FFFFFFFFFFB8
:10043000FFFF5C647985898989844500009EF226E6
:10044000000045E6E000DDED0010B3FFC12608FE28
:10045000E782E0F85C00002BFEFFFFFF13000000C6
:1004600050FF855AFFBD0A00007FFF390066FFD7A5
:100470000B00E6FF1F00005BFFFD3B6679000000FC
:1004800000499052000000000000000000081E23F8
:100490002C140B2E240039948DB27752B3A42E89DC
:1004A000F99FC8F3CEB4F1D1C0E52B2DFF802F9A70
:1004B000F9FBB40031FF2700C4F8DE6F0076DA08DC
:1004C00000E7B17427004779000079440023451CF8
:1004D00046582E000000B3FFE7FCFFFF940000EC3D
:1004E000F43C1710D5FF1A15FFC2000000C3FF141B
:1004F0003DFFFFA290AAFFDD0062FFBDFFFFFFCD21
:100500002E00A2FF23020D0D000000C4F108000020
:1005100000000000000000000000000000000000DB
:100520000000000000000068C5C8CDC57F05005868
:10053000FFB67685CAE61F0073FFE6D7D2AB590334
:10054000002A7F737691FFD40000B4E99A93B5FF37
:10055000AA0000298B9D9E966609000000000000FD
:10056000000000000029ABAF7F03530E0000B899D4
:1005700051CC9794000000F00A00AFC574848A4201
:100580009FB5B2BAA3B68A7BDF00170A76B9AD0071
:100590000AD800001EA332C5A3D4730000222C0089
:1005A0000D2D200000BDFF12000000000000F4DC53
:1005B0000000000000001AFFE3C7E4DDA11A0040BC
:1005C000FFF2A19EC1FF9D0068FF58000000FFBF21
:1005D0000095FF790D0D73FF9400EFFFFFFFFFFF04
:1005E000F229007D6655909086210000001A532D57
:1005F0000000B5FF990000597F30000000000000A6
:1006000000000000001A532D0000B5FF99000059AA
:100610007F3000000000000000000000000000002B
:1006200000000000000000001A532D00B5FF9900E3
:10063000597F300000000000557777AABBBBBBAAEA
:10064000777755110000000033DDFFFFFFFFFFFF4C
:10065000FFFFFFFFFFEE33000011EEFFFFFFFFFF84
:10066000FFFFFFFFFFFFFFFFEE000077FFFFFFFF31
:10067000CCBBBBBBBBBBDDFFFFFFFF3300CCFFFF31
:10068000EE3300000000000000AAFFFFFF4411FF4E
:10069000FFFF88000000000000000044FFFFFF3360
:1006A00044FFFFFF44000000000000000077FFFF50
:1006B000FF0077FFFFFF000000000000000000883F
:1006C000FFFFDD0099FFFFDD0000000000000000DB
:1006D00000BBFFFFBB00BBFFFFBB00000000000032
:1006E000000000FFFFFF7700EEFFFFBB00000000EF
:1006F0000000000066FFFFFF5500EEFFFFFF88448B
:10070000444444444488EEFFFFFF1100AAFFFFFF6A
:10071000FFFFFFFFFFFFFFFFFFFFFF99000044EE19
:10072000FFFFFFFFFFFFFFFFFFFFFFFFDD110000E7
:10073000002288BBFFFFFFFFFFFFFFEEBB7711002A
:1007400000000000000000000000000000000000A9
:10075000000000000000000000000055FFFFFFFF48
:1007600077000000000000000000000077FFFFFF9E
:10077000FFFF330000000000000000000088FFFFC2
:10078000FFFFFFFF11000000000000000000AAFFB3
:10079000FFAA99FFFFDD000000000000000000AA92
:1007A000FFFF8800CCFFFFAA00000000000000004F
:1007B0000022DD770000EEFFFF880000000000004F
:1007C0000000000000000033FFFFFF660000000093
:1007D00000000000000000000055FFFFFF33000094
:1007E000000000000000000000000077FFFFFF0095
:1007F00000000000000000000000000000AAFFFF51
:10080000CC0000000000000000000000000000CC50
:10081000FFFFAA0000000000000000000000000030
:1008200000FFFFFF77000000000000000000000054
:10083000000033FFFFFF5500000000000000000033
:100840000000000055FFFFFF330000000000000023
:1008500000000000000088FFFFFF00000000000013
:100860000000000000000000000000000000000088
:10087000000000000000000000227777777777778C
:1008800077771100000000000055DDFFFFFFFFFF3C
:10089000FFFFFFFFFFBB2200000055FFFFFFFFFF30
:1008A000FFFFFFFFFFFFFFFFBB000000EEFFFFFFAA
:1008B00099777777777777EEFFFFFF220055FFFF75
:1008C000FF550000000000000044FFFFFF440088C7
:1008D000FFFFEE000000000000000033FFFFFF33C9
:1008E00000000000000000000000000022BBFFFF2D
:1008F000FF1100000033777777AAFFFFFFFFFFFFAC
:10090000FFFFBB000022BBFFFFFFFFFFFFFFFFFF5A
:10091000FFFFFFCC220011DDFFFFFFFFFFFFFFFF06
:10092000FFFFFF886600000077FFFFFFAA777700D0
:1009300000000000000000000000BBFFFFBB000043
:10094000000000000000000000000000EEFFFFFFBC
:10095000FFFFFFFFFFFFFFFFFFFFFFEE0000FFFFB6
:10096000FFFFFFFFFFFFFFFFFFFFFFFFFFAA0000EA
:10097000FFFFFFFFFFFFFFFFFFFFFFFFFFFFFF770F
:100980000000000000000000000000000000000067
:100990000000000000000000226677777777777705
:1009A000777755110000000011BBFFFFFFFFFFFF2D
:1009B000FFFFFFFFFFFF66000000CCFFFFFFFFFF10
:1009C000FFFFFFFFFFFFFFFFFF220055FFFFFFBB01
:1009D00077444444444477BBFFFFFF770077FFFF31
:1009E000CC000000000000000044FFFFFF77001172
:1009F000000000000000000000000077FFFFFF443F
:100A000000000000000000EEFFFFFFFFFFFFFFFF00
:100A1000990000000000000011FFFFFFFFFFFFFF33
:100A2000EE55000000000000000044FFFFFFFFFF44
:100A3000FFFFFFDD000000000000000000000000DC
:100A4000000077FFFFFF3300334444330000000011
:100A50000000000044FFFFFF4400BBFFFFCC11007B
:100A600000000000000099FFFFFF1100BBFFFFFF27
:100A7000FFFFFFFFFFFFFFFFFFFFFFCC000055FF61
:100A8000FFFFFFFFFFFFFFFFFFFFFFFFFF4400002F
:100A9000002288CCFFFFFFFFFFFFFFFFDD9933003F
:100AA0000000000000000000000000000000000046
:100AB00000000000000000000000000000000044F2
:100AC000DDFFFFFFAA000000000000000000001191
:100AD000AAFFFFFFFFFF77000000000000000000FA
:100AE00055EEFFFFFFFFFFFF550000000000000074
:100AF00022BBFFFFFFFFEEFFFFFF330000000000FF
:100B00000066FFFFFFFFEE5577FFFFFF00000000CC
:100B10000033BBFFFFFFFF88000099FFFFCC000000
:100B2000000077FFFFFFFFBB33000000CCFFFFAAF0
:100B3000000044CCFFFFFFEE550000000000EEFF78
:100B4000FF770000FFFFFFFF880000000000003378
:100B5000FFFFFF550000FFFFFFFFFFFFFFFFFFFF4D
:100B6000FFFFFFFFFFFFFF33FFFFFFFFFFFFFFFF61
:100B7000FFFFFFFFFFFFFFFFFF00FFFFFFFFFFFF84
:100B8000FFFFFFFFFFFFFFFFFFFFCC0000000000A3
:100B900000000000000000CCFFFFAA0000000000E1
:100BA000000000000000000011FFFFFF77000000C0
:100BB0000000000000000000000033FFFFFF5500B0
:100BC0000000000000000000000000000000000025
:100BD000000000000000777777777777777777776F
:100BE0007777777777110000FFFFFFFFFFFFFFFFA9
:100BF000FFFFFFFFFFFFEE000033FFFFFFFFFFFFE0
:100C0000FFFFFFFFFFFFFFFFAA000055FFFFFF33BD
:100C10000000000000000000000000000077FFFF5F
:100C2000FF3377777777777777000000000000AAA7
:100C3000FFFFFFFFFFFFFFFFFFFFFFFFDD330000B0
:100C400000DDFFFFFFFFFFFFFFFFFFFFFFFFFFDDF7
:100C5000000011FFFFFFEE77777777777777FFFF59
:100C6000FFFF330022777777330000000000000099
:100C700066FFFFFF660000000000000000000000AB
:100C8000000044FFFFFF66000000000000000000BD
:100C90000000000077FFFFFF4400EEFFFFCC0000E4
:100CA000000000000033DDFFFFFF1100DDFFFFFF4C
:100CB000FFFFFFFFFFFFFFFFFFFFFFBB000077FF0E
:100CC000FFFFFFFFFFFFFFFFFFFFFFFFDD22000031
:100CD0000066CCFFFFFFFFFFFFFFFFFFCC770000A8
:100CE0000000000000000000000000000000000004
:100CF00000000000000000003377AABBBBBBBBBBF9
:100D0000BBAA77330000000022CCFFFFFFFFFFFFEC
:100D1000FFFFFFFFFFFF66000000CCFFFFFFFFFFAC
:100D2000FFFFFFFFFFFFFFFFEE000055FFFFFFBBD0
:100D300077444444444466BBFFFFFF000099FFFF33
:100D4000EE1100000000000000447777660000BB51
:100D5000FFFFBB11444444444444443300000000BA
:100D600000FFFFFFCCFFFFFFFFFFFFFFFFFFDD33B3
:100D7000000022FFFFFFFFFFFFFFFFFFFFFFFFFF5E
:100D8000FFEE110044FFFFFFEE88777777777777E4
:100D9000DDFFFFFF440077FFFFFF2200000000009F
:100DA000000022FFFFFF440077FFFFBB00000000B0
:100DB0000000000022FFFFFF4400BBFFFFDD110029
:100DC00000000000001199FFFFFF220088FFFFFFD5
:100DD000FFDDBBBBBBBBDDFFFFFFFFDD000044FF52
:100DE000FFFFFFFFFFFFFFFFFFFFFFFFEE330000EE
:100DF0000055CCFFFFFFFFFFFFFFFFFFEE99220032
:100E00000000000000003344444444444411000006
:100E100000000000003377777777777777777777F9
:100E20007777777777660077FFFFFFFFFFFFFFFF9A
:100E3000FFFFFFFFFFFFFF8800AAFFFFFFFFFFFF8D
:100E4000FFFFFFFFFFFFFFFFFF77007777777777E1
:100E5000777777777777EEFFFFFFBB000000000022
:100E60000000000000000077FFFFFFBB0000000053
:100E7000000000000000000077FFFFFFBB00000043
:100E800000000000000000000077FFFFFFCC110011
:100E90000000000000000000000077FFFFFFCC1101
:100EA000000000000000000000000077FFFFFFCC02
:100EB00011000000000000000000000066FFFFFFBE
:100EC000CC11000000000000000000000066FFFFE1
:100ED000FFDD22000000000000000000000066FFAF
:100EE000FFFFDD220000000000000000000000669F
:100EF000FFFFFFDD220000000000000000000000F6
:100F000044FFFFFFDD2200000000000000000000A1
:100F10000066FFFFFFEE330000000000000000004D
:100F200000000000000000000000000000000000C1
:100F3000000000000000003377EEFFFFFFFFFFFF1F
:100F4000FFFFBB770000000066FFFFFFFFFFFFFF12
:100F5000FFFFFFFFFFFFCC000022FFFFFFFFDD7759
:100F600077777777BBFFFFFFFF550077FFFFFF55D0
:100F70000000000000000044FFFFFF770099FFFF22
:100F8000EE000000000000000022FFFFFF77008855
:100F9000FFFFFF220000000000000077FFFFFF338B
:100FA0000022EEFFFFFFDD77777777BBFFFFFFFFC4
:100FB0007700000044EEFFFFFFFFFFFFFFFFFFFF92
:100FC000EE2200000099FFFFDD777777777777775C
:100FD000DDFFFFDD110066FFFFFF220000000000C3
:100FE000000055FFFFFF5500BBFFFFDD00000000C4
:100FF0000000000044FFFFFF6600DDFFFFFF44002C
:10100000000000000033CCFFFFFF3300AAFFFFFF0A
:10101000FFFFFFFFFFFFFFFFFFFFFFDD000066FF99
:10102000FFFFFFFFFFFFFFFFFFFFFFFFFF44000089
:101030000055BBFFFFFFFFFFFFFFFFFFDD77110044
:1010400000000000000000000000000000000000A0
:101050000000000000000000337777BBBBBBBBBBC8
:10106000997755110000000033CCFFFFFFFFFFFF11
:10107000FFFFFFFFFFEE33000011DDFFFFFFFFFF6B
:10108000FFFFFFFFFFFFFFFFDD000066FFFFFFDD4B
:1010900077777777777777DDFFFFFF220099FFFF7C
:1010A000DD110000000000000055FFFFFF3300BB12
:1010B000FFFFBB000000000000000066FFFFFF0014
:1010C00000BBFFFFEE2200000000000022CCFFFF6B
:1010D000FF0000BBFFFFFFFFFFFFFFFFFFFFFFFF62
:1010E000FFFFBB000055FFFFFFFFFFFFFFFFFFFFFC
:1010F000FFFFFFFF990000004499BBFFFFFFFFFFC8
:10110000DDBB55FFFFFF770000000000000000007E
:101110000000000044FFFFFF440088BBBB880000C4
:10112000000000000000AAFFFFEE0000AAFFFFFF82
:1011300099775544445577BBFFFFFF99000055FF51
:10114000FFFFFFFFFFFFFFFFFFFFFFFFCC110000CE
:101150000055CCFFFFFFFFFFFFFFFFFFFF991100CE
:101160000000000000004444444444444433000070
:10117000000000000000000000000000000000006F
:1011800000000000000001030810200F0000000014
:101190000000000000010409111C2B3B4D5F707E14
:1011A00084868A5001070D16223141536676828665
:1011B0008888888684807E7C7A787A484784868886
:1011C000868482807C7A78767674727270706E6EA5
:1011D0006C647240437272706E6C6C6A6A686866A6
:1011E0006464626260605E5C4E928E323D82545CEA
:1011F0005C5A5A58565656545452525050504846BB
:10120000BCE4502D26ACA4384646464444444242F1
:1012100042404040403054F6C6302C291C16B6C21D
:101220002A30363634343434343434301E8EFF8A27
:101230001E262423140C16B2EC2E222C2C2C2C2C23
:101240002C2C202AE2FF541A241E1A231A061814E2
:10125000A0FF4E2432323232321E62FFEC261C20B6
:101260001C181420210816221288FF803246463EA0
:1012700030C4FF9C142222201C18161C2B101C2486
:101280002A0C84FFC64C526AFFFF4C1628262422E3
:10129000201C1A1D251E282C245C9E76FFFFBAFFF9
:1012A000FFAA6E242E2C2A282622221E2A2E342C17
:1012B0007CAE3A1A46FFFFB81C3ABEAA2E32343032
:1012C0002E2A2A2B3B3A3E8A882A2C342C48682C1A
:1012D000423E36A6CE46383C3834342E3D4E7A5CFB
:1012E000262C3032383A3C484A4C4A3A86D6603E40
:1012F000444042282D64422A2C2A2C323A424A5039
:10130000545656544668CA76464C52211F48362ECB
:1013100028282E38424C565E626264625E5456A49F
:1013200084525E1F3A563A2C2A303C4A56606A7004
:10133000747674726C686058847E681F1B8C766249
:101340005C6470787C808286868886827E76726C09
:101350006272801900000B274B78A0C2D0CEC0B4B7
:10136000ACA49E968E867E78746E7619000000007E
:10137000000000001636608CB7CFD9D2C4B6A89A48
:101380008E828217000000000000000000000000B4
:1013900000041D44719FC6DAE0D0CE1F000000009B
:1013A0000000000000000000000000000000001528
:1013B000345D890D00000000000203060A287AD679
:1013C000FFFFFFFFFFFFFFFFFFFFFFFFFFFFFFFF2D
:1013D000FFFFFFFFFFFFFFFFFFFFFFFFFFFFFFFF1D
:1013E000FFFFFFFFFFFFFFFFFFFFFFFFFFFFFFFF0D
:1013F000FFFFFFFFFFFFFFFFFFFFFFFFFFFFFF0FED
:10140000000000000002040726DDFFFCB3B6BABDF1
:10141000BFC1C3C5C6C7C7C8C8C8C8C8C8C8C8C868
:10142000C8C8C8C8C8C8C8C8C8C8C8C8C8C8C8C83C
:10143000C8C8C8C8C7C7C6C5C4C2C0BEBBB8B5B295
:10144000AFADABA9A8A7A6A6FFFFFF7B00000000D9
:1014500000020523DDFFCF312D38434C555C636816
:101460006C6F717171717171717171717171717173
:10147000717171717171717171717171717171715C
:1014800071706D6A655F5850473D32281F17100B09
:1014900006030115D2FFD21500000000000320DF73
:1014A000FFCE2D2934414D58626B72787D80828346
:1014B00083838383838383838383838383838383FC
:1014C00083838383838383838383838383817E7AFC
:1014D000756E665D5246392E231B130C070416D217
:1014E000FFD2150000000000001EDFFFCD27242FD3
:1014F0003C4A5864707982888E919495959595951B
:10150000959595959595959595959595959595958B
:10151000959595959595959594938F8B857D746903
:101520005D504134281E150E0819D2FFD215000057
:10153000000000001BDEFFCC221C2733404F6264FA
:101540006879959595959595959595959595959594
:10155000959595959595959595959595959595953B
:101560009595959595958B8B857D6A65615B4638DC
:101570002C21170F1DD3FFD2150000000000001E04
:10158000DEFFCA1B141D2733415058686876848BD0
:1015900095959595959595959595959595959595FB
:1015A00095959595959595959595959595959595EB
:1015B00095958B8B857D6565655D47392C21172356
:1015C000D4FFD2150000000000001EDEFFCA160C7A
:1015D000131B25303D4B5A67727C848B91949798EE
:1015E000989898989898989898989898989898987B
:1015F0009898989898989898989898989796928E7E
:101600008780766B5F514335291F29D4FFD316009D
:1016100000000000001EDEFFC912060B1118212B6E
:1016200036434F5B656E757B8083858686868686AE
:10163000868686868686868686868686868686864A
:1016400086868686868686868684817D7871685FB2
:1016500054483B2F242ED5FFD31901000000000071
:101660001EDEFFC90A0205090E151C252F3A454F3B
:10167000585F666B6F727474747474747474747479
:10168000747474747474747474747474747474741A
:10169000747474747473706D68625B52493E33295C
:1016A00032D6FFD41B0301000000000072FFFFD8F8
:1016B000CC8687898B8E9094989CA1A5A8ACAEB15E
:1016C000B2B3B4B4B4B4B4B4B4B4B4B4B4B4B4B4DD
:1016D000B4B4B4B4B4B4B4B4B4B4B4B4B4B4B4B4CA
:1016E000B4B3B2B1AFADAAA6A39E9AD3EAFFD41DFC
:1016F00006030000000000000099FFFFFFFFFFFF4E
:10170000FFFFFFFFFFFFFFFFFFFFFFFFFFFFFFFFE9
:10171000FFFFFFFFFFFFFFFFFFFFFFFFFFFFFFFFD9
:10172000FFFFFFFFFFFFFFFFFFFFFFFFFFFFFFFFC9
:10173000FFFFFFFFFFFFFFFFFF7020080502000013
:101740000000000000000000000000000000000099
:10175000000000000000000000739B90987E38009D
:10176000001DE1FFFFFFEF32000074FFFFFFFFB538
:1017700001000CD2FFFFFFFF5900005CFFFFFFFFDD
:10178000D9110005C1FFFFFFFF85000030E9FFFF11
:10179000FFEF320000187BAFB9AB7900000000000A
:1017A0000000000000000000000000000000000039
:1017B0000902120001010080640904000000000019
:1017C000000012011001FF000008C016DC05000136
:1017D0000102000116034E00650074004D006F0009
:1017E0006E00690074006F00720020037A006100CF
:1017F0006B006B0065006D0062006C0065002E00E0
:1018000063006F002E0075006B00040309041124AF
:101810001FBECFEFD8E0DEBFCDBF11E0A0E0B1E04A
:10182000E0E7F1E402C005900D92A435B107D9F7C5
:1018300012E0A4E5B1E001C01D92AD32B107E1F7BD
:101840000E94711C0C94B6200C940000A4E2B0E03D
:10185000ECE2FCE00C94A11F6C0111E080E090E050
:101860000E942D198823E9F0809154018111F6CF4F
:1018700080910000843209F46FC18A32D9F09091CE
:101880005501973458F7E92FF0E0EA5AFE4F80836C
:101890009F5F9093550180E090E00E942D19811187
:1018A000E3CF80915401813041F0A496E2E10C94A1
:1018B000BD1F5FC110935401D1CF109255011092FA
:1018C00054011A8219821C821B821E821D82188674
:1018D0001F821A8619861C861B861E861D861F86F9
:1018E00088E0E6E0F1E0DE01509601900D928A95E5
:1018F000E1F7FE01789688E0DF011D928A95E9F70D
:101900006DE371E086E591E00E943320009709F4D1
:1019100069C06FE371E00E944B20892B09F062C01F
:10192000512C8E01005F1F4F3601FFEC6F0E711CB2
:10193000460181EC880E911C560190ECA90EB11C59
:1019400053946DE371E080E090E00E9433200097B3
:1019500009F44BC0452D50E0FA013197EA30F1050A
:1019600078F7EC5CFF4F0C94D81F2DE030E040E09E
:1019700050E0BC01C4010E943620E2CF0E94162034
:10198000F5018083DDCF2FE030E040E050E0BC0186
:10199000C8010E943620D4CF0E9416208F87D0CF56
:1019A0000E9416209E878D87CBCF0E9416209E8393
:1019B0008D83C6CF0E94162098878F83C1CF0E9447
:1019C00016209A838983BCCF0E9416209C838B8328
:1019D000B7CF28E030E040E050E0BC01C3010E94F6
:1019E0003620AECF8E01005F1F4F89819A81AB8177
:1019F000BC81F60180839183A283B3838D819E8114
:101A0000AF81B88584839583A683B7838D859E85B2
:101A1000958784878F8586872FE030E040E050E00F
:101A2000B801C6010F960E9436206B817C8180E050
:101A300090E00E94681E2AE939E949ED5DE30E94C1
:101A4000F61E0E943C1E4B015C017B0169817A817C
:101A500080E090E00E94681E2AE939E949ED5DE3E3
:101A60000E94F61E0E943C1E2B013C017CA36BA32E
:101A7000D60119967C936E9318971B969C928E9222
:101A80001A971601BFEB2B0E311CF101F081F8A360
:101A90008F2F90E09AA389A300E010E06F817885F2
:101AA00080E090E020E030E0A9010E942C1CDC01E5
:101AB000CB0100E010E02FEF30E0A40160E070E027
:101AC0000E94021CA9A0BAA0AA0CBB1CAA0CBB1C99
:101AD000AC0CBD1CD5015F968C93EBA1FCA17F01E2
:101AE00000E010E06D817E8180E090E020E030E059
:101AF000A9010E942C1CDC01CB0100E010E02FEFBB
:101B000030E0A20160E070E00E94021CE9A1FAA1AD
:101B10003896EE0FFF1FEE0FFF1FEC0DFD1D8083AB
:101B20008D85D50191968C9391978F8592968C9304
:101B300088A18F5F883208F080E0D1018C9347E460
:101B400050E060E070E086E591E00E944420A496B9
:101B5000E2E10C94BD1F0DC01092550147E450E026
:101B600060E070E086E591E00E94442080910000F2
:101B700084CE0F931F93CF93DF93182F862F012FBF
:101B800020E04FEF60E00E94E21B082F612F681BEE
:101B900009F4A6C080EC9FE370E00E945F1F299AC1
:101BA0002A98112309F472C0402F50E051954195B5
:101BB0005109649F9001659F300D749F300D112471
:101BC00090E0091708F068C0A9010024440F551FD0
:101BD000001C440F551F001C452F502D409509F443
:101BE00075C04F3F09F475C0A091AB014A9FD00169
:101BF00011240A2EAB2F000CAA1FBB0B000CAA1F2E
:101C0000BB1F8A2FA091AC014A9FD00111240A2E3C
:101C1000AB2F000CAA1FBB0B000CAA1FBB1FE0912F
:101C2000AD014E9FF00111240E2EEF2F000CEE1F80
:101C3000FF0B000CEE1FFF1FD82FD87F80E0C82FAE
:101C4000A695A69580E2A89FA00111244C2B5D2BA0
:101C5000E695E695E6954E2B852F8EBD0DB407FED5
:101C6000FDCF5EB54EBD0DB407FEFDCF5EB58EBD9A
:101C70000DB407FEFDCF8EB54EBD0DB407FEFDCFF2
:101C80008EB59F5F260F371F91139BCF2A9ADF9146
:101C9000CF911F910F9108951EBC0DB407FEFDCF8B
:101CA0008EB51EBC0DB407FEFDCF8EB51EBC0DB4A7
:101CB00007FEFDCF8EB51EBC0DB407FEFDCF8EB561
:101CC0009F5F260F371F91137CCFE0CF40E080E06D
:101CD000C4CF8091AE01A091AF01E091B001ACCF33
:101CE00060EC7FE35CCFA0E0B0E0E9E7FEE00C94BD
:101CF000A31F7C01C62ECA9487E28C1510F467E2FC
:101D0000C62E88E00E949E18C0E0D0E030E2632E2C
:101D100040E4742E50E8852E99249A9497E28C2DF5
:101D20009C1508F4885D8701E4E08E9F000D111D6D
:101D30001124BB24B394D12CCE01880F991F0E9689
:101D4000A82EAA0C5A2C5394D1101BC01092AB0190
:101D50006092AC017092AD011092AE018092AF0121
:101D60009092B001F801408020EA452D6CE58A2D63
:101D70000E94A618642D84E4FCDED394B394DD2085
:101D800029F37092AB016092AC011092AD01909278
:101D9000AE018092AF011092B001F80141809E0126
:101DA0002D0D311D2C0F3D1F225F3F4F822F880FBD
:101DB000482F4F5F20EA6CE50E94A618642D84E44A
:101DC000D8DEF2E0BF12D9CF2196CA94C931D1052D
:101DD00009F0A4CF88E60E949E18CDB7DEB7E0E1F7
:101DE0000C94BF1FA0E0B0E0E8EFFEE00C94A41F4D
:101DF000762E7A9427E2271510F4C7E27C2EE7E2CC
:101E0000AE2EA7188C010F5F1F4FC12CF0E25F2E82
:101E1000A0E46A2EB0E88B2E99249A94CA2DC85259
:101E20007C1408F0CA2DD0E0CC0FDD1FBB24B39486
:101E3000D12C780181E0E81AF108CE018D0D911DB9
:101E4000880F482F4F5F26E760E00E94A618D11048
:101E500013C01092AB015092AC016092AD01109290
:101E6000AE018092AF019092B001F701608186E7E8
:101E700080DED394B394E1CF6092AB015092AC0179
:101E80001092AD019092AE018092AF011092B0011C
:101E9000F801608186E76DDEF2E0BF12EACFC394FD
:101EA000A3940C5F1F4F27E2C212B8CFCDB7DEB7A5
:101EB000EFE00C94C01FA3EEB1E0E1E6FFE00C946C
:101EC000A11FCF51DE4F6883C15ED1403E0107E3C1
:101ED000601A0EEF700A27EEF301208398EB9183CE
:101EE00097E19283238326E9248395839CEE96834E
:101EF0009FE7978395E190879DEE91879EE5928776
:101F000091E1938790EF94879EE395879EE0968773
:101F10009FEF9787108A118A282F245F4DE4682F3E
:101F200082E00E94A618299A2A98CF51DE4F088194
:101F3000C15ED140000F000F000FCF51DE4F18815E
:101F4000C15ED140010F0950C052DE4F0883C05E10
:101F5000D1406FEF7FEF412C512C27E12093AB0153
:101F600040E24093AC012093AD015CE55093AE019B
:101F700080E88093AF015093B0018B010C511F4F4B
:101F8000CE51DE4F19830883C25ED140D301C80110
:101F900036C0EF3F09F478C117E1E19F90011124A9
:101FA000022E232F000C221F330B000C221F331F85
:101FB000269526952695422F50E020E2E29FF001DB
:101FC00011240E2EEF2F000CEE1FFF0B000CEE1F46
:101FD000FF1FE695E69500E2E09FF00111249A01CB
:101FE000322F2227330F330F330F2E2B3F2B242B6F
:101FF000352B3E932E9301978617970771F0FC01BE
:10200000EC54FC4EE491E111C4CF20E030E03E936B
:102010002E9301978617970791F70091AB01C55250
:10202000DE4F0883CB5DD1401091AC01C452DE4F2E
:102030001883CC5DD1402091AD01C352DE4F28837F
:10204000CD5DD140A090AE019090AF018090B001E5
:10205000C052DE4FB880C05ED140CF51DE4F888184
:10206000C15ED14081011401C252DE4F7982688283
:10207000CE5DD140782E7A944FEF741609F4BBC030
:10208000872D90E0FC01EE0FFF1FE80FF91FC252F1
:10209000DE4F48815981CE5DD140E40FF51F22808B
:1020A0003180A08050E4A59EC00111246FEF70E044
:1020B0000E94731F7B01C552DE4F6883CB5DD14008
:1020C000E0E43E9EC00111246FEF70E00E94731F98
:1020D0006B01C452DE4F6883CC5DD140F0E42F9E8B
:1020E000C00111246FEF70E00E94731F4B01C352B7
:1020F000DE4F6883CD5DD14020E030E040E050E02D
:10210000BB2DB85FC701E72C3C01A8E0BA01F9017B
:10211000EA0FF11DE40DF51DEC5BF84EE491EE23A2
:1021200009F456C0EF3F09F4B2C0F0E06E9EC00162
:102130006F9E900D7E9E900D112497FDACC0082ED1
:10214000892F000C881F990B000C881F991FF82EEF
:10215000CE9EC001CF9E900DDE9E900D112497FD66
:102160009FC0082E892F000C881F990B000C881F18
:10217000991F8E9EA0018F9E500D9E9E500D112482
:1021800057FD8BC0042E452F000C441F550B000C2F
:10219000441F551F9B2F9A0FFB01E90FF11DEE0FF6
:1021A000FF1F01E010E00C0F1D1FE00FF11F1F2D9E
:1021B000187F00E08695869550E2859FC001112426
:1021C000802B912B469546954695842B9183808351
:1021D000A15008F09CCFAB01445B5F4F275F3F4F9E
:1021E000443E510509F091CF7E2C87EFB80E7A94CA
:1021F0004FEF741245CF41011801C252DE4F688083
:102200007980CE5DD140C552DE4F0881CB5DD14093
:102210000093AB01C452DE4F1881CC5DD1401093C6
:10222000AC01C352DE4F2881CD5DD1402093AD017A
:10223000A092AE019092AF018092B001FE01319662
:102240008081918132969EBD0DB407FEFDCF9EB573
:102250008EBD0DB407FEFDCF8EB5E615F70581F7EF
:102260004BE1440E511CCE51DE4F68817981C25E34
:10227000D1405CE64516510409F06FCE2A9ACD5143
:10228000DE4FE2E10C94BD1F2BE03CE5B2CE422DC7
:10229000832DFA2C7FCFCF9652CF415C5F4F72CF08
:1022A000CF965FCFCF93DF93882309F47CC08091D2
:1022B0000301813009F48AC080E48093AB0110925D
:1022C000AC011092AD018FEF8093AE011092AF017F
:1022D0001092B00181E08093030120E84EE968E6A6
:1022E00087E834D7299A2A9820E030E0F901EC58A1
:1022F000FE4EE491EE2309F47DC0EF3F09F47DC06A
:102300008091AB01E89FC001112497FD81C0082E88
:10231000892F000C881F990B000C881F991F482FCC
:102320008091AC01E89FC001112497FD6FC0082E79
:10233000892F000C881F990B000C881F991F909102
:10234000AD01E99FF0011124F7FD5EC00E2EEF2FC5
:10235000000CEE1FFF0B000CEE1FFF1FD42FD87FC9
:1023600040E0C42F8695869540E2849FC0011124E9
:102370008C2B9D2BE695E695E6958E2B9EBD0DB498
:1023800007FEFDCF9EB58EBD0DB407FEFDCF8EB509
:102390002F5F3F4F203482E0380709F0A7CF2A9AF9
:1023A000DF91CF910895809103018823C9F31092A2
:1023B000AB011092AC011092AD011092AE011092DF
:1023C000AF011092B0011092030187CF80E4809397
:1023D000AB0180E28093AC011092AD018FEF80934E
:1023E000AE0180E88093AF011092B00182E080934B
:1023F000030173CF80E090E0C1CF4091AE018091A6
:10240000AF01E091B001AACFFF96A0CFCF968FCFBA
:10241000CF967DCFA0E0B0E0E0E1F2E10C94A51F03
:10242000C82E962ED22EFA016080662009F449C18A
:102430008A01812C2091A5018394E090A901F0905C
:10244000AA018091A401F4E2EF16F1E0FF0609F47D
:10245000ECC030E2631609F4E3C09091A801691A58
:10246000A82EB12C712C290D4C2D4150480F692DEF
:102470008C2D6CD62091A5012A9DA0012B9D500D7D
:102480001124299A2A984115510509F462C0649EC5
:10249000C001659E900D1124F701E80FF91F4E0D44
:1024A0005F1D480F591F71109AC03491332309F4EE
:1024B000A6C03F3F09F4A6C08091AB01389FC00180
:1024C000112497FDABC0082E892F000C881F990B93
:1024D000000C881F991FA82F8091AC01389FC00164
:1024E000112497FD99C0082E892F000C881F990B85
:1024F000000C881F991F6091AD01369FB001112417
:1025000077FD87C0062E672F000C661F770B000C27
:10251000661F771FDA2FD87F30E0C32F8695869508
:1025200030E2839FC00111248C2B9D2B669566950C
:102530006695862B9EBD0DB407FEFDCF9EB58EBD64
:102540000DB407FEFDCF8EB53196E417F50709F0FF
:10255000AACF2A9AF80181918F018E3209F4B3C073
:102560008A3309F4BBC08091A401C80EF8016080D1
:10257000611062CFDD2071F18D1460F5C091A4016E
:102580002091A5018394290D4C2F4C0D4150692DAC
:102590008C2DDCD52091A501C29FA0011124299A80
:1025A0002A984115510581F080E090E01EBC0DB4E1
:1025B00007FEFDCF3EB51EBC0DB407FEFDCF3EB5F8
:1025C00001964817590791F72A9AC091A401CC0E99
:1025D0008D14C0F2CDB7DEB7EEE00C94C11F1EBC67
:1025E0000DB407FEFDCF8EB51EBC0DB407FEFDCFAA
:1025F0008EB53196E417F50709F055CFAACF80E0E4
:1026000090E098CFA091AE018091AF016091B001B0
:1026100081CF615C7F4F76CFCF9665CFCF9653CF7A
:10262000A82EB12C772473941ECF462D50E0FA01CA
:10263000B097E435F10508F010CFE25CFF4F0C9441
:10264000D81FA82EB12C712C6DE0662E0CCFA82EB1
:10265000B12C712CECE06E2E06CFA82EB12C712C73
:10266000ABE06A2E00CFA82EB12C712CB0E16B2EFE
:10267000FACEA82EB12C712C7EE0672EF4CEA82EB7
:10268000B12C712CFAE06F2EEECE45E0A42EB12CC9
:1026900085E05CEEE52E55E0F52E712C612CE3CE45
:1026A00084E0A82EB12C84E094E1E92E96E0F92E86
:1026B000712C612CD8CEA82EB12C712C3FE0632E4A
:1026C000D2CE812C57CF8091A9019091AA0184523A
:1026D000914009F048CF94E0C90E48CF8091A901FC
:1026E0009091AA018452914009F03DCF85E0C80E37
:1026F0003DCF89E08093A40188E08093A50188E420
:1027000090E09093A7018093A60184E291E09093DA
:10271000AA018093A90180E38093A8011092AB01E4
:1027200087E38093AC018AE08093AD0182E08093DF
:10273000AE018FED8093AF018BE28093B00120E07A
:1027400041E451E068E78DE165DE20E041E451E0DD
:1027500068E785E65FCEEF92FF920F931F93CF93CA
:10276000DF9389E08093A40188E08093A50188E449
:1027700090E09093A7018093A60184E291E090936A
:10278000AA018093A90180E38093A8011092AB0174
:1027900087E38093AC018AE08093AD0182E080936F
:1027A000AE018FED8093AF018BE28093B00120E00A
:1027B00046E451E062E08FE22DDE20E046E451E0A5
:1027C00062E38FE227DE20E04BE451E060E68AE43A
:1027D00021DE20E04DE451E060E68DE11BDE85E086
:1027E0008093AB018EE28093AC0189E38093AD01CD
:1027F00087E18093AE0188EB8093AF0187EE8093F1
:10280000B00120E040E551E06CE08AE303DE20E027
:1028100043E451E064E18AE3FDDD20E040E551E07E
:102820006CE38AE3F7DD20E043E451E064E48AE30B
:10283000F1DD1092AB0180E28093AC0180E48093E3
:10284000AD011092AE0180E88093AF018FEF8093CD
:10285000B00125E64BE560E08BE578D4299A2A980B
:10286000C1E0D0E080E090E09EBD0DB407FEFDCF5A
:102870009EB58EBD0DB407FEFDCF8EB5C536D10514
:1028800009F45DC0BE01882777FD8095982F0E94CE
:102890006A1E20E030E04AEC52E40E94CF1D20E0A6
:1028A00030E04FE753E40E94F61E0E943C1E662370
:1028B000D9F16F3FE9F18091AB01689FC00111240C
:1028C000082E892F000C881F990B000C881F991F58
:1028D000282F8091AC01689FC0011124082E892FF8
:1028E000000C881F990B000C881F991F9091AD0157
:1028F000699FB0011124062E672F000C661F770B0D
:10290000000C661F771F122F187F00E086958695B2
:1029100020E2829FC0011124802B912B6695669541
:102920006695862B2196A0CF80E090E021969CCFE3
:102930002091AE018091AF016091B001E4CF2A9A5D
:1029400026E64EE965E68BE501D4299A2A98C4E487
:10295000D0E0BE01882777FD8095982F0E946A1EDF
:1029600020E030E048E852E40E94CF1D20E030E053
:102970004FE753E40E94F61E0E943C1E662309F4B2
:102980004EC06F3F09F44EC08091AB01689FC001FB
:102990001124082E892F000C881F990B000C881F0A
:1029A000991F482F8091AC01689FC0011124082E07
:1029B000892F000C881F990B000C881F991F2091EC
:1029C000AD01629F90011124022E232F000C221FC3
:1029D000330B000C221F331F98EFF92EF422E12C49
:1029E0008695869530E2839FC00111248E299F2908
:1029F000269526952695822B9EBD0DB407FEFDCF0C
:102A00009EB58EBD0DB407FEFDCF8EB5219709F0A2
:102A1000A0CF2A9ACDB7DEB7E6E00C94C91F80E0BC
:102A200090E0EACF4091AE018091AF012091B001DA
:102A3000D3CFA5E0B0E0EFE1F5E10C94A51FB82EEF
:102A4000A62E8901CDB6DEB679014217530708F4E8
:102A50007A014AE0BE016F5F7F4FC7010E947B2071
:102A60000A30110508F453C098012A5031092A355B
:102A7000310508F03FC03AE0E316F10408F047C022
:102A800082E0E82EF12C88248394912C91E08091AF
:102A9000A40120E0AE014F5F5F4F6A2D3B2D989F50
:102AA000300D1124832FB6DC6DB67EB68DB79EB780
:102AB0008E199F090FB6F8949EBF0FBE8DBF0DB73C
:102AC0001EB70F5F1F4FA70160E270E0C8010E94B0
:102AD0004420F801E80DF91D108220E0A8016A2DBC
:102AE0008B2D98DC862D972D0FB6F8949EBF0FBEC8
:102AF0008DBF14C0083E83E01807C8F0003187E29C
:102B0000180728F498EEE91693E0F90600F120E0A2
:102B1000AE014F5F5F4F6A2D8B2D7CDC0FB6F894B2
:102B2000DEBE0FBECDBE2596EEE00C94C11F94E62E
:102B3000E916F10460F73AE0E316F104C0F413E09B
:102B4000E12EF12C02E0802E912C92E0A0CF34E611
:102B5000E316F10418F58AE0E816F104E8F4A4E0BD
:102B6000EA2EF12CB3E08B2E912C93E090CF11E064
:102B70008091A40120E0AE014F5F5F4F6A2D9B2D35
:102B8000189F900D1124892F45DC812E912C740102
:102B90003FEFE31AF30A88CF12E0EACF8091A40155
:102BA00020E0AE014F5F5F4F6A2D8B0D33DC22E0DA
:102BB000E22EF12C88248394912C76CFCF93DF934F
:102BC000EC01FC01E154FF4F60814F960BD989E085
:102BD0008093A40188E08093A50188E490E090931D
:102BE000A7018093A60184E291E09093AA018093CB
:102BF000A90180E38093A8011092AB0187E3809341
:102C0000AC018AE08093AD0182E08093AE018FED4C
:102C10008093AF018BE28093B0014E815F8127EEFC
:102C200033E068E782E005DF4C815D8127EE33E029
:102C300068E78AE4FEDEDF91CF910895A4E0B0E07A
:102C4000E4E2F6E10C94A11F9C838B83FC01E15428
:102C5000FF4F60814F9647D844EA442E41E0542EFE
:102C600089E0F201808355EA252E51E0352E88E077
:102C7000F101808388E490E0E6EAF1E091838083CB
:102C800084E291E0E9EAF1E09183808390E3E8EA6D
:102C9000F1E090836BEA862E61E0962EF4011082BB
:102CA0007CEAA72E71E0B72E87E3F5018083EDEA79
:102CB000CE2EE1E0DE2E8AE0F6018083FEEAEF2EE2
:102CC000F1E0FF2E82E0F70180830FEA11E08FED43
:102CD000F8018083A0EB6A2EA1E07A2E8BE2F3014B
:102CE0008083EB81FC81428153812FE037E262E0F7
:102CF00082E09A839EDEEB81FC81408151812FE04E
:102D000037E262E382E095DEEB81FC81468523E6D3
:102D100030E050E060E688E38CDE4B815C81415F0F
:102D20005F4F2FE066E782E075DBEB81FC81448535
:102D3000558527EE33E060E682E07BDE80E4F40137
:102D4000808380E2F5018083F60110828FEFF70126
:102D5000808380E8F8018083F30110824B815C81DD
:102D600041535F4F28E06CE682E054DB82E1F201E0
:102D7000808380E1F101808320E231E0E6EAF1E046
:102D80003183208324E336E0E9EAF1E031832083D4
:102D90009A81E8EAF1E09083B5E02B2EF4012082DD
:102DA0009EE2F501908379E3F601708387E1582E66
:102DB000F701508228EB422EF801408237EE332E85
:102DC000F3013082EB81FC814681578127EE33E0AD
:102DD0006CE082E079839A832CDEEB81FC81448174
:102DE000558127EE33E06CE382E023DEEB81FC814A
:102DF000E054FF4F808156DA7981F40170839A8123
:102E0000F5019083F6012082F7013082F8014082BB
:102E1000F3015082EB81FC816681778180E090E054
:102E200057D76B017C01EB81FC81628573856F5FF5
:102E30007F4F80E090E04CD79B01AC01C701B60109
:102E4000AED620E030E040EC50E4D0D720E030E0D7
:102E500040E05FE340D60BD716E0E12EF12C00E016
:102E600010E020E030E0A901F7D48DE124D8EB8117
:102E7000FC816481758180E090E02AD76B017C0140
:102E8000EB81FC81608571856F5F7F4F80E090E012
:102E90001FD79B01AC01C701B60181D620E030E00D
:102EA00040EC50E4A3D720E030E040E05FE313D6ED
:102EB000DED616E0E12EF12C00E010E020E030E05C
:102EC000A901CAD48DE40E945B0F2496E2E10C9420
:102ED000BD1F90910101891761F0809301015BD1C1
:102EE00080910101882331F0813031F081E08093BD
:102EF000A301089530DCFACFFCDBF8CF2091A301C9
:102F0000FC01E154FF4F222361F020812093020154
:102F10001092A30120910101222381F0213079F048
:102F200008952081309102012317D1F320930201EB
:102F30001092A301209101012111F0CF7FCE3ECE4E
:102F400029982A988EBD0DB407FEFDCF8EB52A9A1A
:102F50000895299A2A988EBD0DB407FEFDCF8EB52F
:102F60002A9A0895579A219A229A5F9A29982A9A1A
:102F700080EB94E024EF31E0F9013197F1F701970C
:102F8000D9F75F9880E593EC0197F1F75F9A80EBB2
:102F900094E024EF31E0F9013197F1F70197D9F787
:102FA00081E0CEDF8CED95E024EF31E0F90131973F
:102FB000F1F70197D9F781E1C3DF88EE93E024EFC1
:102FC00031E0F9013197F1F70197D9F781EBB8DFDB
:102FD00081E0BFDF8CE2BDDF8DE2BBDF82EBB0DFE3
:102FE00081E0B7DF8CE2B5DF8DE2B3DF83EBA8DFF2
:102FF00081E0AFDF8CE2ADDF8DE2ABDF81E0A9DF06
:103000008CE2A7DF8DE2A5DF84EB9ADF87E0A1DF0A
:1030100080EC96DF82EA9DDF82E09BDF84E899DF27
:1030200081EC8EDF85EC95DF82EC8ADF8AE091DF30
:1030300080E08FDF83EC84DF8AE88BDF8AE289DF40
:1030400084EC7EDF8AE885DF8EEE83DF85EC78DF37
:103050008EE07FDF80E274DF86E372DF88EC79DF69
:103060008AE36EDF85E075DF8AE26ADF80E071DF88
:1030700080E06FDF80E06DDF8FE76BDF8BE260DF8A
:1030800080E067DF80E065DF80E063DF8FE961DF9C
:1030900080EE56DF8FE05DDF8AE15BDF8FE059DF96
:1030A00088E157DF8FE255DF88E253DF80E251DFAE
:1030B00082E24FDF8FE14DDF8BE14BDF83E249DFBF
:1030C00087E347DF80E045DF87E043DF82E041DFE1
:1030D00080E13FDF81EE34DF8FE03BDF8BE139DFE2
:1030E0008FE037DF87E135DF83E333DF8CE231DFE9
:1030F00089E22FDF8EE22DDF80E32BDF80E329DF03
:1031000089E327DF8FE325DF80E023DF87E021DF0E
:1031100083E01FDF80E11DDF89E212DF88EE93E0AC
:1031200024EF31E0F9013197F1F70197D9F783E105
:1031300007DF80E593EC0197F1F70895CF93C82F4F
:1031400086E3FEDE8C2F05DFCF910895A3E0B0E08B
:10315000EBEAF8E105C7182F8AE22B8349836A83DB
:10316000EFDE80E0F6DE812FF4DE80E0F2DE4981E2
:10317000842FEFDE8BE2E4DE80E0EBDE6A81862FD7
:10318000E8DE80E0E6DE2B81822FE3DE8CE2D8DE13
:103190002396E3E001C72FE74FE960E080E0D6DF48
:1031A000299A2A9820E080EA1EBC0DB407FEFDCFC4
:1031B0009EB51EBC0DB407FEFDCF9EB58150A1F794
:1031C0002F5F203881F72A9A08958095982F915083
:1031D0009E3F60F094B59F7794BD811111C05E98B9
:1031E00080916400806280936400089590916400EF
:1031F0009F7D9093640094B5906894BD87BD0895B9
:103200005E9A80916400806280936400089584B126
:103210008C6284B985B1846185B985B1877D85B9B2
:103220008CE58CBD81E08DBD0895589881E890E0D3
:103230009093C5008093C40080E98093C10086E02C
:103240008093C20085EB91E09093B4018093B30129
:103250009093B2018093B10108954091B3015091D0
:10326000B4012091B1013091B20142175307E9F046
:10327000E091B101F091B2012081FC0120838091A5
:10328000B1019091B20101969093B2018093B10186
:103290008C5F914011F081E0089585EB91E090936F
:1032A000B2018093B10181E0089580E008951F92FA
:1032B0000F920FB60F9211242F933F938F939F93EA
:1032C000EF93FF938091B3019091B4012091B101EC
:1032D0003091B201821B930B97FD24C08634910577
:1032E000F4F4E091B301F091B4018091C6008083C1
:1032F0008091B3019091B40101969093B4018093B1
:10330000B3018C5F914089F0FF91EF919F918F9174
:103310003F912F910F900FBE0F901F9018958091A5
:10332000C600F2CF895B9F4FD9CF85EB91E0909398
:10333000B4018093B301E8CF80E00895A82FB92F9E
:1033400080E090E041E050EA609530E009C02D91C6
:1033500082279795879510F084279527305EC8F3CC
:103360006F5FA8F30895EADF8D939D930895CF933F
:10337000CFB7CF93DF93C3954C9BE9F74C9B11C01C
:103380004C9B0FC04C9B0DC04C9B0BC04C9B09C071
:103390004C9B07C04C9B05C04C9B03C04C9B01C081
:1033A00081C06F93C0911002DD27C95EDD4F2F935E
:1033B00020E400C065E04C9B03C02F916F91DECFED
:1033C0000F931F934F9345E55F9355E53F933BE084
:1033D00014E009B104712EC06A95C9F03150D8F1DA
:1033E00009B1047101130BC008942795299320E4B7
:1033F000555500F46A9569F701E069B10BC0102FCB
:1034000066E02695299320E4555518F3E2CF0FEF97
:1034100069B10000162F455500F0404066E0147178
:103420000030E2F221F0000009B1047103C009B1DB
:103430000471A9F0011309C00894279568F200C02F
:103440006A95A9F700E069B1E5CF102F66E02695EF
:1034500028F20000ECCF11E01CBB002717C03B5046
:103460003195C31BD04011E01CBB0881033CF9F02F
:103470000B34E9F020910E021981110F1213EDCFD8
:10348000093651F10D3211F0013E39F70093150262
:103490003F915F914F911F910F912F916F91CCB3FD
:1034A000C0FD69CFDF91CF91CFBFCF91189520910B
:1034B0001502222369F310911302112329F53430E8
:1034C0002AF13093130220930F02109110023BE077
:1034D000311B309310021AC0009113020130A4F482
:1034E0000AE53091040134FD12C000930401C3E0E9
:1034F000D2E011C0052710E000C00BB919C00527A4
:1035000010E0221F00C01DC04AE502C032ED432F6B
:10351000C4E1D0E032E01AB114615C9A0BB11AB97F
:1035200054E120E869E420FF05270BB9279517959A
:1035300000C000001C3FF0F66695A8F7A1F720FF39
:1035400005270BB92795179500001C3FC0F6299158
:103550003A9541F70B7E10911402110F0BB9C65129
:10356000D04011F010930E0211E01CBB00611AB1A3
:103570001B7E402F4B7E55E05A95F1F70BB91AB9D7
:103580004BB986CF1F93CF93DF9380911302835063
:1035900087FD09C02091100290910F029D3209F41D
:1035A00042C0109213028091040184FF2EC06091EA
:1035B00005016F3F51F1693008F462C068506093B3
:1035C00005018091030298E88927809303021CE09B
:1035D00068E0E0911102F09112028091FC0186FFF7
:1035E00062C0862FA4E0B2E094919D933196815001
:1035F000D9F7F0931202E093110284E092E0B3DE77
:103600001C3009F04CC01093040194E189B184711D
:1036100031F49150D9F71092140210920E02DF91FA
:10362000CF911F910895883009F0BBCFCCE0D0E056
:10363000C21BD109C95EDD4F83EC809303028AE58A
:10364000809304011092FC0188818076B1F59A8103
:1036500010920C028981811136C010920D022CE06B
:1036600032E082E030931202209311029F81911187
:1036700004C09E81981708F4892F8093050191CF8B
:10368000109205018091030298E889278093030234
:10369000611116C060E084E092E065DE14E08FEF17
:1036A00080930501B0CFDF01862FC4E0D2E09D9169
:1036B0009993FD018150D9F79CCFCE013DDED6CF45
:1036C000162F1C5F86CF853061F08630E1F08830A0
:1036D00071F0893091F02CE032E08A3061F080E0C6
:1036E000C1CF909314022CE032E080E0BBCF26E102
:1036F00032E081E0B7CF81E0B5CF909316022CE0A5
:1037000032E080E0AFCF8B81813049F08230C9F068
:10371000833069F080E090E49093FC01A7CF82ECC5
:1037200097E1909312028093110282E1F4CF9111FC
:1037300010C08AE098E1909312028093110284E015
:10374000EACF80EB97E1909312028093110282E11D
:10375000E2CF913051F09230E9F684ED97E1909309
:1037600012028093110286E1D6CF8AEE97E1909300
:1037700012028093110280E2CECFE9E6F0E0808170
:1037800082608083E89A089582E08093B00095E09B
:103790009093B100809370008CE98093B3000895FA
:1037A0000F931F938FB7F8940091FD011091FE01C4
:1037B0002091FF01309100028FBFB801C9011F9114
:1037C0000F9108950F93CF93E62FF42FC22F282F38
:1037D00030E040E050E0261B310941095109A02F9B
:1037E000B0E0AC1BB10965D32F2F30E02E1B31099F
:1037F000442737FD4095542F89D38C2F820FCF91CA
:103800000F910895EF92FF920F931F93CF93DF9341
:103810007B01FA01E9019C01442737FD4095542FB3
:10382000CB01AA2797FDA095BA2F281B390B4A0B6D
:103830005B0B0C1B1D0BD8013CD3EE19FF099F013C
:10384000442737FD4095542F61D32C0F3D1FC901EC
:10385000CDB7DEB7E6E09DC3EF92FF920F931F93C3
:1038600062177307840795073CF09701A801621758
:103870007307840795073CF0B901CA011F910F91A6
:10388000FF90EF9008959B01AC01B901CA011F910F
:103890000F91FF90EF9008951F920F920FB60F9225
:1038A00011248F939F93AF93BF938091FD019091CB
:1038B000FE01A091FF01B09100020196A11DB11D72
:1038C0008093FD019093FE01A093FF01B09300024D
:1038D000BF91AF919F918F910F900FBE0F901F904E
:1038E0001895A8EDB0E0E6E7FCE133C355985D9884
:1038F00080E890E00FB6F8948093610090936100A7
:103900000FBE80BF809164008068809364008091C6
:10391000640081608093640080916400886080937B
:10392000640083B7817F83BF14B817B81AB88FEFCC
:1039300085B988B98BB981E084BD83E085BD569A8D
:103940005C985A9821DF71DC62DC0CDB88EE93E036
:1039500024EF31E0F9013197F1F70197D9F7559A42
:103960005D9A0BDF78941A8219821C821B821E8258
:103970001D8218861F821A8619861C861B861E8643
:103980001D861F8688E0E6E1F1E0DE015096019099
:103990000D928A95E1F7FE01789688E0DF011D928D
:1039A0008A95E9F787E1E6E2F1E0DE01AE53BF4F29
:1039B00001900D928A95E1F7FE01B196CE018F53E9
:1039C0009F4F2FEFDF0111972C9320833496E81738
:1039D000F907C1F78FEFF9DB88E6B0DB80E079DA31
:1039E00011E00FEF86E4A82E9AE0B92E07C0CE01B1
:1039F000019684DACE0101960E94260CC3DD4B9B12
:103A00001CC0C0909D01D0909E01E0909F01F0905D
:103A1000A001C114D104E104F10449F38091A10192
:103A2000882399F110929D0110929E0110929F019E
:103A30001092A0011092A101DACFC0909D01D09008
:103A40009E01E0909F01F090A001C114D104E10417
:103A5000F10459F1A5DE6C197D096132734038F229
:103A6000809100018F3F59F18A3081F1009300016C
:103A70008FEFABDB10929D0110929E0110929F017F
:103A80001092A0011093A101B2CF8ADE6C197D09BA
:103A90006333710538F28091A2018F5F823098F014
:103AA0001092A20180E015DABDCF7ADE60939D010D
:103AB00070939E0180939F019093A00198CFB09244
:103AC00000018AE0D6CF8093A201EDCFA092000141
:103AD00086E4CFCF5058BB27AA270ED04DC13ED188
:103AE00030F043D120F031F49F3F11F41EF433C184
:103AF0000EF4E095E7FB29C1E92F4FD180F3BA1707
:103B0000620773078407950718F071F49EF567C183
:103B10000EF4E0950B2EBA2FA02D0B01B9019001E8
:103B20000C01CA01A0011124FF27591B99F0593F2C
:103B300050F4503E68F11A16F040A22F232F342F74
:103B40004427585FF3CF469537952795A795F040C2
:103B50005395C9F77EF41F16BA0B620B730B840BD7
:103B6000BAF09150A1F0FF0FBB1F661F771F881F8F
:103B7000C2F70EC0BA0F621F731F841F48F48795E7
:103B800077956795B795F7959E3F08F0B3CF9395D6
:103B9000880F08F09927EE0F9795879508950CD018
:103BA000EBC0E3D040F0DAD030F021F45F3F19F001
:103BB000CCC0511115C1CFC0F0D098F39923C9F3EF
:103BC0005523B1F3951B550BBB27AA276217730723
:103BD000840738F09F5F5F4F220F331F441FAA1FD7
:103BE000A9F333D00E2E3AF0E0E830D09150504097
:103BF000E695001CCAF729D0FE2F27D0660F771F45
:103C0000881FBB1F261737074807AB07B0E809F026
:103C1000BB0B802DBF01FF2793585F4F2AF09E3FBB
:103C2000510568F092C0DCC05F3FECF3983EDCF3D6
:103C3000869577956795B795F7959F5FC9F7880F34
:103C4000911D9695879597F90895E1E0660F771F86
:103C5000881FBB1F621773078407BA0720F0621B17
:103C6000730B840BBA0BEE1F88F7E095089504D010
:103C70006894B111B5C0089598D088F09F5790F01E
:103C8000B92F9927B751A0F0D1F0660F771F881F81
:103C9000991F1AF0BA95C9F712C0B13081F09FD0C0
:103CA000B1E008959CC0672F782F8827B85F39F05E
:103CB000B93FCCF3869577956795B395D9F73EF4E0
:103CC00090958095709561957F4F8F4F9F4F089588
:103CD000E89409C097FB3EF49095809570956195A6
:103CE0007F4F8F4F9F4F9923A9F0F92F96E9BB275C
:103CF0009395F695879577956795B795F111F8CFD8
:103D0000FAF4BB0F11F460FF1BC06F5F7F4F8F4F42
:103D10009F4F16C0882311F096E911C0772321F038
:103D20009EE8872F762F05C0662371F096E8862FD0
:103D300070E060E02AF09A95660F771F881FDAF727
:103D4000880F9695879597F9089597F99F6780E86A
:103D500070E060E008959FEF80EC089500240A94DD
:103D60001616170618060906089500240A94121656
:103D70001306140605060895092E0394000C11F489
:103D8000882352F0BB0F40F4BF2B11F460FF04C036
:103D90006F5F7F4F8F4F9F4F089557FD9058440F8F
:103DA000551F59F05F3F71F04795880F97FB991F9A
:103DB00061F09F3F79F08795089512161306140657
:103DC000551FF2CF4695F1DF08C0161617061806E4
:103DD000991FF1CF86957105610508940895E894BF
:103DE000BB2766277727CB0197F908950BD0C4CF5F
:103DF000B5DF28F0BADF18F0952309F0A6CFABCFD6
:103E00001124EECFCADFA0F3959FD1F3950F50E0B8
:103E1000551F629FF001729FBB27F00DB11D639F7C
:103E2000AA27F00DB11DAA1F649F6627B00DA11D22
:103E3000661F829F2227B00DA11D621F739FB00DC8
:103E4000A11D621F839FA00D611D221F749F332738
:103E5000A00D611D231F849F600D211D822F762FD1
:103E60006A2F11249F5750408AF0E1F088234AF0CE
:103E7000EE0FFF1FBB1F661F771F881F915050401A
:103E8000A9F79E3F510570F060CFAACF5F3FECF3DA
:103E9000983EDCF3869577956795B795F795E79506
:103EA0009F5FC1F7FE2B880F911D9695879597F917
:103EB0000895B7FF83C082D0821B930B0895AA1B7D
:103EC000BB1B51E107C0AA1FBB1FA617B70710F005
:103ED000A61BB70B881F991F5A95A9F78095909537
:103EE000BC01CD01089597FB072E16F4009406D06F
:103EF00077FD08D0E4DF07FC05D03EF4909581956E
:103F00009F4F0895709561957F4F0895052E97FBFB
:103F100016F4009406D057FD0CD05AD007FC09D0F7
:103F20007EF490958095709561957F4F8F4F9F4F50
:103F3000089550954095309521953F4F4F4F5F4FD5
:103F400008952F923F924F925F926F927F928F923D
:103F50009F92AF92BF92CF92DF92EF92FF920F9318
:103F60001F93CF93DF93CDB7DEB7CA1BDB0B0FB622
:103F7000F894DEBF0FBECDBF09942A8839884888DF
:103F80005F846E847D848C849B84AA84B984C88475
:103F9000DF80EE80FD800C811B81AA81B981CE0F6C
:103FA000D11D0FB6F894DEBF0FBECDBFED01089551
:103FB000EE0FFF1F0590F491E02D09942BD0A59FE3
:103FC000900DB49F900DA49F800D911D1124089514
:103FD000A1E21A2EAA1BBB1BFD010DC0AA1FBB1F0D
:103FE000EE1FFF1FA217B307E407F50720F0A21B7F
:103FF000B30BE40BF50B661F771F881F991F1A94EC
:1040000069F760957095809590959B01AC01BD0115
:10401000CF010895A29FB001B39FC001A39F01D01B
:10402000B29F700D811D1124911D0895FC018827F8
:104030009927E89421912032E9F3293010F02E30AD
:10404000C8F32B3239F02D3231F4689403C05DD0BF
:10405000820F911D219120532A30C8F31EF49095B0
:1040600081959F4F089541E052E01EC0FB01DC01A5
:104070002150304030F001900D920416C9F7CD0167
:104080000895882799270895DC0101C06D93415058
:104090005040E0F70895FB01DC018D9101908019FB
:1040A0000110D9F3990B0895FA01A191B0810097FD
:1040B00019F41097E1F0CD01DC01CD010D90002045
:1040C00011F4C00113C0FB012191222319F0201526
:1040D000D9F7F3CFFB012191201519F41E92119607
:1040E00006C02223C1F70D900020A1F7D001FA01EC
:1040F000A193B0830895BB274A3031F4992322F469
:10410000BDE2909581959F4F09C07AE0979F902DD1
:10411000879F802D910D11240895BB27FB01552702
:10412000AA27880F991FAA1FA41710F0A41B839514
:104130005051B9F7A05DAA3308F0A95DA19300978B
:1041400079F7B111B1931192CB0100C0DC01FC01F0
:10415000672F71917723E1F7329704C07C916D93BB
:1041600070836291AE17BF07C8F30895F894FFCF2C
:10417000FFFFFF015AFF302E302E302E300000009E
:10418000000000000000302E302E302E30000000E5
:10419000000000000000536174203031204A616E3D
:1041A0002030300030303A30303A3030007C00245B
:1041B000004B427073004B6270730025006D7300FA
:0441C0004B4200006E
:00000001FF
