:107000006BC000009EC0000082C0000080C0000075
:107010007EC000007CC000007AC0000078C0000084
:1070200076C0000074C0000072C0000070C0000094
:107030006EC000006CC000006AC0000068C00000A4
:1070400066C0000064C0000062C0000060C00000B4
:107050005EC000005CC000005AC0000058C00000C4
:1070600056C0000054C00000EC2DFD2DB7B6B0FC9A
:10707000FDCF27BFE895B7B6B0FCFDCF21E1B7B68D
:10708000B6FCF4CF089509021200010100806409E2
:10709000040000000000000012011001FF000008C1
:1070A000C016DC050201010200010E035500530069
:1070B00042006100730070001C03770077007700C6
:1070C0002E00660069007300630068006C002E00EB
:1070D000640065000403090411241FBECFEFD8E04B
:1070E000DEBFCDBF11E0A0E0B1E0EEE6F8E702C000
:1070F00005900D92A830B107D9F711E0A8E0B1E0F2
:1071000001C01D92AE33B107E1F77FD1AEC378CF96
:10711000A82FB92F80E090E041E050EA609530E080
:1071200009C02D9182279795879510F08427952780
:10713000305EC8F36F5FA8F30895EADF8D939D93E7
:107140000895CF93CFB7CF93DF93C3954C9BE9F7C7
:107150004C9B11C04C9B0FC04C9B0DC04C9B0BC05B
:107160004C9B09C04C9B07C04C9B05C04C9B03C06B
:107170004C9B01C081C06F93C0912101DD27C85D88
:10718000DE4F2F9320E400C065E04C9B03C02F919D
:107190006F91DECF0F931F934F9345E55F9355E5B6
:1071A0003F933BE014E009B104712EC06A95C9F029
:1071B0003150D8F109B1047101130BC0089427951F
:1071C000299320E4555500F46A9569F701E069B107
:1071D0000BC0102F66E02695299320E4555518F32F
:1071E000E2CF0FEF69B10000162F455500F0404087
:1071F00066E014710030E2F221F0000009B1047180
:1072000003C009B10471A9F0011309C008942795BE
:1072100068F200C06A95A9F700E069B1E5CF102FC8
:1072200066E0269528F20000ECCF11E01CBB002799
:1072300017C03B503195C31BD04011E01CBB0881E7
:10724000033CF9F00B34E9F020911F011981110F73
:107250001213EDCF093651F10D3211F0013E39F71D
:10726000009326013F915F914F911F910F912F91B4
:107270006F91CCB3C0FD69CFDF91CF91CFBFCF91DC
:10728000189520912601222369F3109124011123DE
:1072900029F534302AF130932401209320011091F4
:1072A00021013BE0311B309321011AC000912401E0
:1072B0000130A4F40AE53091010134FD12C00093BD
:1072C0000101C4E1D1E011C0052710E000C00BB9F5
:1072D00019C0052710E0221F00C01DC04AE502C0EA
:1072E00032ED432FC4E1D0E032E01AB114615C9A70
:1072F0000BB11AB954E120E869E420FF05270BB966
:107300002795179500C000001C3FF0F66695A8F77A
:10731000A1F720FF05270BB92795179500001C3F03
:10732000C0F629913A9541F70B7E10912501110F76
:107330000BB9C651D04011F010931F0111E01CBBD6
:1073400000611AB11B7E402F4B7E55E05A95F1F734
:107350000BB91AB94BB986CFFC013381932F448105
:10736000842F2281203339F44370E42FF0E0ED5F65
:10737000FE4F80810895283529F431110EC0E1E0D7
:10738000F0E006C02035A1F431110CC0E0E0F0E0DF
:1073900089E080935700849108953830F1F4E3E058
:1073A000F0E0F6CF383009F018C0E2E0F0E0F0CFBE
:1073B000203221F4FC01EE0FFF1F06C0283231F409
:1073C000FC01EE0FFF1F319684910895203A09F4D5
:1073D00036C2203C21F465813AD280E008952C3AEF
:1073E000E1F73038D1F7E0E0F0E007B600FCFDCF80
:1073F000F89483E080935700E8957894E058FF4F25
:10740000E11580E7F80789F7E8CF539A5B9817B83A
:1074100082E088B9E7E8F3E13197F1F700C00000B6
:1074200014BE91E095BF85BF319B0FC0F89455986D
:107430005D9818B81DBA1092690081E085BF15BE2D
:10744000E0911201F0911301099584B7877F84BF01
:1074500088E10FB6F89480936000109260000FBE30
:1074600080916900826080936900E89A55985D98E0
:10747000FFE72EED8FE0F15020408040E1F700C0A3
:107480000000559A5D9A789400912401035007FDFD
:107490003BC180912101CCE0D0E0C81BD109C85D7F
:1074A000DE4F809120018D3209F0B7C0083009F01D
:1074B00029C183EC809314018AE580930101109225
:1074C00008018881807629818823B9F189E091E0DB
:1074D0009093230180932201233031F4CE013CDFCD
:1074E00080930C0124E08FC0253019F12A3009F176
:1074F000822F8450863098F48A819B8190930E016C
:1075000080930D012930B9F08E8180930F018D8118
:10751000827080931001209311012FEF6DC0809134
:107520000001223011F48E7F01C081608093000140
:1075300002C021E068C020E066C08A8110921D016F
:10754000211106C010921E018DE191E022E04EC093
:10755000253019F4809325013DC02630A9F59B8183
:10756000913019F488E990E704C0923041F486E83C
:1075700090E7909323018093220122E121C0933070
:10758000F1F4811108C084ED90E79093230180937A
:10759000220124E015C0813041F488EB90E79093FC
:1075A0002301809322012CE10BC0823041F48AEA4E
:1075B00090E790932301809322012EE001C020E008
:1075C00080E48093080116C0283069F0293029F43E
:1075D000809327018DE191E004C08DE191E02A3094
:1075E00021F020E003C087E291E021E090932301A5
:1075F000809322012F3F39F4888187FD2E8180E816
:107600008093080107C08F81811104C08E81821789
:1076100008F4282F2093020175C08091080187FF8C
:1076200071C080910F01801708F4082F801B809390
:107630000F01FF24F3948111F12C10E05DC0209123
:10764000110180910D0190910E01273058F0699140
:107650009C012F5F3F4F30930E0120930D01F7D017
:107660001F5F4AC08115904708F04AC01E5FF8941A
:10767000E0910D01F0910E018991999121E00C01A9
:1076800020935700E8951124789480910D019091F2
:107690000E01029690930E0180930D018F7799272A
:1076A000892B41F0FF2041F1101730F1809110013A
:1076B000882311F1F894E0910D01F0910E013297B9
:1076C00083E080935700E895789407B600FCFDCFDF
:1076D000F894E0910D01F0910E01329785E08093CE
:1076E0005700E895789407B600FCFDCFF89481E147
:1076F00080935700E8957894101708F4A0CFF11004
:1077000010920201109224018091010184FF73C044
:10771000809102018F3F09F46EC0F82E893010F07D
:1077200028E0F22E8F19809302018091140198E8CD
:10773000892780931401FF2009F44BC08091080130
:1077400087FF28C080910F018F1508F4F82E8F193C
:1077500080930F01E0901101C5E1D1E014C00091C8
:107760000D0110910E01F6E0FE1518F4C80167D066
:1077700002C0F8018491888321960F5F1F4F1093F8
:107780000E0100930D0185E191E0FC2FF81BFF1520
:1077900030F31CC0E0912201F0912301A5E1B1E09A
:1077A00086FF09C084918D93319685E191E08F0D1C
:1077B0008A13F8CF07C081918D9385E191E08F0DF9
:1077C0008A13F9CFF0932301E093220128E02F15CB
:1077D00060F06F2D85E191E0B0DC8F2D8C5F8C30F7
:1077E00041F09FEF9093020104C08FEF809302015C
:1077F0008EE18093010184E199B1947131F481505B
:10780000D9F71092250110921F018091000180315B
:1078100030F0319B0FC080910001805109C0319937
:1078200009C080910001823028F0809100018250CF
:107830008093000180910001811126CEF7CDF99946
:10784000FECF92BD81BDF89A992780B50895262F65
:10785000F999FECF1FBA92BD81BD20BD0FB6F89435
:0E786000FA9AF99A0FBE01960895F894FFCF98
:08786E00FE5AFF1E950F0000F9
:040000030000700089
:00000001FF
