:107000006BC000009EC0000082C0000080C0000075
:107010007EC000007CC000007AC0000078C0000084
:1070200076C0000074C0000072C0000070C0000094
:107030006EC000006CC000006AC0000068C00000A4
:1070400066C0000064C0000062C0000060C00000B4
:107050005EC000005CC000005AC0000058C00000C4
:1070600056C0000054C00000EC2DFD2DB7B6B0FC9A
:10707000FDCF27BFE895B7B6B0FCFDCF21E1B7B68D
:10708000B6FCF4CF089509021200010100806409E2
:10709000040000000000000012011001FF000008C1
:1070A000C016DC050201010200010E035500530069
:1070B00042006100730070001C03770077007700C6
:1070C0002E00660069007300630068006C002E00EB
:1070D000640065000403090411241FBECFEFD8E04B
:1070E000DEBFCDBF11E0A0E0B1E0E0E1F9E702C012
:1070F00005900D92A830B107D9F711E0A8E0B1E0F2
:1071000001C01D92AE33B107E1F798D1FFC378CF2C
:10711000A82FB92F80E090E041E050EA609530E080
:1071200009C02D9182279795879510F08427952780
:10713000305EC8F36F5FA8F30895EADF8D939D93E7
:107140000895CF93CFB7CF93DF93C3954C9BE9F7C7
:107150004C9B11C04C9B0FC04C9B0DC04C9B0BC05B
:107160004C9B09C04C9B07C04C9B05C04C9B03C06B
:107170004C9B01C081C06F93C0912101DD27C85D88
:10718000DE4F2F9320E400C065E04C9B03C02F919D
:107190006F91DECF0F931F934F9345E55F9355E5B6
:1071A0003F933BE014E009B104712EC06A95C9F029
:1071B0003150D8F109B1047101130BC0089427951F
:1071C000299320E4555500F46A9569F701E069B107
:1071D0000BC0102F66E02695299320E4555518F32F
:1071E000E2CF0FEF69B10000162F455500F0404087
:1071F00066E014710030E2F221F0000009B1047180
:1072000003C009B10471A9F0011309C008942795BE
:1072100068F200C06A95A9F700E069B1E5CF102FC8
:1072200066E0269528F20000ECCF11E01CBB002799
:1072300017C03B503195C31BD04011E01CBB0881E7
:10724000033CF9F00B34E9F020911F011981110F73
:107250001213EDCF093651F10D3211F0013E39F71D
:10726000009326013F915F914F911F910F912F91B4
:107270006F91CCB3C0FD69CFDF91CF91CFBFCF91DC
:10728000189520912601222369F3109124011123DE
:1072900029F534302AF130932401209320011091F4
:1072A00021013BE0311B309321011AC000912401E0
:1072B0000130A4F40AE53091010134FD12C00093BD
:1072C0000101C4E1D1E011C0052710E000C00BB9F5
:1072D00019C0052710E0221F00C01DC04AE502C0EA
:1072E00032ED432FC4E1D0E032E01AB114615C9A70
:1072F0000BB11AB954E120E869E420FF05270BB966
:107300002795179500C000001C3FF0F66695A8F77A
:10731000A1F720FF05270BB92795179500001C3F03
:10732000C0F629913A9541F70B7E10912501110F76
:107330000BB9C651D04011F010931F0111E01CBBD6
:1073400000611AB11B7E402F4B7E55E05A95F1F734
:107350000BB91AB94BB986CFFC013381932F448105
:10736000842F2281203339F44370E42FF0E0ED5F65
:10737000FE4F80810895283549F4311112C0E1E0B3
:10738000F0E089E08093570084910895203599F4C6
:10739000311113C0E0E0F0E089E080935700849160
:1073A0000895383009F042C0E3E0F0E089E08093CE
:1073B000570084910895203551F4383009F038C0D1
:1073C000E2E0F0E089E08093570084910895203254
:1073D00029F4FC01EE0FFF1F84910895283231F447
:1073E000FC01EE0FFF1F319684910895203A09F4B5
:1073F00077C2203C21F465817BD280E008952C3A4D
:10740000C9F43038C9F4E0E0F0E007B600FCFDCF85
:10741000F89483E080935700E8957894E058FF4F04
:10742000E11580E7F80789F780E0089580E0089586
:1074300080E0089580E0089580E00895539A5B9875
:1074400017B882E088B9E7E8F3E13197F1F700C0B7
:10745000000014BE91E095BF85BF319927C284B763
:10746000877F84BF88E10FB6F89480936000109204
:1074700060000FBE319BFECFFFE72AE186E0F150AE
:1074800020408040E1F700C00000E9E6F0E08081A4
:1074900082608083E89A55985D989FE7EEEDFFE063
:1074A0009150E040F040E1F700C00000559A5D9A2D
:1074B00078940091240103500AF45CC18091210169
:1074C000CCE0D0E0C81BD109C85DDE4F809120011F
:1074D0008D3209F0D0C0083009F04AC183EC8093A6
:1074E00014018AE580930101109208018881807659
:1074F00009F440C089E091E0909323018093220138
:107500002981233031F4CE0127DF80930C0124E060
:107510009EC0253049F12A3049F1822F84508630AF
:1075200098F48A819B8190930E0180930D012930FC
:10753000F9F08E8180930F018D818270809310010C
:10754000209311012FEF83C0223039F48091000184
:107550008E7F8093000120E07AC0809100018160DD
:107560008093000120E073C021E071C021E06FC072
:1075700020E06DC09A8110921D018981811106C0A1
:1075800010921E018DE191E022E05DC0853031F462
:10759000909325018DE191E020E055C08630E1F522
:1075A0008B81813041F488E990E7909323018093A7
:1075B000220122E12DC0823041F486E890E79093C9
:1075C00023018093220122E123C08330F1F4911141
:1075D00008C084ED90E7909323018093220124E07A
:1075E00017C0913041F488EB90E79093230180938A
:1075F00022012CE10DC0923051F48AEA90E7909379
:107600002301809322012EE003C020E001C020E08E
:1076100080E4809308011BC0883071F0893031F418
:10762000909327018DE191E020E00DC08A3041F078
:107630008DE191E020E007C087E291E021E003C006
:107640008DE191E021E090932301809322012F3F6F
:1076500041F4888188230CF42E8180E8809308010E
:1076600007C08F81811104C08E81821708F4282FF2
:10767000209302017DC08091080188230CF078C01E
:1076800080910F01801708F4082F801B80930F0151
:10769000FF24F3948111F12C002309F466C010E05B
:1076A00080911101873078F0699180910D0190915E
:1076B0000E019C012F5F3F4F30930E0120930D016F
:1076C00017D11F5F4FC080910D0190910E01811560
:1076D000904708F04BC01E5FF894E0910D01F091C7
:1076E0000E018991999121E00C0120935700E895B2
:1076F0001124789480910D0190910E01029690933F
:107700000E0180930D018F779927892B49F0FF2077
:1077100049F1101708F4C4CF80911001882331F18A
:10772000F894E0910D01F0910E01329783E080937F
:107730005700E895789407B600FCFDCFF894E091E7
:107740000D01F0910E01329785E080935700E89586
:10775000789407B600FCFDCFF89481E18093570040
:10776000E8957894101708F49BCFF110109202015D
:10777000109224018091010184FFA7C08091020131
:107780008F3F09F4A2C0182F893008F018E0811B40
:1077900080930201E4E1F1E0908188E88927808309
:1077A000112309F497C08091080188236CF580911A
:1077B0000F01811708F4182F811B80930F0100918E
:1077C0001101C5E1D1E019C0073038F080910D01F9
:1077D00090910E0185D0888306C0E0910D01F09153
:1077E0000E01E491E883219680910D0190910E01A4
:1077F000019690930E0180930D0185E191E0EC2FAD
:10780000E81BE11708F31AC0E0912201F09123016F
:1078100086FF09C0812FA5E1B1E094919D93319637
:107820008150D9F707C0812FA5E1B1E091919D93D7
:107830008150E1F7F0932301E0932201193058F4CD
:10784000612F85E191E079DC1C5F1C3040F48FEF03
:107850008093020104C08FEF809302011EE1109318
:10786000010133C099B1947131F48150D9F710926C
:10787000250110921F0180910001803140F0319B61
:1078800011C0809100018051809300010BC031999B
:1078900009C080910001823028F08091000182505F
:1078A0008093000180910001811103CEF8945598D6
:1078B0005D9818B81DBA1092690081E085BF15BEA9
:1078C000E0911201F0911301099589B1847199F643
:1078D00083E1C8CF612F85E191E02FDC1C5FB7CF3A
:1078E000F999FECF92BD81BDF89A992780B5089588
:1078F000262FF999FECF1FBA92BD81BD20BD0FB6CC
:10790000F894FA9AF99A0FBE01960895F894FFCF69
:08791000FE5AFF1E950F000056
:040000030000700089
:00000001FF
