:100000000C94120C0C94501B0C942F0C0C942F0C71
:100010000C942F0C0C942F0C0C942F0C0C94A419F2
:100020000C942F0C0C942F0C0C942F0C0C942F0C64
:100030000C942F0C0C942F0C0C942F0C0C942F0C54
:100040000C942F0C0C942F0C0C945E190C942F0C08
:100050000C942F0C0C942F0C0C942F0C0C942F0C34
:100060000C942F0C0C942F0C4917A216A216A21652
:10007000A216B617A216A216A216A216A216A216AB
:10008000A216A216AC17A216A216A216A216A216A5
:10009000A216A216A216A216A216A216A217A2169F
:1000A000A216A216A216A216A216A2169E17A21693
:1000B000A216A216A216A216A216A216A21692178F
:1000C000A216A216A216A216A216A216A216A21670
:1000D000A216A216A216A216A216A216A216A21660
:1000E000A216A216A216A216A216A2169617A2165B
:1000F000A216A216A216A216A216A216A21692174F
:10010000A2168E17A216A2168A17A216A2169A1760
:10011000256868752E256868752E256868752E25F2
:10012000686875002530326868753A25303268682D
:10013000753A253032686875000000000000000044
:100140000000000000000000000000010308102073
:100150000F000000000000000000010409111C2B2A
:100160003B4D5F707E84868A5001070D1622314117
:1001700053667682868888888684807E7C7A787AC0
:100180004847848688868482807C7A787676747202
:100190007270706E6E6C647240437272706E6C6CD2
:1001A0006A6A6868666464626260605E5C4E928ED1
:1001B000323D82545C5C5A5A5856565654545252E8
:1001C0005050504846BCE4502D26ACA43846464614
:1001D000444444424242404040403054F6C6302CF1
:1001E000291C16B6C22A303636343434343434340A
:1001F000301E8EFF8A1E262423140C16B2EC2E22EB
:100200002C2C2C2C2C2C2C202AE2FF541A241E1AC5
:10021000231A061814A0FF4E2432323232321E62E4
:10022000FFEC261C201C181420210816221288FF1F
:10023000803246463E30C4FF9C142222201C1816F1
:100240001C2B101C242A0C84FFC64C526AFFFF4C46
:100250001628262422201C1A1D251E282C245C9ECC
:1002600076FFFFBAFFFFAA6E242E2C2A2826222210
:100270001E2A2E342C7CAE3A1A46FFFFB81C3ABE1A
:10028000AA2E3234302E2A2A2B3B3A3E8A882A2C38
:10029000342C48682C423E36A6CE46383C3834349E
:1002A0002E3D4E7A5C262C3032383A3C484A4C4A35
:1002B0003A86D6603E444042282D64422A2C2A2C9D
:1002C000323A424A50545656544668CA76464C52C0
:1002D000211F48362E28282E38424C565E62626412
:1002E000625E5456A484525E1F3A563A2C2A303C21
:1002F0004A56606A70747674726C686058847E685E
:100300001F1B8C76625C6470787C8082868688860F
:10031000827E76726C6272801900000B274B78A087
:10032000C2D0CEC0B4ACA49E968E867E78746E7613
:100330001900000000000000001636608CB7CFD90D
:10034000D2C4B6A89A8E8282170000000000000076
:10035000000000000000041D44719FC6DAE0D0CE0A
:100360001F0000000000000000000000000000006E
:100370000000000015345D890D000000000002033C
:10038000060A287AD6FFFFFFFFFFFFFFFFFFFFFFF0
:10039000FFFFFFFFFFFFFFFFFFFFFFFFFFFFFFFF6D
:1003A000FFFFFFFFFFFFFFFFFFFFFFFFFFFFFFFF5D
:1003B000FFFFFFFFFFFFFFFFFFFFFFFFFFFFFFFF4D
:1003C000FFFFFFFF0F000000000002040726DDFF13
:1003D000FCB3B6BABDBFC1C3C5C6C7C7C8C8C8C8C5
:1003E000C8C8C8C8C8C8C8C8C8C8C8C8C8C8C8C88D
:1003F000C8C8C8C8C8C8C8C8C8C7C7C6C5C4C2C096
:10040000BEBBB8B5B2AFADABA9A8A7A6A6FFFFFF0C
:100410007B0000000000020523DDFFCF312D3843B3
:100420004C555C63686C6F71717171717171717130
:1004300071717171717171717171717171717171AC
:10044000717171717171706D6A655F5850473D329D
:10045000281F17100B06030115D2FFD2150000004C
:1004600000000320DFFFCE2D2934414D58626B720E
:10047000787D808283838383838383838383838361
:10048000838383838383838383838383838383833C
:100490008383817E7A756E665D5246392E231B13E7
:1004A0000C070416D2FFD2150000000000001EDF6A
:1004B000FFCD27242F3C4A5864707982888E91940E
:1004C00095959595959595959595959595959595DC
:1004D0009595959595959595959595959594938FD5
:1004E0008B857D74695D504134281E150E0819D224
:1004F000FFD2150000000000001BDEFFCC221C27ED
:1005000033404F6264687995959595959595959545
:10051000959595959595959595959595959595958B
:1005200095959595959595959595958B8B857D6AE2
:1005300065615B46382C21170F1DD3FFD2150000D3
:10054000000000001EDEFFCA1B141D273341505857
:10055000686876848B9595959595959595959595DF
:10056000959595959595959595959595959595953B
:10057000959595959595958B8B857D6565655D477D
:10058000392C211723D4FFD2150000000000001ED3
:10059000DEFFCA160C131B25303D4B5A67727C8454
:1005A0008B919497989898989898989898989898E4
:1005B00098989898989898989898989898989898BB
:1005C000989796928E8780766B5F514335291F29C5
:1005D000D4FFD3160000000000001EDEFFC9120683
:1005E0000B1118212B36434F5B656E757B8083851D
:1005F000868686868686868686868686868686869B
:100600008686868686868686868686868686848191
:100610007D7871685F54483B2F242ED5FFD3190194
:1006200000000000001EDEFFC90A0205090E151CAD
:10063000252F3A454F585F666B6F727474747474EB
:10064000747474747474747474747474747474746A
:100650007474747474747474747473706D68625B9D
:1006600052493E332932D6FFD41B0301000000005B
:100670000072FFFFD8CC8687898B8E9094989CA1BE
:10068000A5A8ACAEB1B2B3B4B4B4B4B4B4B4B4B459
:10069000B4B4B4B4B4B4B4B4B4B4B4B4B4B4B4B41A
:1006A000B4B4B4B4B4B4B3B2B1AFADAAA6A39E9A75
:1006B000D3EAFFD41D06030000000000000099FFEC
:1006C000FFFFFFFFFFFFFFFFFFFFFFFFFFFFFFFF3A
:1006D000FFFFFFFFFFFFFFFFFFFFFFFFFFFFFFFF2A
:1006E000FFFFFFFFFFFFFFFFFFFFFFFFFFFFFFFF1A
:1006F000FFFFFFFFFFFFFFFFFFFFFFFFFFFF702078
:1007000008050200000000000000000000000000DA
:100710000000000000000000000000000000739BCB
:1007200090987E3800001DE1FFFFFFEF320000745B
:10073000FFFFFFFFB501000CD2FFFFFFFF590000D4
:100740005CFFFFFFFFD9110005C1FFFFFFFF850020
:100750000030E9FFFFFFEF320000187BAFB9AB7943
:100760000000000000000000000000000000000089
:100770000000000000001A532D0000B5FF99000092
:10078000597F3000000000000000000000001A53F4
:100790002D0000B5FF990000597F300000000000D7
:1007A0000000000000000000000000000000000049
:1007B000001A532D00B5FF9900597F30000042A95F
:1007C000D9F0E5C38C0D22FFFFEAD9DFFFFF8D7959
:1007D000FF7800000044FFAAB7FF0B0000002DFFC8
:1007E00081E8E3000000006FFF52F2ED3C23233B61
:1007F000E8FF1BB4FFFFFFFFFFFF9B000053828653
:1008000086824C000000000080F2F23200000010EE
:10081000ADFFE2F90800000043DD30E3DE00000038
:1008200000010010FFAF0000000000004DFF7B0042
:1008300000000000007CFF4D000000000000D3FF1E
:1008400028000000000000657904000000000D840D
:10085000CED3D5C5700007DEFFD6C6C1E6FF7C3714
:10086000F57A0000000CFFB8001F3C56898ABFFFD4
:100870007135DCFFFFFFFFEC7203DDFF6F341919E8
:100880000F0000FFFFFCFFFFFFFFEC04747B898972
:1008900089898960000031A3D8D6D6CE921726FF69
:1008A000FFB39E9FCCFFB92C8F3C00000034FFC4E7
:1008B00000000090FFFFFFCD21000000488080E194
:1008C000DF06A09711000000BCFF22E0FFFFFFFF42
:1008D000FFFFBA0001578889898961030000000081
:1008E00000007DF2F24900000041DFFFF4FF290023
:1008F0000697FFED4CC4FF0547D6F5630000F9C627
:1009000000F2FFC072849BFFDE52EDF2FFFFFFFF9B
:10091000FFFF840D0D0D0D0DA3FF5F000000000013
:100920000048790A0006A9C4D6D4D3D7E46127FFCA
:10093000D77D868A7877374DFFD899ABB17317008A
:1009400084FFE6CFD0D5FFFF15062300000000AAE4
:10095000FF41795200060611DDFF1FFFFFFFFFFF79
:10096000FFFFA6001376898989875000000038A907
:10097000F2F2F2ECA72017FDFF9D8A89BEFF8B5C87
:10098000FF830C16162C421F80FFFDFEFFFFFF9514
:1009900000AFFC693D3F3EC8FF2FE8F200000000B9
:1009A000AEFF23BCFFFFF0F0FFFFB5010F73A5B34F
:1009B000B59E63000033CFD1CFD0CBB2B59E4DD51D
:1009C000CCCDC5B8FFFF9800000000006EFF9D0071
:1009D0000000000077FFAA00000000007BFFB100CC
:1009E0000000000076FFBD000000000D9BFFC0006E
:1009F0000000000018897E0000000000000058E19F
:100A0000F2F2F2F2C12E33FFD64F323571FFD44EDF
:100A1000FF8900000019FFBA00CCFFD6B1D3FFC692
:100A2000187BE55C42524AD5E113F2FF0500000055
:100A3000C7FF33CAFFFFFFFFFFFFBA010F6F8689B1
:100A40008987550000003EA4E7F2F2D58A0C22FF08
:100A5000FFC4BBB7DCFF8962FF630000001AFF9E82
:100A600067FFCA888993C0FF6C0089F8FFFFEEE733
:100A7000FF465C4100000000BCFF16E0FFD1AAA8C1
:100A8000DEFF9A001379B3BFC0AE640000006BBBF9
:100A9000CFD0D0D2B34500D7FFBCB9B9B7FFFF085C
:100AA000FFDB05030214ECF02AFFFFF4F7F9FFFF68
:100AB0006B54FF8F383F4278FFA680FF4000000054
:100AC00012FFCAD9FFFFFFFFFFFFFF5C6479858932
:100AD0008989844500009EF226000045E6E000DD9D
:100AE000ED0010B3FFC12608FEE782E0F85C0000CD
:100AF0002BFEFFFFFF1300000050FF855AFFBD0AC9
:100B000000007FFF390066FFD70B00E6FF1F0000E3
:100B10005BFFFD3B66790000000049905200000039
:100B2000000000000000081E232C140B2E240039A6
:100B3000948DB27752B3A42E89F99FC8F3CEB4F145
:100B4000D1C0E52B2DFF802F9AF9FBB40031FF2790
:100B500000C4F8DE6F0076DA0800E7B174270047BA
:100B600079000079440023451C46582E000000B34C
:100B7000FFE7FCFFFF940000ECF43C1710D5FF1AD0
:100B800015FFC2000000C3FF143DFFFFA290AAFFA3
:100B9000DD0062FFBDFFFFFFCD2E00A2FF23020D8F
:100BA0000D000000C4F1080000000000000000007B
:100BB0000000000000000000000000000000000035
:100BC00068C5C8CDC57F050058FFB67685CAE61F43
:100BD0000073FFE6D7D2AB5903002A7F737691FFEB
:100BE000D40000B4E99A93B5FFAA0000298B9D9E1A
:100BF000966609000000000000000000000029AB1C
:100C0000AF7F03530E0000B89951CC9794000000B9
:100C1000F00A00AFC574848A429FB5B2BAA3B68AFF
:100C20007BDF00170A76B9AD000AD800001EA33298
:100C3000C5A3D4730000222C000D2D200000BDFFA1
:100C400012000000000000F4DC0000000000001AA8
:100C5000FFE3C7E4DDA11A0040FFF2A19EC1FF9DA2
:100C60000068FF58000000FFBF0095FF790D0D736D
:100C7000FF9400EFFFFFFFFFFFF229007D66559014
:100C8000908621000000000000557777AABBBBBB0F
:100C9000AA777755110000000033DDFFFFFFFFFF4B
:100CA000FFFFFFFFFFFFEE33000011EEFFFFFFFF2E
:100CB000FFFFFFFFFFFFFFFFFFEE000077FFFFFFDB
:100CC000FFCCBBBBBBBBBBDDFFFFFFFF3300CCFFDB
:100CD000FFEE3300000000000000AAFFFFFF4411F8
:100CE000FFFFFF88000000000000000044FFFFFF3E
:100CF0003344FFFFFF44000000000000000077FFC6
:100D0000FFFF0077FFFFFF00000000000000000071
:100D100088FFFFDD0099FFFFDD00000000000000FC
:100D20000000BBFFFFBB00BBFFFFBB0000000000DB
:100D300000000000FFFFFF7700EEFFFFBB00000098
:100D4000000000000066FFFFFF5500EEFFFFFF8878
:100D500044444444444488EEFFFFFF1100AAFFFFCF
:100D6000FFFFFFFFFFFFFFFFFFFFFFFF99000044B2
:100D7000EEFFFFFFFFFFFFFFFFFFFFFFFFDD1100A3
:100D800000002288BBFFFFFFFFFFFFFFEEBB7711D4
:100D90000000000000000000000000000000000053
:100DA00000000000000000000000000055FFFFFFF1
:100DB000FF77000000000000000000000077FFFF48
:100DC000FFFFFF330000000000000000000088FF6C
:100DD000FFFFFFFFFF11000000000000000000AA5D
:100DE000FFFFAA99FFFFDD000000000000000000E7
:100DF000AAFFFF8800CCFFFFAA000000000000004F
:100E0000000022DD770000EEFFFF880000000000F8
:100E1000000000000000000033FFFFFF660000003C
:100E20000000000000000000000055FFFFFF33003D
:100E300000000000000000000000000077FFFFFF3E
:100E40000000000000000000000000000000AAFFF9
:100E5000FFCC0000000000000000000000000000C7
:100E6000CCFFFFAA0000000000000000000000000E
:100E70000000FFFFFF7700000000000000000000FE
:100E800000000033FFFFFF550000000000000000DD
:100E9000000000000055FFFFFF33000000000000CD
:100EA0000000000000000088FFFFFF0000000000BD
:100EB0000000000000000000000000000000000032
:100EC00000000000000000000000227777777777AD
:100ED0007777771100000000000055DDFFFFFFFF6E
:100EE000FFFFFFFFFFFFBB2200000055FFFFFFFFDA
:100EF000FFFFFFFFFFFFFFFFFFBB000000EEFFFF54
:100F0000FF99777777777777EEFFFFFF220055FF1E
:100F1000FFFF550000000000000044FFFFFF4400F9
:100F200088FFFFEE000000000000000033FFFFFF1D
:100F30003300000000000000000000000022BBFFA2
:100F4000FFFF1100000033777777AAFFFFFFFFFF55
:100F5000FFFFFFBB000022BBFFFFFFFFFFFFFFFF04
:100F6000FFFFFFFFCC220011DDFFFFFFFFFFFFFFB0
:100F7000FFFFFFFF886600000077FFFFFFAA77777B
:100F80000000000000000000000000BBFFFFBB00ED
:100F900000000000000000000000000000EEFFFF65
:100FA000FFFFFFFFFFFFFFFFFFFFFFFFEE0000FF60
:100FB000FFFFFFFFFFFFFFFFFFFFFFFFFFFFAA0095
:100FC00000FFFFFFFFFFFFFFFFFFFFFFFFFFFFFF30
:100FD000770000000000000000000000000000009A
:100FE0000000000000000000002266777777777726
:100FF00077777755110000000011BBFFFFFFFFFF5F
:10100000FFFFFFFFFFFFFF66000000CCFFFFFFFFB9
:10101000FFFFFFFFFFFFFFFFFFFF220055FFFFFF66
:10102000BB77444444444477BBFFFFFF770077FF1E
:10103000FFCC000000000000000044FFFFFF77002D
:1010400011000000000000000000000077FFFFFF1B
:101050004400000000000000EEFFFFFFFFFFFFFF65
:10106000FF990000000000000011FFFFFFFFFFFFDD
:10107000FFEE55000000000000000044FFFFFFFFEE
:10108000FFFFFFFFDD000000000000000000000087
:1010900000000077FFFFFF330033444433000000BB
:1010A000000000000044FFFFFF4400BBFFFFCC1125
:1010B0000000000000000099FFFFFF1100BBFFFFD0
:1010C000FFFFFFFFFFFFFFFFFFFFFFFFCC0000550B
:1010D000FFFFFFFFFFFFFFFFFFFFFFFFFFFF4400DA
:1010E00000002288CCFFFFFFFFFFFFFFFFDD9933E9
:1010F00000000000000000000000000000000000F0
:1011000000000000000000000000000000000000DF
:1011100044DDFFFFFFAA0000000000000000000007
:1011200011AAFFFFFFFFFF77000000000000000092
:101130000055EEFFFFFFFFFFFF550000000000001D
:101140000022BBFFFFFFFFEEFFFFFF3300000000A8
:10115000000066FFFFFFFFEE5577FFFFFF00000076
:10116000000033BBFFFFFFFF88000099FFFFCC00AA
:1011700000000077FFFFFFFFBB33000000CCFFFF44
:10118000AA000044CCFFFFFFEE550000000000EE77
:10119000FFFF770000FFFFFFFF8800000000000056
:1011A00033FFFFFF550000FFFFFFFFFFFFFFFFFFC3
:1011B000FFFFFFFFFFFFFFFF33FFFFFFFFFFFFFF0B
:1011C000FFFFFFFFFFFFFFFFFFFF00FFFFFFFFFF2E
:1011D000FFFFFFFFFFFFFFFFFFFFFFCC000000004E
:1011E0000000000000000000CCFFFFAA000000008B
:1011F00000000000000000000011FFFFFF7700006A
:10120000000000000000000000000033FFFFFF5559
:1012100000000000000000000000000000000000CE
:10122000000000000000007777777777777777778F
:10123000777777777777110000FFFFFFFFFFFFFFDA
:10124000FFFFFFFFFFFFFFEE000033FFFFFFFFFF89
:10125000FFFFFFFFFFFFFFFFFFAA000055FFFFFF9B
:10126000330000000000000000000000000077FFD5
:10127000FFFF3377777777777777000000000000FC
:10128000AAFFFFFFFFFFFFFFFFFFFFFFFFDD3300B0
:101290000000DDFFFFFFFFFFFFFFFFFFFFFFFFFF7E
:1012A000DD000011FFFFFFEE77777777777777FF25
:1012B000FFFFFF3300227777773300000000000044
:1012C0000066FFFFFF660000000000000000000055
:1012D00000000044FFFFFF66000000000000000067
:1012E000000000000077FFFFFF4400EEFFFFCC008E
:1012F00000000000000033DDFFFFFF1100DDFFFFF5
:10130000FFFFFFFFFFFFFFFFFFFFFFFFBB000077B7
:10131000FFFFFFFFFFFFFFFFFFFFFFFFFFDD2200DB
:10132000000066CCFFFFFFFFFFFFFFFFFFCC770051
:1013300000000000000000000000000000000000AD
:101340000000000000000000003377AABBBBBBBB5D
:10135000BBBBAA77330000000022CCFFFFFFFFFFDA
:10136000FFFFFFFFFFFFFF66000000CCFFFFFFFF56
:10137000FFFFFFFFFFFFFFFFFFEE000055FFFFFF36
:10138000BB77444444444466BBFFFFFF000099FF21
:10139000FFEE1100000000000000447777660000B7
:1013A000BBFFFFBB114444444444444433000000A9
:1013B0000000FFFFFFCCFFFFFFFFFFFFFFFFFFDD90
:1013C00033000022FFFFFFFFFFFFFFFFFFFFFFFFD4
:1013D000FFFFEE110044FFFFFFEE88777777777706
:1013E00077DDFFFFFF440077FFFFFF2200000000D2
:1013F00000000022FFFFFF440077FFFFBB0000005A
:10140000000000000022FFFFFF4400BBFFFFDD11D2
:101410000000000000001199FFFFFF220088FFFF7D
:10142000FFFFDDBBBBBBBBDDFFFFFFFFDD000044FB
:10143000FFFFFFFFFFFFFFFFFFFFFFFFFFEE330098
:10144000000055CCFFFFFFFFFFFFFFFFFFEE9922DB
:1014500000000000000000334444444444441100B0
:10146000000000000000337777777777777777771A
:10147000777777777777660077FFFFFFFFFFFFFFCC
:10148000FFFFFFFFFFFFFFFF8800AAFFFFFFFFFF37
:10149000FFFFFFFFFFFFFFFFFFFF77007777777703
:1014A00077777777777777EEFFFFFFBB0000000055
:1014B000000000000000000077FFFFFFBB000000FD
:1014C00000000000000000000077FFFFFFBB0000ED
:1014D0000000000000000000000077FFFFFFCC11BB
:1014E000000000000000000000000077FFFFFFCCBC
:1014F00011000000000000000000000077FFFFFF67
:10150000CC11000000000000000000000066FFFF9A
:10151000FFCC11000000000000000000000066FF8A
:10152000FFFFDD2200000000000000000000006658
:10153000FFFFFFDD220000000000000000000000AF
:1015400066FFFFFFDD220000000000000000000039
:101550000044FFFFFFDD220000000000000000004B
:10156000000066FFFFFFEE330000000000000000F7
:10157000000000000000000000000000000000006B
:1015800000000000000000003377EEFFFFFFFFFFC8
:10159000FFFFFFBB770000000066FFFFFFFFFFFFBC
:1015A000FFFFFFFFFFFFFFCC000022FFFFFFFFDD7B
:1015B0007777777777BBFFFFFFFF550077FFFFFF58
:1015C000550000000000000044FFFFFF770099FF76
:1015D000FFEE000000000000000022FFFFFF770088
:1015E00088FFFFFF220000000000000077FFFFFFE0
:1015F000330022EEFFFFFFDD77777777BBFFFFFF3A
:10160000FF7700000044EEFFFFFFFFFFFFFFFFFF3B
:10161000FFEE2200000099FFFFDD7777777777777D
:1016200077DDFFFFDD110066FFFFFF2200000000F5
:1016300000000055FFFFFF5500BBFFFFDD0000006D
:10164000000000000044FFFFFF6600DDFFFFFF44D5
:1016500000000000000033CCFFFFFF3300AAFFFFB3
:10166000FFFFFFFFFFFFFFFFFFFFFFFFDD00006643
:10167000FFFFFFFFFFFFFFFFFFFFFFFFFFFF440034
:10168000000055BBFFFFFFFFFFFFFFFFFFDD7711EE
:10169000000000000000000000000000000000004A
:1016A000000000000000000000337777BBBBBBBB2D
:1016B000BB997755110000000033CCFFFFFFFFFFFF
:1016C000FFFFFFFFFFFFEE33000011DDFFFFFFFF15
:1016D000FFFFFFFFFFFFFFFFFFDD000066FFFFFFD3
:1016E000DD77777777777777DDFFFFFF220099FF48
:1016F000FFDD110000000000000055FFFFFF330078
:10170000BBFFFFBB000000000000000066FFFFFF02
:101710000000BBFFFFEE2200000000000022CCFF13
:10172000FFFF0000BBFFFFFFFFFFFFFFFFFFFFFF0B
:10173000FFFFFFBB000055FFFFFFFFFFFFFFFFFFA5
:10174000FFFFFFFFFF990000004499BBFFFFFFFF71
:10175000FFDDBB55FFFFFF77000000000000000029
:10176000000000000044FFFFFF440088BBBB88006E
:1017700000000000000000AAFFFFEE0000AAFFFF2B
:10178000FF99775544445577BBFFFFFF99000055FB
:10179000FFFFFFFFFFFFFFFFFFFFFFFFFFCC110079
:1017A000000055CCFFFFFFFFFFFFFFFFFFFF991178
:1017B000000000000000004444444444444433001A
:1017C0000000000000090212000101008064090409
:1017D0000000000000000012011001FF000008C01E
:1017E00016DC0500020102000116034E00650074BC
:1017F000004D006F006E00690074006F00720020E1
:10180000037A0061006B006B0065006D0062006C84
:101810000065002E0063006F002E0075006B000451
:101820000309040011241FBECFEFD8E0DEBFCDBFF7
:1018300011E0A0E0B1E0E8EFF4E402C005900D9201
:10184000A831B107D9F711E0A8E1B1E001C01D92BC
:10185000A039B107E1F70E94B11C0C947A220C94D4
:101860000000F89455985D9828E088E190E00FB664
:10187000F894A895809360000FBE20936000FFCF7E
:101880001F93CF93DF93162FC0E3D1E0688170E000
:10189000665E7E4F412F50E00E94AB1F8881810F12
:1018A0008883DF91CF911F910895389A5B98539A5E
:1018B00088EE93E024EF31E0F9013197F1F70197D9
:1018C000D9F75398089586B182FB882780F9089547
:1018D000A9E2B0E0EEE6FCE00C94421F1C010E947D
:1018E0009B197C0180911801909119019701281B87
:1018F000390BC9018139914008F055C154E1852E59
:10190000912C8C0E9D1E91012C593F4F3FA32EA36D
:10191000C10188599F4F9E8B8D8BF101E759FF4F75
:10192000F88FEF8B910126593F4F3A8F298FC101D4
:101930008B599F4F9C8F8B8FF101EA59FF4FFE8F80
:10194000ED8F5101F7E6AF0EB11C91012D593F4FBC
:1019500038A32F8F11C0F0921901E09218018091E5
:101960003001E82FF0E0E65EFE4F9C8990838F5FA8
:1019700080933001863148F4C4010E9441198111DD
:10198000EACFA996E2E10C945E1F1092300162E06A
:10199000CE01039675DF62E0CE01019671DF62E051
:1019A000CE0107966DDF62E0CE01059669DF62E049
:1019B000CE010D9665DF61E0CE010F9661DF64E038
:1019C000CE0140965DDF61E08EA19FA159DF61E00D
:1019D0008D899E8955DF61E08F89988D51DF61E0A7
:1019E000898D9A8D4DDF61E08B8D9C8D49DF61E0A3
:1019F0008D8D9E8D45DF61E0C50142DF6B817C816D
:101A0000603187E2780730F08FE097E29C838B8328
:101A10006FE077E209811A81003197E2190730F00F
:101A20008FE097E29A8389830FE017E28F81988590
:101A3000883E934020F087EE93E098878F838D81D6
:101A40009E81883E934020F087EE93E09E838D83B5
:101A50002D853E85283E83E0380730F087EE93E001
:101A60009E878D8727EE33E04F85443618F083E656
:101A70008F8743E6ED89FE898081883110F087E108
:101A80008083EF89F88D80818C3310F08BE3808325
:101A9000E98DFA8D80818C3310F08BE38083EB8DA0
:101AA000FC8D8081803210F08FE18083ED8DFE8D82
:101AB00080818C3008F074C0F5018081843610F08C
:101AC00083E6808389819A81AB81BC81F101808327
:101AD0009183A283B3838D819E81AF81B8858483F6
:101AE0009583A683B7833587248746878889998914
:101AF000AA89BB898787908BA18BB28B80E090E00D
:101B00000E94FD1D2AE939E949ED5DE30E948B1E23
:101B10000E94D11D2B013C0179A768A7B80180E084
:101B200090E00E94FD1D2AE939E949ED5DE30E943C
:101B30008B1E0E94D11D6B01F10171876087538656
:101B40004286EF8DF8A1F081F9A32F2F30E03BA35F
:101B50002AA3220F331F3DA32CA3C901439642E0C1
:101B600050E060E070E0820D931D0E94B41F88A5D4
:101B700099A5892B09F03FC0C114D10419F589A199
:101B80008F5F883208F080E0EF8DF8A1808346E116
:101B900050E060E070E08AE191E00E94B41FECCE7A
:101BA0008BE0808389CF1092190110921801109256
:101BB000300146E150E060E070E08AE191E00E948F
:101BC000B41F9CCEA60160E070E08D819E810E94D2
:101BD000A51C0FEF10E020E030E0A60160E070E00F
:101BE0000E947B1CEAA1FBA13A96EE0FFF1FE20DBB
:101BF000F31D8083C4CFA20160E070E08F819885DF
:101C00000E94A51C0FEF10E020E030E0A20160E090
:101C100070E00E947B1CECA1FDA1E20DF31D838B03
:101C2000ABCF419A0895CF93DF93319B18C01092A8
:101C30003401C0913101D0913201209719F4DF9124
:101C4000CF91089580913301882391F11092320150
:101C50001092310110923301DF91CF910895C0911C
:101C60003101D0913201209799F10E949B198C1B70
:101C70009D0B8935924018F3809100018F3F99F1B7
:101C80008A3069F18FEF80930001809134018F5F7A
:101C900080933401823070F1E4DD8091000173D1D2
:101CA000109232011092310181E080933301C7CF4D
:101CB0000E949B198C1B9D0BC39740F280913501AC
:101CC0008F5F8230A0F01092350180E0BCD1BECF92
:101CD0000E949B199093320180933101B0CF86E42A
:101CE00080930001DCCF8AE080930001D8CF8093FD
:101CF0003501ECCF8FEFD3CF29982A988EBD0DB444
:101D000007FEFDCF2A9A0895299A2A988EBD0DB410
:101D100007FEFDCF2A9A089581E084BD83E085BD4A
:101D2000569A579A229A219A5F9A29982A9A80EB72
:101D300094E024EF31E0F9013197F1F70197D9F7F9
:101D40005F9880E593EC0197F1F75F9A80EB94E060
:101D500024EF31E0F9013197F1F70197D9F781E0EC
:101D6000CBDF8CED95E024EF31E0F9013197F1F70D
:101D70000197D9F781E1C0DF88EE93E024EF31E0ED
:101D8000F9013197F1F70197D9F781EBB5DF81E0E0
:101D9000BBDF8CE2B9DF8DE2B7DF82EBADDF81E044
:101DA000B3DF8CE2B1DF8DE2AFDF83EBA5DF81E053
:101DB000ABDF8CE2A9DF8DE2A7DF81E0A5DF8CE25B
:101DC000A3DF8DE2A1DF84EB97DF87E09DDF80EC6E
:101DD00093DF82EA99DF82E097DF84E895DF81EC88
:101DE0008BDF85EC91DF82EC87DF8AE08DDF80E09E
:101DF0008BDF83EC81DF8AE887DF8AE285DF84EC92
:101E00007BDF8AE881DF8EEE7FDF85EC75DF8EE099
:101E10007BDF80E271DF86E36FDF80E675DF8AE3D8
:101E20006BDF85E071DF8AE267DF80E06DDF80E0F5
:101E30006BDF80E069DF8FE767DF8BE25DDF80E0EB
:101E400063DF80E061DF80E05FDF8FE95DDF80EEF0
:101E500053DF8FE059DF8AE157DF8FE055DF88E1FC
:101E600053DF8FE251DF88E24FDF80E24DDF82E215
:101E70004BDF8FE149DF8BE147DF83E245DF87E31B
:101E800043DF80E041DF87E03FDF82E03DDF80E14C
:101E90003BDF81EE31DF8FE037DF8BE135DF8FE035
:101EA00033DF87E131DF83E32FDF8CE22DDF89E24F
:101EB0002BDF8EE229DF80E327DF80E325DF89E364
:101EC00023DF8FE321DF80E01FDF87E01DDF83E07A
:101ED0001BDF80E119DF89E20FDF88EE93E024EF5A
:101EE00031E0F9013197F1F70197D9F783E104DF88
:101EF00080E593EC0197F1F70895CF93C82F86E31F
:101F0000FBDE8C2F01DFCF910895A3E0B0E0EBE87A
:101F1000FFE00C94511F182F8AE22B8349836A83B8
:101F2000EBDE80E0F1DE812FEFDE80E0EDDE498147
:101F3000842FEADE8BE2E0DE80E0E6DE6A81862F37
:101F4000E3DE80E0E1DE2B81822FDEDE8CE2D4DE78
:101F50002396E3E00C946D1F2FE74FE960E080E0EB
:101F6000D4DF299A2A9890E880EA1EBC0DB407FEB7
:101F7000FDCF1EBC0DB407FEFDCF8150B1F79150CF
:101F800099F72A9A0895982F91509E3F60F094B542
:101F90009F7794BD811111C05E988091640080622A
:101FA000809364000895909164009F7D90936400F5
:101FB00094B5906894BD87BD08955E9A8091640041
:101FC0008062809364000895A2E0B0E0EAEEFFE052
:101FD0000C94521F0E94C11880E90E94EF188823B8
:101FE00031F180E00E94EF18882309F10E94C118A6
:101FF00081E90E94EF188823D1F061E0CE010196BB
:102000000E940619882399F060E0CE0102960E9492
:102010000619882361F00E94CE188981880F9A8161
:1020200097FD0CC02296E2E00C946E1F0CC00E943B
:10203000EC188981880F9A8197FFF4CF8F5F2296E1
:10204000E2E00C946E1F90910101891741F1809399
:102050000101813039F1C0F48FE193E190933701B0
:102060008093360188E594E190933901809338019B
:1020700073DFE0913601F0913701309709F009954F
:1020800081E080933A0108958F3F91F710923701D4
:10209000109236011092390110923801E9CF8F3F2A
:1020A00071F0089584E196E19093370180933601B1
:1020B00084E496E19093390180933801D9CF8093DD
:1020C00001011092370110923601109239011092DD
:1020D0003801CECF81E080933B010895CF93DF9309
:1020E000EC0180913B0181111DC080913A01FE01FC
:1020F000ED59FF4F882381F0808180930201109277
:102100003A01E0913801F0913901309711F0CE0198
:102110000995DF91CF9108958081909102018913F3
:10212000ECCFF7CF8FEF8FDF2FE74FE960E080E054
:10213000ECDE10923B01D9CFCF93DF93882309F4D3
:1021400065C080910301813009F473C080E48093FD
:10215000590110925A0110925B018FE180935C014A
:1021600010925D0110925E0181E08093030120E8EE
:102170004EE968E687E8C9DE299A2A9880E090E06F
:10218000FC01E75CFE4FE491E11113C020E030E078
:102190003EBD0DB407FEFDCF2EBD0DB407FEFDCF35
:1021A0000196803422E0920759F72A9ADF91CF9165
:1021B0000895EF3F21F120915901E29F90011124F0
:1021C000232F330F330B259540915A01E49FA00133
:1021D0001124352F40915B01E49FF0011124EF2F72
:1021E000FF0FFF0BE595CE2FD22FDD0FDD0FDD0F9B
:1021F00040E2349F900111242C2B3D2BC9CF20911C
:102200005C0130915D01E0915E01EDCF80910301B1
:10221000882361F21092590110925A0110925B01C9
:1022200010925C0110925D0110925E011092030108
:102230009ECF80E48093590180E280935A011092EE
:102240005B019FE190935C0180935D0110925E01C0
:1022500082E0809303018BCFA0E0B0E0E2E3F1E104
:102260000C94451F7C01C62ECA9487E28C1510F48D
:10227000B7E2CB2E80E041DE00E010E0E0E2BE2ECF
:10228000F0E47F2EAFE18A2E87E2CC2D8C1508F486
:10229000C85DD0E0CC0FDD1FCE0DDF1DAA24A394B6
:1022A000D12CC801880F991F0E96982E990C692C75
:1022B0006394D11019C010925901B0925A017092D2
:1022C0005B0110925C01B0925D0180925E015880CA
:1022D00020EA462D6CE5892D18DE652D84E495D61F
:1022E000D394A394DD2039F370925901B0925A012E
:1022F00010925B0180925C01B0925D0110925E01D0
:10230000598098012D0D311D200F311F225F3F4F45
:10231000822F880F482F4F5F20EA6CE5F6DD652D90
:1023200084E473D682E0A812DBCF0F5F1F4FCA94FC
:102330000931110509F0A8CF80E6DFDDCDB7DEB7A2
:10234000EFE00C94611FA0EEB1E0E9EAF1E10C943A
:10235000421FB62E3E0127E3621A2EEF720A27EEC5
:10236000F301208398EB918397E19283238326E9FD
:10237000248395839CEE96839FE7978395E19087CE
:102380009DEE91879EE5928791E1938790EF9487E8
:102390009EE395879EE096879FEF9787108A118A24
:1023A000282F245F4DE4682F82E0AFDD299A2A9818
:1023B0002FEF3FEF212C312CC8018201C252DE4F9A
:1023C000B882CE5DD1402C01F7E1F093590140E293
:1023D00040935A01F0935B018BE080935C01409342
:1023E0005D0180935E01F901EC51FF4FC452DE4F55
:1023F000F983E883CC5DD140D301CF0108C040E030
:1024000050E05E934E9301978217930769F1FC01A8
:10241000E758FC4FE491EE2391F3EF3F09F4DDC060
:10242000F7E1EF9FB0011124672F770F770B6595C8
:10243000762F770F770F770FF0E2EF9FA00111242F
:10244000452F550F550B440F551F42955295507F00
:102450005427407F54278B01462B572B5E934E9376
:1024600001978217930799F6C252DE4F2881CE5DFD
:10247000D140C552DE4F2883CB5DD140C152DE4FE3
:1024800019830883CF5DD140C552DE4F2881CB5DD3
:10249000D1402150C552DE4F2883CB5DD1402F3F24
:1024A00009F4A3C0C552DE4F4881CB5DD140842FD3
:1024B00090E0FC01EE0FFF1FE80FF91FE60DF71D7E
:1024C0000281F180E080E0E4EE9EC00111246FEF14
:1024D00070E00E94141F6B0160935901F0E4FF9EAD
:1024E000C00111246FEF70E00E94141F5B01609324
:1024F0005A0120E4029FC00111246FEF70E00E9496
:10250000141F4B0160935B01E694E694E694E0921D
:102510005C01F694F694F0925D0106950695069599
:1025200000935E0189E0489FB0011124665F7F4FF0
:1025300020E030E018E0812F90E0FC01E20FF31F73
:10254000E20DF31DE75FF84FE491EE23D1F1EF3F89
:1025500009F448C0F0E0CE9EA001CF9E500DDE9E53
:10256000500D1124452F550F550B4595AE9ED001AA
:10257000AF9EB00DBE9EB00D11245B2F8E9ED0017C
:102580008F9EB00D9E9EB00D1124AB2FBB0FBB0BC9
:10259000A5954A2E542E550C550C550CE0E25E9F25
:1025A000A001112444295529FC01E60FF71FEE0F65
:1025B000FF1F81E090E08C0F9D1FE80FF91F5183F2
:1025C0004083115008F0B7CF275F3F4F645B7F4FC8
:1025D0002B31310509F0AECF57CF40E054E078E51C
:1025E0006BE039CFA02FA701D4CFC152DE4F0881B5
:1025F0001981CF5DD140FE01319680819181329663
:102600009EBD0DB407FEFDCF8EBD0DB407FEFDCF00
:10261000E615F70591F74BE1240E311CC452DE4F4D
:1026200028813981CC5DD1408CE62816310409F02F
:10263000CBCE2A9AC052DE4FE2E10C945E1FEF929D
:10264000FF920F931F93CF93DF9389E080935F01F5
:1026500088E08093600188E490E090936201809329
:1026600061018DEB97E0909365018093640180E3B5
:10267000809363011092590187E380935A019AE095
:1026800090935B0110925C0180935D01C5E0C09363
:102690005E0120E046E051E062E08FE231D320E0CD
:1026A00046E051E062E38FE22BD320E04BE051E0C3
:1026B00060E68AE425D320E04DE051E060E68DE15C
:1026C0001FD3C09359018EE280935A0199E39093EE
:1026D0005B0192E090935C0180935D018CE18093BB
:1026E0005E0120E040E151E06CE08AE309D320E0A4
:1026F00045E151E064E18AE303D320E040E151E0A9
:102700006CE38AE3FDD220E045E151E064E48AE332
:10271000F7D21092590180E280935A0190E490938D
:102720005B0110925C0180935D018FE180935E01FB
:1027300025E64BE560E08BE5E8DB299A2A98C1E0C5
:10274000D0E080E090E09EBD0DB407FEFDCF8EBDD1
:102750000DB407FEFDCFC536D10509F449C0BE0151
:10276000882777FD8095982F0E94FF1D20E030E09C
:102770004AEC52E40E94691D20E030E04FE753E448
:102780000E948B1E0E94D11D611104C080E090E068
:102790002196D9CF6F3F29F180915901689FC001DF
:1027A0001124892F990F990B859520915A01629FC9
:1027B00090011124932F20915B01629FB00111249D
:1027C000672F770F770B6595062F182F110F110FB5
:1027D000110F20E2929FC0011124802B912B219692
:1027E000B2CF80915C0190915D0160915E01ECCF70
:1027F0002A9A26E64EE965E68BE587DB299A2A9830
:10280000C4E4D0E0BE01882777FD8095982F0E9410
:10281000FF1D20E030E048E852E40E94691D20E0FE
:1028200030E04FE753E40E948B1E0E94D11D6111DE
:1028300012C080E090E09EBD0DB407FEFDCF8EBDBE
:102840000DB407FEFDCF2197E9F62A9ACDB7DEB782
:10285000E6E00C946A1F6F3F21F180915901689F57
:10286000C0011124892F990F990B859540915A0128
:10287000649FA0011124952F20915B01629F90011C
:102880001124232F330F330B2595E22EF82EFF0C46
:10289000FF0CFF0C20E2929FC00111248E299F297A
:1028A000CACF80915C0190915D0120915E01EDCFD6
:1028B000A0E1B0E0EEE5F4E10C94421F8C01FC01D4
:1028C000ED59FF4F60814396C7DC89E0EFE5F1E009
:1028D000808388E0E0E6F1E0808388E490E0E1E650
:1028E000F1E0918380838DEB97E0E4E6F1E0918362
:1028F000808380E3282EE3E6F1E0208299E5692ECB
:1029000091E0792EF30110822AE5822E21E0922EA9
:1029100087E3F40180833BE5A32E31E0B32E9AE0F8
:10292000F50190834CE5C42E41E0D42EF6011082CF
:102930005DE5452E51E0552EF201808365E0362E8F
:10294000EEE5F1E03082F8014281538124E062E05B
:1029500082E01BD3F8014081518124E062E382E0F0
:1029600014D3F801468522E050E060E688E30DD3F9
:10297000F80187859089218932891F923F931F92A0
:102980002F931F929F931F928F9380E191E09F93CB
:102990008F93EE24E394F12CEC0EFD1EFF92EF9248
:1029A0000E94DE1F2FE0A70166E782E0A9D1F801AF
:1029B0004485558523E060E682E0E7D280E4F301B8
:1029C000808380E2F4018083F50110829FE1F601AB
:1029D0009083F2018083EEE5F1E01082F801E65980
:1029E000FF4F80811F928F93F801E759FF4F80813D
:1029F0001F928F93F801E859FF4F80811F928F93A8
:102A000084E291E09F938F93FF92EF920E94DE1FEA
:102A100028E0A7016CE682E073D182E1EFE5F1E006
:102A2000808380E1E0E6F1E0808380E291E0E1E60E
:102A3000F1E09183808385E89CE0E4E6F1E0918316
:102A40008083E3E6F1E02082F30130828EE2F4013C
:102A5000808399E3F501908392E0F6019083F2017F
:102A600080838CE1EEE5F1E08083F80146815781B7
:102A700023E06CE082E089D2F8014481558123E0B3
:102A80006CE382E082D2F801EC59FF4F808154DB85
:102A9000F8016681778180E090E00E94FD1D6B0166
:102AA0007C01F801628573856F5F7F4F80E090E065
:102AB0000E94FD1D9B01AC01C701B6010E94691D6A
:102AC00020E030E040EC50E40E948B1E20E030E03B
:102AD00040E05FE39AD70E94D11DDC01CB0146E0C4
:102AE00050E060E070E031D7682F8DE12CDCF80118
:102AF0006481758180E090E00E94FD1D6B017C0186
:102B0000F801608571856F5F7F4F80E090E00E94E3
:102B1000FD1D9B01AC01C701B601DBD720E030E011
:102B200040EC50E40E948B1E20E030E040E05FE388
:102B30006CD70E94D11DDC01CB0146E050E060E083
:102B400070E003D7682F8DE4FEDB0FB6F894DEBF8C
:102B50000FBECDBF6096E2E10C945E1FA0E0B0E036
:102B6000E4EBF5E10C94461F862E8A9427E22815A3
:102B700010F467E2862E27E2922E98188C010F5FE0
:102B80001F4FB12C30E2C32E40E4642E5FE1752E5E
:102B9000C92DC8528B1408F0C92DD0E0CC0FDD1F11
:102BA000AA24A394D12C780181E0E81AF108CE017F
:102BB0008D0D911D880F482F4F5F26E760E0A5D946
:102BC000D11013C010925901C0925A0160925B015A
:102BD00010925C01C0925D0170925E01F70160810C
:102BE00086E713D2D394A394E2CF60925901C092A6
:102BF0005A0110925B0170925C01C0925D011092CB
:102C00005E01F801608186E700D2F2E0AF12EACF00
:102C1000B39493940E5F1F4F27E2B212B9CFCDB792
:102C2000DEB7EEE00C94621F89E080935F0188E0DC
:102C30008093600188E490E0909362018093610149
:102C40008DEB97E0909365018093640180E380931E
:102C500063011092590187E380935A019AE090939F
:102C60005B0110925C0180935D0185E080935E01C1
:102C700020E043E151E068E78DE142D020E043E10C
:102C800051E068E785E63CC0CF93DF93EC01FC019F
:102C9000ED59FF4F6081439661DF89E080935F01CA
:102CA00088E08093600188E490E0909362018093D3
:102CB00061018DEB97E0909365018093640180E35F
:102CC000809363011092590187E380935A019AE03F
:102CD00090935B0110925C0180935D0185E080938D
:102CE0005E014E815F8123E068E782E04ED14C8136
:102CF0005D8123E068E78AE448D1DF91CF910895B0
:102D0000A1E0B0E0E6E8F6E10C94461FD82EB62E1E
:102D1000A22EFA013081332309F4FAC08A01C12CB2
:102D200020916001C394E0906401F090650190915E
:102D30005F01FDEBEF16F7E0FF0609F4DEC030326D
:102D400009F4A7C080916301381B892E912C2B0DAB
:102D50004D2D4150490F6B2D8D2D3983D6D82091A3
:102D60006001289DC001299D900D1124299A2A985F
:102D700039810097E9F0389FA001399F500D112447
:102D8000F701E40FF51FE80EF91EE40EF51E84911D
:102D9000811151C040E080E08EBD0DB407FEFDCF33
:102DA0004EBD0DB407FEFDCF3196EE15FF0579F748
:102DB0002A9AF80181918F018E3209F493C08A33E7
:102DC00009F4D8C080915F01D80EF801308131112B
:102DD000A9CFAA2061F1CA1450F510915F0120918A
:102DE0006001C3942B0D412F4D0D41506B2D8D2D46
:102DF0008CD820916001129FC0011124299A2A9831
:102E0000009779F040E050E01EBC0DB407FEFDCF06
:102E10001EBC0DB407FEFDCF4F5F5F4F84179507B3
:102E200099F72A9A10915F01D10ECA14D0F2219617
:102E3000EEE00C94621F8F3F29F140915901849F6D
:102E4000A0011124452F550F550B459560915A014E
:102E5000869FB0011124372F90915B01899FC0019B
:102E60001124892F990F990B8595682E742E770C54
:102E7000770C770C80E2389FA0011124462957294E
:102E8000852F8ACF40915C0130915D0180915E0178
:102E9000ECCF2B0D492F41504D0D6B2D8D2D99836E
:102EA00034D8209160019981929FC0011124299A00
:102EB0002A98009709F47CCF40E050E01EBC0DB486
:102EC00007FEFDCF1EBC0DB407FEFDCF4F5F5F4F69
:102ED0004817590799F72A9AF80181918F018E3284
:102EE00009F06DCF80916401909165018D5B9740F1
:102EF00009F068CF34E0D30E68CF432F50E0FA01D9
:102F0000B097E435F10508F01DCFEC5CFF4FF1C739
:102F1000C12C5FCF892E912C3DE019CF892E912CA9
:102F20003CE015CF892E912C3BE011CF892E912CBE
:102F300030E10DCF892E912C3EE009CF892E912CC6
:102F40003AE005CFE5E08E2E912C95E0F5E7EF2EE7
:102F5000F7E0FF2E30E0FBCE84E0882E912C94E049
:102F60003DE9E32E37E0F32E30E0F1CE892E912CAF
:102F70003FE0EDCE80916401909165018D5B9740BB
:102F800009F020CFF5E0DF0E20CFA6E0B0E0EAECBC
:102F9000F7E182C7D82EC62E8A01F22E41155105BF
:102FA00091F19A0140E0ADECBCEC18D79C0136954C
:102FB000279536952795369527954F5F211531052D
:102FC00091F7E42EF41608F4EF2C45E050E060E2AF
:102FD00070E0CE010196C8D76F2D70E06E197109AF
:102FE00081E090E08C0F9D1F680F791F4AE0C801B7
:102FF000C2D720E0AE014F5F5F4F6C2D8D2D80DE7C
:103000002696E8E065C741E0DCCFFF920F931F935F
:10301000CF93DF93F82E862F0F2D20E04FEF60E047
:103020004AD4182F882309F47EC0682F80EC9FE3D0
:1030300070E0E6D6299A2A981F15A0F48F2D1EBCA1
:103040000DB407FEFDCF1EBC0DB407FEFDCF1EBCA8
:103050000DB407FEFDCF1EBC0DB407FEFDCF8150A1
:103060008113EDCF112321F1169F9001179F300D91
:1030700011240024220F331F001C220F331F001CB9
:10308000232F302D211119C020E080E08EBD0DB41A
:1030900007FEFDCF2EBD0DB407FEFDCF8EBD0DB4D6
:1030A00007FEFDCF2EBD0DB407FEFDCF1150E1F69A
:1030B0002A9ACDB7DEB7E5E00EC72F3F69F1332777
:1030C00080915901829FA001839F500D1124452FAB
:1030D000550F550B4595942F80915A01829FF00111
:1030E000839FF00D11248F2FE0915B01E29FA001DF
:1030F000E39F500D1124452F550F550B4595C42FB7
:10310000D92FDD0FDD0FDD0F90E2899F9001112493
:103110002C2B3D2B832FBACF90915C0180915D01C8
:1031200040915E01ECCF60EC7FE384CF8091BC00E6
:103130008B7F8093BC003C98449A88E893E1019788
:10314000F1F734990FC040E428E833E150E202C0BF
:10315000415041F0C9010197F1F788B1852788B93D
:10316000349BF6CF3C9A3D9A449A459A08958AE258
:103170008093B800DBDFE4E6F0E080818068808344
:103180000895809164008F778093640084EA80932F
:10319000BC008091BC0087FFFCCF089584E9809338
:1031A000BC008091BC0084FD0CC09FEF21E202C0F6
:1031B000915039F0822F8A95F1F78091BC0084FFFD
:1031C000F7CF8091BC008B7F8093BC00809164001E
:1031D0008068809364000895E1DF80E00895809323
:1031E000BB0084E88093BC008091BC0087FFFCCFCB
:1031F0009091B900987F81E0983139F0983221F0B0
:10320000903411F080E00895089508952091BC0055
:103210006623D9F020642093BC002091BC00206874
:103220002093BC002091BC0027FFFCCF2091B90067
:10323000287F203521F0283511F080E00895209175
:10324000BB00FC01208381E008952F7B2093BC000C
:10325000E4CF229A239A259A2C9A2A9A8CE58CBD3F
:1032600081E08DBD0895589A80E290E09093C5006A
:103270008093C40080E98093C10086E08093C200FF
:10328000089530915201209153013217A9F0E09135
:103290005301F0E0E45CFE4F2081FC01208380912B
:1032A00053018F5F80935301863120F010925301B8
:1032B00081E0089581E0089580E008951F920F92C3
:1032C0000FB60F9211248F939F93EF93FF938091EA
:1032D000520190915301891B87FD1FC08531D4F4A1
:1032E000E0915201F0E08091C600E45CFE4F8083E3
:1032F000809152018F5F80935201863110F01092BD
:103300005201FF91EF919F918F910F900FBE0F90FF
:103310001F9018958091C600F4CF8A5EDFCF82E0BF
:103320008093B00095E09093B100809370008CE999
:103330008093B30008958FB7F89420915401309191
:1033400055018FBFC90108951F920F920FB60F92BA
:1033500011248F939F938091540190915501019670
:1033600090935501809354019F918F910F900FBEC0
:103370000F901F901895CF93DF93FC0181818330CC
:10338000A9F140F0843039F1853009F180E0DF9116
:10339000CF910895813019F18230C1F78281638124
:1033A000C481D581262F2F5F482F4F5F0E94850F44
:1033B000299A2A98DEBD0DB407FEFDCFCEBD0DB40F
:1033C00007FEFDCF2A9A80E0DF91CF9108950E94F9
:1033D000310C80E0DCCF0E946A1080E0D8CF1092E0
:1033E00056018681809357018FEFD1CF82810E9451
:1033F000C30F80E0CCCF299A2A98209156013091B2
:103400005701231788F4662379F0FC0191919EBD42
:103410000DB407FEFDCF2F5F20935601231720F434
:103420009E2F981B961790F32A9A81E0231711F08C
:1034300080E008950895CF93DF9360917601635003
:1034400067FD13C080917301CCE0D0E0C81BD109A7
:10345000C658DE4F809172018D3209F445C08091CB
:10346000580187FD86C0109276018091040184FF87
:103470002EC0609105016F3F51F1693008F45EC0C4
:103480006850609305018091660198E889278093D0
:103490006601CCE068E0E0917401F09175018091E3
:1034A000580186FF5EC0862FA7E6B1E094919D93F8
:1034B00031968150D9F7F0937501E093740187E656
:1034C00091E0EAD0CC3009F048C0C093040194E107
:1034D00089B1847131F49150D9F71092770110922B
:1034E0007101DF91CF910895683009F0BCCF83EC72
:1034F000809366018AE580930401109258018881C7
:10350000807609F040C09A8110926F018981811103
:103510004BC0109270012FE631E082E030937501CC
:10352000209374018F3FA9F19F81911104C09E8166
:10353000981708F4892F8093050195CF1092050103
:103540008091660198E889278093660161111EC009
:1035500060E087E691E0A0D0C4E08FEF80930501A2
:10356000B4CF862FA7E6B1E091919D938150E1F70A
:10357000A2CFCE0140DF8F3F99F0882309F473CFAB
:103580001092050170CFCE01F6DECCCFC62FCC5FF6
:1035900082CF988197FD16C090E890935801CBCFC9
:1035A0008EE1809304015FCF853071F08630F1F0B9
:1035B0008830B1F0893071F02FE631E08A30A1F027
:1035C00080E0ACCF8E81E8CF909377012FE631E099
:1035D00080E0A4CF909379012FE631E080E09ECF88
:1035E00029E731E081E09ACF81E098CF8B8181306B
:1035F00049F08230C9F0833069F080E090E4909324
:10360000580190CF87ED97E19093750180937401F5
:1036100082E1F4CF911110C08FE198E19093750190
:103620008093740184E0EACF85EC97E19093750173
:103630008093740182E1E2CF913051F09230E9F64B
:1036400089EE97E1909375018093740186E1D6CF5E
:103650008FEF97E1909375018093740180E2CECF54
:10366000E9E6F0E0808182608083E89A0895A82FDF
:10367000B92F80E090E041E050EA609530E009C069
:103680002D9182279795879510F084279527305E96
:10369000C8F36F5FA8F30895EADF8D939D930895B3
:1036A000CF93CFB7CF93DF93C3954C9BE9F74C9B58
:1036B00011C04C9B0FC04C9B0DC04C9B0BC04C9B36
:1036C00009C04C9B07C04C9B05C04C9B03C04C9B46
:1036D00001C081C06F93C0917301DD27C658DE4FD2
:1036E0002F9320E400C065E04C9B03C02F916F91A5
:1036F000DECF0F931F934F9345E55F9355E53F93BF
:103700003BE014E009B104712EC06A95C9F0315054
:10371000D8F109B1047101130BC0089427952993BE
:1037200020E4555500F46A9569F701E069B10BC0D2
:10373000102F66E02695299320E4555518F3E2CF23
:103740000FEF69B10000162F455500F0404066E0CC
:1037500014710030E2F221F0000009B1047103C0DD
:1037600009B10471A9F0011309C00894279568F202
:1037700000C06A95A9F700E069B1E5CF102F66E0B7
:10378000269528F20000ECCF11E01CBB002717C0E3
:103790003B503195C31BD04011E01CBB0881033C5A
:1037A000F9F00B34E9F0209171011981110F121316
:1037B000EDCF093651F10D3211F0013E39F700938A
:1037C00078013F915F914F911F910F912F916F91D0
:1037D000CCB3C0FD69CFDF91CF91CFBFCF9118950A
:1037E00020917801222369F310917601112329F5A4
:1037F00034302AF1309376012093720110917301D5
:103800003BE0311B309373011AC000917601013007
:10381000A4F40AE53091040134FD12C000930401C0
:10382000C6E6D1E011C0052710E000C00BB919C0F1
:10383000052710E0221F00C01DC04AE502C032ED7E
:10384000432FC4E1D0E032E01AB114615C9A0BB1AD
:103850001AB954E120E869E420FF05270BB9279540
:10386000179500C000001C3FF0F66695A8F7A1F779
:1038700020FF05270BB92795179500001C3FC0F6C0
:1038800029913A9541F70B7E10917701110F0BB9F1
:10389000C651D04011F01093710111E01CBB0061C2
:1038A0001AB11B7E402F4B7E55E05A95F1F70BB9AC
:1038B0001AB94BB986CF0F93CF93E62FF42FC22FAF
:1038C000282F30E040E050E0261B31094109510922
:1038D000A02FB0E0AC1BB1098DD22F2F30E02E1BF2
:1038E0003109442737FD4095542FB1D28C2F820FD8
:1038F000CF910F910895EF92FF920F931F93CF9363
:10390000DF937B01FA01E9019C01442737FD4095D3
:10391000542FCB01AA2797FDA095BA2F281B390B4E
:103920004A0B5B0B0C1B1D0BD80164D2EE19FF096F
:103930009F01442737FD4095542F89D22C0F3D1FFE
:10394000C901CDB7DEB7E6E0C5C28617970720F0FC
:10395000BA018417950710F0CB010895BC01CB0183
:103960000895ABE6B0E0E6EBFCE19CC255985D98AB
:1039700080E890E00FB6F894809361009093610026
:103980000FBE80BF8091640081608093640080914D
:10399000640088608093640083B7817F83BF439A0B
:1039A000289ABDDC60DC55DCE2DB0E94550C0E94ED
:1039B0008C0E0E94110E84EC99E024EF31E0F901A5
:1039C0003197F1F70197D9F7559A5D9A49DE7894C6
:1039D0004BE650E060E070E0CE010196C5D28FEF7B
:1039E0000E94C30F80E60E947D0F80E00E9423109A
:1039F00022DD0E94130ECE0101960E94680CCE01BA
:103A000001960E946E10F4CF5058BB27AA270ED003
:103A100048C139D130F03ED120F031F49F3F11F44C
:103A20001EF42EC10EF4E095E7FB24C1E92F4AD124
:103A300080F3BA17620773078407950718F071F4CB
:103A40009EF562C10EF4E0950B2EBA2FA02D0B014E
:103A5000B90190010C01CA01A0011124FF27591BD3
:103A600099F0593F50F4503E68F11A16F040A22FD9
:103A7000232F342F4427585FF3CF4695379527954A
:103A8000A795F0405395C9F77EF41F16BA0B620B49
:103A9000730B840BBAF09150A1F0FF0FBB1F661F90
:103AA000771F881FC2F70EC0BA0F621F731F841FD3
:103AB00048F4879577956795B795F7959E3F08F0F9
:103AC000B3CF9395880F08F09927EE0F97958795B8
:103AD00008950CD0E6C0DED040F0D5D030F021F40F
:103AE0005F3F19F0C7C0511110C1CAC0EBD098F3A5
:103AF0009923C9F35523B1F3951B550BBB27AA276F
:103B000062177307840738F09F5F5F4F220F331FE0
:103B1000441FAA1FA9F333D00E2E3AF0E0E830D0AC
:103B200091505040E695001CCAF729D0FE2F27D0AF
:103B3000660F771F881FBB1F261737074807AB077D
:103B4000B0E809F0BB0B802DBF01FF2793585F4FF2
:103B50002AF09E3F510568F08DC0D7C05F3FECF35F
:103B6000983EDCF3869577956795B795F7959F5FB7
:103B7000C9F7880F911D9695879597F90895E1E00B
:103B8000660F771F881FBB1F621773078407BA076A
:103B900020F0621B730B840BBA0BEE1F88F7E095C5
:103BA000089598D088F09F5790F0B92F9927B75172
:103BB000A0F0D1F0660F771F881F991F1AF0BA95F1
:103BC000C9F712C0B13081F09FD0B1E008959CC018
:103BD000672F782F8827B85F39F0B93FCCF38695E7
:103BE00077956795B395D9F73EF490958095709544
:103BF00061957F4F8F4F9F4F0895E89409C097FBC1
:103C00003EF490958095709561957F4F8F4F9F4FB3
:103C10009923A9F0F92F96E9BB279395F6958795F7
:103C200077956795B795F111F8CFFAF4BB0F11F4BA
:103C300060FF1BC06F5F7F4F8F4F9F4F16C0882361
:103C400011F096E911C0772321F09EE8872F762F97
:103C500005C0662371F096E8862F70E060E02AF0D8
:103C60009A95660F771F881FDAF7880F96958795C4
:103C700097F9089597F99F6780E870E060E00895EC
:103C80009FEF80EC089500240A9416161706180674
:103C90000906089500240A94121613061406050650
:103CA0000895092E0394000C11F4882352F0BB0FE1
:103CB00040F4BF2B11F460FF04C06F5F7F4F8F4F44
:103CC0009F4F089557FD9058440F551F59F05F3F7F
:103CD00071F04795880F97FB991F61F09F3F79F02E
:103CE00087950895121613061406551FF2CF4695B0
:103CF000F1DF08C0161617061806991FF1CF869532
:103D00007105610508940895E894BB276627772715
:103D1000CB0197F908950BD0C4CFB5DF28F0BADFF7
:103D200018F0952309F0A6CFABCF1124EECFCADF50
:103D3000A0F3959FD1F3950F50E0551F629FF001BE
:103D4000729FBB27F00DB11D639FAA27F00DB11D17
:103D5000AA1F649F6627B00DA11D661F829F2227A0
:103D6000B00DA11D621F739FB00DA11D621F839F27
:103D7000A00D611D221F749F3327A00D611D231FFD
:103D8000849F600D211D822F762F6A2F11249F574B
:103D900050408AF0E1F088234AF0EE0FFF1FBB1F6E
:103DA000661F771F881F91505040A9F79E3F51050D
:103DB00070F060CFAACF5F3FECF3983EDCF38695BE
:103DC00077956795B795F795E7959F5FC1F7FE2BB8
:103DD000880F911D9695879597F90895A29FB00138
:103DE000B39FC001A39F01D0B29F700D811D11240C
:103DF000911D0895B7FF83C082D0821B930B089555
:103E0000AA1BBB1B51E107C0AA1FBB1FA617B70700
:103E100010F0A61BB70B881F991F5A95A9F780951C
:103E20009095BC01CD01089597FB072E16F40094E0
:103E300006D077FD08D0E4DF07FC05D03EF490956E
:103E400081959F4F0895709561957F4F0895052E38
:103E500097FB16F4009406D057FD0CD05AD007FCFF
:103E600009D07EF490958095709561957F4F8F4F26
:103E70009F4F089550954095309521953F4F4F4F56
:103E80005F4F08952F923F924F925F926F927F9271
:103E90008F929F92AF92BF92CF92DF92EF92FF925A
:103EA0000F931F93CF93DF93CDB7DEB7CA1BDB0B06
:103EB0000FB6F894DEBF0FBECDBF09942A883988AB
:103EC00048885F846E847D848C849B84AA84B984B2
:103ED000C884DF80EE80FD800C811B81AA81B981BE
:103EE000CE0FD11D0FB6F894DEBF0FBECDBFED01D2
:103EF0000895EE0FFF1F0590F491E02D09946EDFF9
:103F0000A59F900DB49F900DA49F800D911D11242D
:103F10000895A1E21A2EAA1BBB1BFD010DC0AA1F0A
:103F2000BB1FEE1FFF1FA217B307E407F50720F022
:103F3000A21BB30BE40BF50B661F771F881F991F9D
:103F40001A9469F760957095809590959B01AC01E6
:103F5000BD01CF010895FB01DC0102C001900D926B
:103F600041505040D8F70895DC0101C06D93415095
:103F70005040E0F70895BB274A3031F4992322F4EA
:103F8000BDE2909581959F4F01C0BB27FB0155274E
:103F9000AA27880F991FAA1FA41710F0A41B8395A6
:103FA0005051B9F7A05DAA3308F0A95DA19300971D
:103FB00079F7B111B1931192CB0102C2AEE0B0E03A
:103FC000E3EEFFE16DCF0D891E898EE08C831A83AD
:103FD00009838FEF9FE79E838D83CE014996AC01C5
:103FE0006F89788DCE01019608D0EF81F885E00FBA
:103FF000F11F10822E96E4E06FCFACE0B0E0E2E07B
:10400000F0E240CF7C016B018A01FC01178216822D
:10401000838181FFB9C188248394912C8C0E9D1ECD
:10402000F7019381F60193FD859193FF81916F01D3
:10403000882309F4A5C1853239F493FD859193FF56
:1040400081916F01853221F4B70190E0C9D1E8CFA9
:10405000512C312C20E02032A8F48B3261F028F46E
:10406000803251F0833271F40BC08D3239F08033DD
:1040700049F4216028C02260246025C0286023C044
:10408000206121C027FD27C0382F30533A3078F403
:1040900026FF06C0FAE05F9E300D1124532E13C098
:1040A0008AE0389E300D1124332E20620CC08E32EF
:1040B00021F426FD65C1206406C08C3611F4206809
:1040C00002C0883641F4F60193FD859193FF8191FA
:1040D0006F018111C0CF982F9554933018F09052F2
:1040E000933028F40C5F1F4FFFE3F9830DC0833634
:1040F00031F0833771F0833509F05AC022C0F801DE
:10410000808189830E5F1F4F44244394512C5401B6
:1041100014C03801F2E06F0E711CF801A080B1806C
:1041200026FF03C0652D70E002C06FEF7FEFC50171
:104130002C873BD12C0183012C856FE7262E222270
:1041400017C03801F2E06F0E711CF801A080B18039
:1041500026FF03C0652D70E002C06FEF7FEFC50141
:104160002C8718D12C012C8550E8252E222A83017A
:1041700023FC1AC005C0B70180E290E031D13A9427
:10418000832D90E048165906B0F30EC0F50127FCC8
:10419000859127FE81915F01B70190E021D1311017
:1041A0003A94F1E04F1A51084114510479F7E5C0EF
:1041B000843611F0893639F5F80127FF07C0608190
:1041C0007181828193810C5F1F4F08C06081718172
:1041D000882777FD8095982F0E5F1F4F4FE6B42EEE
:1041E000B22297FF09C090958095709561957F4F99
:1041F0008F4F9F4FF0E8BF2A2AE030E0A4011CD186
:10420000A82EA81842C0853731F43FEEB32EB22253
:104210002AE030E024C099EFB92EB2228F36B9F0EF
:1042200020F4883509F0ACC00DC0803721F0883704
:1042300009F0A6C002C020E1B22AB4FE0BC084E09F
:10424000B82A08C024FF09C0E6E0BE2A06C028E05C
:1042500030E005C020E130E002C020E132E0F801AA
:10426000B7FE07C060817181828193810C5F1F4F0F
:1042700006C06081718180E090E00E5F1F4FA40155
:10428000DBD0A82EA818FFE7BF22B6FE0BC02B2D4F
:104290002E7FA51450F4B4FE0AC0B2FC08C02B2D2A
:1042A0002E7E05C07A2C2B2D03C07A2C01C0752CD4
:1042B00024FF0DC0FE01EA0DF11D8081803311F451
:1042C000297E09C022FF06C07394739404C0822F14
:1042D000867809F0739423FD13C020FF0EC05A2C7A
:1042E000731458F4530C5718732C07C0B70180E2AD
:1042F00090E02C8775D073942C857314B8F304C0A8
:10430000731410F4371801C0312C24FF11C0B70109
:1043100080E390E02C8764D02C8522FF1CC021FF15
:1043200003C088E590E002C088E790E0B7010CC0C8
:10433000822F867881F021FD02C080E201C08BE2ED
:1043400027FD8DE2B70190E04BD005C0B70180E3B7
:1043500090E046D05A94A514C8F3AA94F401EA0D4B
:10436000F11DB701808190E03BD0A110F6CF05C0D0
:10437000B70180E290E034D03A943110F9CF50CEBA
:10438000F7012681378102C02FEF3FEFC9012C963C
:10439000E2E194CDFC010590615070400110D8F726
:1043A000809590958E0F9F1F0895FC01615070407D
:1043B00001900110D8F7809590958E0F9F1F08955A
:1043C000DC01FC01672F71917723E1F7329704C07C
:1043D0007C916D9370836291AE17BF07C8F3089507
:1043E0000F931F93CF93DF938C01EB018B8181FDA2
:1043F00003C00FEF1FEF1AC082FF0DC02E813F8157
:104400008C819D812817390764F4E881F981019333
:10441000F983E88306C0E885F985802F0995892B03
:1044200041F78E819F8101969F838E83C801DF9122
:10443000CF911F910F910895FA01AA27283051F1C9
:10444000203181F1E8946F936E7F6E5F7F4F8F4FC5
:104450009F4FAF4FB1E03ED0B4E03CD0670F781F24
:10446000891F9A1FA11D680F791F8A1F911DA11D09
:104470006A0F711D811D911DA11D20D009F4689442
:104480003F912AE0269F11243019305D3193DEF6EA
:10449000CF010895462F4770405D4193B3E00FD0A0
:1044A000C9F7F6CF462F4F70405D4A3318F0495D8B
:1044B00031FD4052419302D0A9F7EACFB4E0A6956E
:1044C0009795879577956795BA95C9F70097610590
:1044D000710508959B01AC010A2E069457954795E6
:1044E00037952795BA95C9F7620F731F841F951FDB
:0844F000A01D0895F894FFCF10
:1044F800FFFFFF015AFF4B6270730025006D7300C8
:084508004B42004B42707300AE
:00000001FF
