:100000000C944E0C0C949C0C0C946A0C0C946A0C82
:100010000C946A0C0C946A0C0C946A0C0C946C0C86
:100020000C946A0C0C946A0C0C946A0C0C946A0C78
:100030000C946A0C0C946A0C0C946A0C0C946A0C68
:100040000C946A0C0C946A0C0C949E1C0C946A0C14
:100050000C946A0C0C946A0C0C946A0C0C946A0C48
:100060000C946A0C0C946A0C941AAD19AD19AD1964
:10007000AD19181BAD19AD19AD19AD19AD19AD19E3
:10008000AD19AD190F1BAD19AD19AD19AD19AD19DC
:10009000AD19AD19AD19AD19AD19AD19061BAD19D5
:1000A000AD19AD19AD19AD19AD19AD19001BAD19CB
:1000B000AD19AD19AD19AD19AD19AD19AD19E81AD4
:1000C000AD19F41AAD19AD19AD19AD19AD19AD19B8
:1000D000AD19AD19AD19AD19AD19AD19AD19AD19F0
:1000E000AD19AD19AD19AD19AD19AD19EE1AAD199E
:1000F000AD19AD19AD19AD19AD19AD19AD19E81A94
:10010000AD19E21AAD19AD19DC1AAD19AD19FA1A0B
:10011000256868752E256868752E256868752E25F2
:10012000686875002530326868753A25303268682D
:10013000753A253032686875000000000000000044
:100140000000000000000000000000010308102073
:100150000F000000000000000000010409111C2B2A
:100160003B4D5F707E84868A5001070D1622314117
:1001700053667682868888888684807E7C7A787AC0
:100180004847848688868482807C7A787676747202
:100190007270706E6E6C647240437272706E6C6CD2
:1001A0006A6A6868666464626260605E5C4E928ED1
:1001B000323D82545C5C5A5A5856565654545252E8
:1001C0005050504846BCE4502D26ACA43846464614
:1001D000444444424242404040403054F6C6302CF1
:1001E000291C16B6C22A303636343434343434340A
:1001F000301E8EFF8A1E262423140C16B2EC2E22EB
:100200002C2C2C2C2C2C2C202AE2FF541A241E1AC5
:10021000231A061814A0FF4E2432323232321E62E4
:10022000FFEC261C201C181420210816221288FF1F
:10023000803246463E30C4FF9C142222201C1816F1
:100240001C2B101C242A0C84FFC64C526AFFFF4C46
:100250001628262422201C1A1D251E282C245C9ECC
:1002600076FFFFBAFFFFAA6E242E2C2A2826222210
:100270001E2A2E342C7CAE3A1A46FFFFB81C3ABE1A
:10028000AA2E3234302E2A2A2B3B3A3E8A882A2C38
:10029000342C48682C423E36A6CE46383C3834349E
:1002A0002E3D4E7A5C262C3032383A3C484A4C4A35
:1002B0003A86D6603E444042282D64422A2C2A2C9D
:1002C000323A424A50545656544668CA76464C52C0
:1002D000211F48362E28282E38424C565E62626412
:1002E000625E5456A484525E1F3A563A2C2A303C21
:1002F0004A56606A70747674726C686058847E685E
:100300001F1B8C76625C6470787C8082868688860F
:10031000827E76726C6272801900000B274B78A087
:10032000C2D0CEC0B4ACA49E968E867E78746E7613
:100330001900000000000000001636608CB7CFD90D
:10034000D2C4B6A89A8E8282170000000000000076
:10035000000000000000041D44719FC6DAE0D0CE0A
:100360001F0000000000000000000000000000006E
:100370000000000015345D890D000000000002033C
:10038000060A287AD6FFFFFFFFFFFFFFFFFFFFFFF0
:10039000FFFFFFFFFFFFFFFFFFFFFFFFFFFFFFFF6D
:1003A000FFFFFFFFFFFFFFFFFFFFFFFFFFFFFFFF5D
:1003B000FFFFFFFFFFFFFFFFFFFFFFFFFFFFFFFF4D
:1003C000FFFFFFFF0F000000000002040726DDFF13
:1003D000FCB3B6BABDBFC1C3C5C6C7C7C8C8C8C8C5
:1003E000C8C8C8C8C8C8C8C8C8C8C8C8C8C8C8C88D
:1003F000C8C8C8C8C8C8C8C8C8C7C7C6C5C4C2C096
:10040000BEBBB8B5B2AFADABA9A8A7A6A6FFFFFF0C
:100410007B0000000000020523DDFFCF312D3843B3
:100420004C555C63686C6F71717171717171717130
:1004300071717171717171717171717171717171AC
:10044000717171717171706D6A655F5850473D329D
:10045000281F17100B06030115D2FFD2150000004C
:1004600000000320DFFFCE2D2934414D58626B720E
:10047000787D808283838383838383838383838361
:10048000838383838383838383838383838383833C
:100490008383817E7A756E665D5246392E231B13E7
:1004A0000C070416D2FFD2150000000000001EDF6A
:1004B000FFCD27242F3C4A5864707982888E91940E
:1004C00095959595959595959595959595959595DC
:1004D0009595959595959595959595959594938FD5
:1004E0008B857D74695D504134281E150E0819D224
:1004F000FFD2150000000000001BDEFFCC221C27ED
:1005000033404F6264687995959595959595959545
:10051000959595959595959595959595959595958B
:1005200095959595959595959595958B8B857D6AE2
:1005300065615B46382C21170F1DD3FFD2150000D3
:10054000000000001EDEFFCA1B141D273341505857
:10055000686876848B9595959595959595959595DF
:10056000959595959595959595959595959595953B
:10057000959595959595958B8B857D6565655D477D
:10058000392C211723D4FFD2150000000000001ED3
:10059000DEFFCA160C131B25303D4B5A67727C8454
:1005A0008B919497989898989898989898989898E4
:1005B00098989898989898989898989898989898BB
:1005C000989796928E8780766B5F514335291F29C5
:1005D000D4FFD3160000000000001EDEFFC9120683
:1005E0000B1118212B36434F5B656E757B8083851D
:1005F000868686868686868686868686868686869B
:100600008686868686868686868686868686848191
:100610007D7871685F54483B2F242ED5FFD3190194
:1006200000000000001EDEFFC90A0205090E151CAD
:10063000252F3A454F585F666B6F727474747474EB
:10064000747474747474747474747474747474746A
:100650007474747474747474747473706D68625B9D
:1006600052493E332932D6FFD41B0301000000005B
:100670000072FFFFD8CC8687898B8E9094989CA1BE
:10068000A5A8ACAEB1B2B3B4B4B4B4B4B4B4B4B459
:10069000B4B4B4B4B4B4B4B4B4B4B4B4B4B4B4B41A
:1006A000B4B4B4B4B4B4B3B2B1AFADAAA6A39E9A75
:1006B000D3EAFFD41D06030000000000000099FFEC
:1006C000FFFFFFFFFFFFFFFFFFFFFFFFFFFFFFFF3A
:1006D000FFFFFFFFFFFFFFFFFFFFFFFFFFFFFFFF2A
:1006E000FFFFFFFFFFFFFFFFFFFFFFFFFFFFFFFF1A
:1006F000FFFFFFFFFFFFFFFFFFFFFFFFFFFF702078
:1007000008050200000000000000000000000000DA
:100710000000000000000000000000000000739BCB
:1007200090987E3800001DE1FFFFFFEF320000745B
:10073000FFFFFFFFB501000CD2FFFFFFFF590000D4
:100740005CFFFFFFFFD9110005C1FFFFFFFF850020
:100750000030E9FFFFFFEF320000187BAFB9AB7943
:100760000000000000000000000000000000000089
:100770000000000000001A532D0000B5FF99000092
:10078000597F3000000000000000000000001A53F4
:100790002D0000B5FF990000597F300000000000D7
:1007A0000000000000000000000000000000000049
:1007B000001A532D00B5FF9900597F30000042A95F
:1007C000D9F0E5C38C0D22FFFFEAD9DFFFFF8D7959
:1007D000FF7800000044FFAAB7FF0B0000002DFFC8
:1007E00081E8E3000000006FFF52F2ED3C23233B61
:1007F000E8FF1BB4FFFFFFFFFFFF9B000053828653
:1008000086824C000000000080F2F23200000010EE
:10081000ADFFE2F90800000043DD30E3DE00000038
:1008200000010010FFAF0000000000004DFF7B0042
:1008300000000000007CFF4D000000000000D3FF1E
:1008400028000000000000657904000000000D840D
:10085000CED3D5C5700007DEFFD6C6C1E6FF7C3714
:10086000F57A0000000CFFB8001F3C56898ABFFFD4
:100870007135DCFFFFFFFFEC7203DDFF6F341919E8
:100880000F0000FFFFFCFFFFFFFFEC04747B898972
:1008900089898960000031A3D8D6D6CE921726FF69
:1008A000FFB39E9FCCFFB92C8F3C00000034FFC4E7
:1008B00000000090FFFFFFCD21000000488080E194
:1008C000DF06A09711000000BCFF22E0FFFFFFFF42
:1008D000FFFFBA0001578889898961030000000081
:1008E00000007DF2F24900000041DFFFF4FF290023
:1008F0000697FFED4CC4FF0547D6F5630000F9C627
:1009000000F2FFC072849BFFDE52EDF2FFFFFFFF9B
:10091000FFFF840D0D0D0D0DA3FF5F000000000013
:100920000048790A0006A9C4D6D4D3D7E46127FFCA
:10093000D77D868A7877374DFFD899ABB17317008A
:1009400084FFE6CFD0D5FFFF15062300000000AAE4
:10095000FF41795200060611DDFF1FFFFFFFFFFF79
:10096000FFFFA6001376898989875000000038A907
:10097000F2F2F2ECA72017FDFF9D8A89BEFF8B5C87
:10098000FF830C16162C421F80FFFDFEFFFFFF9514
:1009900000AFFC693D3F3EC8FF2FE8F200000000B9
:1009A000AEFF23BCFFFFF0F0FFFFB5010F73A5B34F
:1009B000B59E63000033CFD1CFD0CBB2B59E4DD51D
:1009C000CCCDC5B8FFFF9800000000006EFF9D0071
:1009D0000000000077FFAA00000000007BFFB100CC
:1009E0000000000076FFBD000000000D9BFFC0006E
:1009F0000000000018897E0000000000000058E19F
:100A0000F2F2F2F2C12E33FFD64F323571FFD44EDF
:100A1000FF8900000019FFBA00CCFFD6B1D3FFC692
:100A2000187BE55C42524AD5E113F2FF0500000055
:100A3000C7FF33CAFFFFFFFFFFFFBA010F6F8689B1
:100A40008987550000003EA4E7F2F2D58A0C22FF08
:100A5000FFC4BBB7DCFF8962FF630000001AFF9E82
:100A600067FFCA888993C0FF6C0089F8FFFFEEE733
:100A7000FF465C4100000000BCFF16E0FFD1AAA8C1
:100A8000DEFF9A001379B3BFC0AE640000006BBBF9
:100A9000CFD0D0D2B34500D7FFBCB9B9B7FFFF085C
:100AA000FFDB05030214ECF02AFFFFF4F7F9FFFF68
:100AB0006B54FF8F383F4278FFA680FF4000000054
:100AC00012FFCAD9FFFFFFFFFFFFFF5C6479858932
:100AD0008989844500009EF226000045E6E000DD9D
:100AE000ED0010B3FFC12608FEE782E0F85C0000CD
:100AF0002BFEFFFFFF1300000050FF855AFFBD0AC9
:100B000000007FFF390066FFD70B00E6FF1F0000E3
:100B10005BFFFD3B66790000000049905200000039
:100B2000000000000000081E232C140B2E240039A6
:100B3000948DB27752B3A42E89F99FC8F3CEB4F145
:100B4000D1C0E52B2DFF802F9AF9FBB40031FF2790
:100B500000C4F8DE6F0076DA0800E7B174270047BA
:100B600079000079440023451C46582E000000B34C
:100B7000FFE7FCFFFF940000ECF43C1710D5FF1AD0
:100B800015FFC2000000C3FF143DFFFFA290AAFFA3
:100B9000DD0062FFBDFFFFFFCD2E00A2FF23020D8F
:100BA0000D000000C4F1080000000000000000007B
:100BB0000000000000000000000000000000000035
:100BC00068C5C8CDC57F050058FFB67685CAE61F43
:100BD0000073FFE6D7D2AB5903002A7F737691FFEB
:100BE000D40000B4E99A93B5FFAA0000298B9D9E1A
:100BF000966609000000000000000000000029AB1C
:100C0000AF7F03530E0000B89951CC9794000000B9
:100C1000F00A00AFC574848A429FB5B2BAA3B68AFF
:100C20007BDF00170A76B9AD000AD800001EA33298
:100C3000C5A3D4730000222C000D2D200000BDFFA1
:100C400012000000000000F4DC0000000000001AA8
:100C5000FFE3C7E4DDA11A0040FFF2A19EC1FF9DA2
:100C60000068FF58000000FFBF0095FF790D0D736D
:100C7000FF9400EFFFFFFFFFFFF229007D66559014
:100C8000908621000013867C06000011818340FFBE
:100C9000FF32000078FFF460FCFF720006C9FFCA53
:100CA0008DD3D2A90066D4B9CCB2A68AE400D48888
:100CB000A2B7D38847F258F026CE97FD7D03F4FF04
:100CC000A800FF76722B006F972300813700000089
:100CD0000000000000000000000000000000000014
:100CE000777777772200FFFFFFFF1133FFFFFFEEDB
:100CF0000066FFFFFFBB00000000000000000000D6
:100D000000557777AABBBBBBAA77775511000000C7
:100D10000033DDFFFFFFFFFFFFFFFFFFFFFFEE33AD
:100D2000000011EEFFFFFFFFFFFFFFFFFFFFFFFFD0
:100D3000FFEE000077FFFFFFFFCCBBBBBBBBBBDD03
:100D4000FFFFFFFF3300CCFFFFEE33000000000089
:100D50000000AAFFFFFF4411FFFFFF880000000012
:100D60000000000044FFFFFF3344FFFFFF4400008A
:100D700000000000000077FFFFFF0077FFFFFF008B
:100D8000000000000000000088FFFFDD0099FFFF69
:100D9000DD000000000000000000BBFFFFBB00BB47
:100DA000FFFFBB000000000000000000FFFFFF7716
:100DB00000EEFFFFBB000000000000000066FFFF28
:100DC000FF5500EEFFFFFF8844444444444488EE4E
:100DD000FFFFFF1100AAFFFFFFFFFFFFFFFFFFFF65
:100DE000FFFFFFFF99000044EEFFFFFFFFFFFFFF43
:100DF000FFFFFFFFFFDD110000002288BBFFFFFFA8
:100E0000FFFFFFFFEEBB77110000000000000000B5
:100E100000000000000000000000000000000000D2
:100E20000000000055FFFFFFFF77000000000000FA
:100E3000000000000077FFFFFFFFFF33000000000D
:100E400000000000000088FFFFFFFFFFFF1100000F
:100E500000000000000000AAFFFFAA99FFFFDD00CC
:100E60000000000000000000AAFFFF8800CCFFFF88
:100E7000AA00000000000000000022DD770000EE64
:100E8000FFFF8800000000000000000000000000DC
:100E900033FFFFFF660000000000000000000000BC
:100EA000000055FFFFFF33000000000000000000BD
:100EB0000000000077FFFFFF0000000000000000BE
:100EC000000000000000AAFFFFCC000000000000AE
:100ED0000000000000000000CCFFFFAA000000009E
:100EE00000000000000000000000FFFFFF7700008E
:100EF000000000000000000000000033FFFFFF556D
:100F00000000000000000000000000000055FFFF8E
:100F1000FF33000000000000000000000000008817
:100F2000FFFFFF00000000000000000000000000C4
:100F300000000000000000000000000000000000B1
:100F400000002277777777777777771100000000B6
:100F5000000055DDFFFFFFFFFFFFFFFFFFFFBB228C
:100F600000000055FFFFFFFFFFFFFFFFFFFFFFFF38
:100F7000FFBB000000EEFFFFFF9977777777777769
:100F8000EEFFFFFF220055FFFFFF550000000000AD
:100F9000000044FFFFFF440088FFFFEE0000000058
:100FA0000000000033FFFFFF3300000000000000DE
:100FB000000000000022BBFFFFFF1100000033779C
:100FC0007777AAFFFFFFFFFFFFFFFFBB000022BBF9
:100FD000FFFFFFFFFFFFFFFFFFFFFFFFCC2200111E
:100FE000DDFFFFFFFFFFFFFFFFFFFFFF8866000041
:100FF0000077FFFFFFAA77770000000000000000E5
:10100000000000BBFFFFBB0000000000000000006C
:101010000000000000EEFFFFFFFFFFFFFFFFFFFFEC
:10102000FFFFFFFFEE0000FFFFFFFFFFFFFFFFFFDF
:10103000FFFFFFFFFFFFAA0000FFFFFFFFFFFFFF13
:10104000FFFFFFFFFFFFFFFF770000000000000031
:101050000000000000000000000000000000000090
:1010600000226677777777777777775511000000DA
:101070000011BBFFFFFFFFFFFFFFFFFFFFFFFF664A
:10108000000000CCFFFFFFFFFFFFFFFFFFFFFFFFA0
:10109000FFFF220055FFFFFFBB77444444444477E1
:1010A000BBFFFFFF770077FFFFCC000000000000D0
:1010B000000044FFFFFF7700110000000000000067
:1010C0000000000077FFFFFF440000000000000068
:1010D000EEFFFFFFFFFFFFFFFF9900000000000091
:1010E0000011FFFFFFFFFFFFFFEE550000000000B3
:1010F00000000044FFFFFFFFFFFFFFFFDD000000D7
:10110000000000000000000000000077FFFFFF3338
:101110000033444433000000000000000044FFFF9F
:10112000FF4400BBFFFFCC1100000000000000994D
:10113000FFFFFF1100BBFFFFFFFFFFFFFFFFFFFFF0
:10114000FFFFFFFFCC000055FFFFFFFFFFFFFFFF8A
:10115000FFFFFFFFFFFF440000002288CCFFFFFFDE
:10116000FFFFFFFFFFDD99330000000000000000DB
:10117000000000000000000000000000000000006F
:10118000000000000000000044DDFFFFFFAA000097
:10119000000000000000000011AAFFFFFFFFFF7722
:1011A00000000000000000000055EEFFFFFFFFFF01
:1011B000FF550000000000000022BBFFFFFFFFEE14
:1011C000FFFFFF3300000000000066FFFFFFFFEE9F
:1011D0005577FFFFFF000000000033BBFFFFFFFF5C
:1011E00088000099FFFFCC0000000077FFFFFFFFA1
:1011F000BB33000000CCFFFFAA000044CCFFFFFF80
:10120000EE550000000000EEFFFF770000FFFFFF3B
:10121000FF8800000000000033FFFFFF550000FFC3
:10122000FFFFFFFFFFFFFFFFFFFFFFFFFFFFFFFFCE
:1012300033FFFFFFFFFFFFFFFFFFFFFFFFFFFFFF8A
:10124000FFFF00FFFFFFFFFFFFFFFFFFFFFFFFFFAD
:10125000FFFFFFCC000000000000000000000000C5
:10126000CCFFFFAA0000000000000000000000000A
:101270000011FFFFFF7700000000000000000000E9
:1012800000000033FFFFFF550000000000000000D9
:1012900000000000000000000000000000000077D7
:1012A00077777777777777777777777777771100AB
:1012B00000FFFFFFFFFFFFFFFFFFFFFFFFFFFFEE4E
:1012C000000033FFFFFFFFFFFFFFFFFFFFFFFFFFF8
:1012D000FFAA000055FFFFFF3300000000000000E0
:1012E00000000000000077FFFFFF33777777777704
:1012F0007777000000000000AAFFFFFFFFFFFFFF5D
:10130000FFFFFFFFFFDD33000000DDFFFFFFFFFFFA
:10131000FFFFFFFFFFFFFFFFDD000011FFFFFFEEFC
:1013200077777777777777FFFFFFFF33002277773D
:1013300077330000000000000066FFFFFF6600003A
:10134000000000000000000000000044FFFFFF66F6
:101350000000000000000000000000000077FFFF18
:10136000FF4400EEFFFFCC0000000000000033DD72
:10137000FFFFFF1100DDFFFFFFFFFFFFFFFFFFFF8C
:10138000FFFFFFFFBB000077FFFFFFFFFFFFFFFF37
:10139000FFFFFFFFFFDD2200000066CCFFFFFFFF25
:1013A000FFFFFFFFFFCC77000000000000000000FF
:1013B000000000000000000000000000000000002D
:1013C000003377AABBBBBBBBBBBBAA773300000013
:1013D0000022CCFFFFFFFFFFFFFFFFFFFFFFFF66C5
:1013E000000000CCFFFFFFFFFFFFFFFFFFFFFFFF3D
:1013F000FFEE000055FFFFFFBB77444444444466C2
:10140000BBFFFFFF000099FFFFEE1100000000008E
:101410000000447777660000BBFFFFBB11444444E3
:1014200044444444330000000000FFFFFFCCFFFFB2
:10143000FFFFFFFFFFFFFFDD33000022FFFFFFFF85
:10144000FFFFFFFFFFFFFFFFFFFFEE110044FFFF65
:10145000FFEE88777777777777DDFFFFFF440077B8
:10146000FFFFFF220000000000000022FFFFFF44FA
:101470000077FFFFBB000000000000000022FFFF1C
:10148000FF4400BBFFFFDD110000000000001199C8
:10149000FFFFFF220088FFFFFFFFDDBBBBBBBBDD03
:1014A000FFFFFFFFDD000044FFFFFFFFFFFFFFFF27
:1014B000FFFFFFFFFFEE3300000055CCFFFFFFFFF3
:1014C000FFFFFFFFFFEE9922000000000000003345
:1014D00044444444444411000000000000003377B9
:1014E0007777777777777777777777777777660014
:1014F00077FFFFFFFFFFFFFFFFFFFFFFFFFFFFFF84
:101500008800AAFFFFFFFFFFFFFFFFFFFFFFFFFFB6
:10151000FFFF77007777777777777777777777EE4B
:10152000FFFFFFBB00000000000000000000000003
:1015300077FFFFFFBB00000000000000000000007C
:101540000077FFFFFFBB000000000000000000006C
:10155000000077FFFFFFCC1100000000000000003A
:1015600000000077FFFFFFCC11000000000000002A
:101570000000000077FFFFFFCC110000000000001A
:10158000000000000066FFFFFFCC1100000000001B
:1015900000000000000066FFFFFFDD2200000000E9
:1015A0000000000000000066FFFFFFDD22000000D9
:1015B000000000000000000066FFFFFFDD220000C9
:1015C00000000000000000000044FFFFFFDD2200DB
:1015D0000000000000000000000066FFFFFFEE3387
:1015E00000000000000000000000000000000000FB
:1015F00000000000000000000000000000000000EB
:101600003377EEFFFFFFFFFFFFFFFFBB7700000018
:101610000066FFFFFFFFFFFFFFFFFFFFFFFFFFCCA5
:10162000000022FFFFFFFFDD7777777777BBFFFFB3
:10163000FFFF550077FFFFFF55000000000000008E
:1016400044FFFFFF770099FFFFEE0000000000005D
:10165000000022FFFFFF770088FFFFFF220000004D
:101660000000000077FFFFFF330022EEFFFFFFDDE9
:1016700077777777BBFFFFFFFF7700000044EEFF2F
:10168000FFFFFFFFFFFFFFFFFFEE2200000099FFBB
:10169000FFDD77777777777777DDFFFFDD110066FE
:1016A000FFFFFF220000000000000055FFFFFF5574
:1016B00000BBFFFFDD000000000000000044FFFF52
:1016C000FF6600DDFFFFFF4400000000000033CC98
:1016D000FFFFFF3300AAFFFFFFFFFFFFFFFFFFFF3A
:1016E000FFFFFFFFDD000066FFFFFFFFFFFFFFFFC3
:1016F000FFFFFFFFFFFF4400000055BBFFFFFFFFA0
:10170000FFFFFFFFFFDD7711000000000000000079
:1017100000000000000000000000000000000000C9
:1017200000337777BBBBBBBBBB997755110000007B
:101730000033CCFFFFFFFFFFFFFFFFFFFFFFEE3394
:10174000000011DDFFFFFFFFFFFFFFFFFFFFFFFFB7
:10175000FFDD000066FFFFFFDD777777777777772C
:10176000DDFFFFFF220099FFFFDD110000000000F8
:10177000000055FFFFFF3300BBFFFFBB0000000070
:101780000000000066FFFFFF0000BBFFFFEE22002D
:10179000000000000022CCFFFFFF0000BBFFFFFFA6
:1017A000FFFFFFFFFFFFFFFFFFFFFFBB000055FF35
:1017B000FFFFFFFFFFFFFFFFFFFFFFFFFF9900009D
:1017C000004499BBFFFFFFFFFFDDBB55FFFFFF7725
:1017D0000000000000000000000000000044FFFFC7
:1017E000FF440088BBBB880000000000000000AA86
:1017F000FFFFEE0000AAFFFFFF997755444455779D
:10180000BBFFFFFF99000055FFFFFFFFFFFFFFFF3A
:10181000FFFFFFFFFFCC1100000055CCFFFFFFFFD3
:10182000FFFFFFFFFFFF99110000000000000044D0
:1018300044444444444433000000000000090212C0
:101840000001010080640904000000000000001293
:10185000011001FF000008C016DC050002010200B3
:101860000116034E00650074004D006F006E0069A4
:101870000074006F00720020037A0061006B006B3F
:101880000065006D0062006C0065002E0063006F53
:10189000002E0075006B00040309040011241FBE14
:1018A000CFEFD8E0DEBFCDBF11E0A0E0B1E0EEE8C1
:1018B000F9E402C005900D92A831B107D9F711E003
:1018C000A8E1B1E001C01D92A839B107E1F73FD10D
:1018D0000C94C5240C9400000F928F939F930FB625
:1018E0008091B30084568093B30080916C019091F5
:1018F0006D01019690936D0180936C010FBE9F91D5
:101900008F910F901895A82FB92F80E090E041E0BB
:1019100050EA609530E009C02D9182279795879510
:1019200010F084279527305EC8F36F5FA8F3089501
:10193000EADF8D939D930895CF93CFB7CF93DF9335
:10194000C3954C9BE9F74C9B11C04C9B0FC04C9B23
:101950000DC04C9B0BC04C9B09C04C9B07C04C9BC3
:1019600005C04C9B03C04C9B01C081C06F93C091CC
:101970007B01DD27CE57DE4F2F9320E400C065E0CA
:101980004C9B03C02F916F91DECF0F931F934F930A
:1019900045E55F9355E53F933BE014E009B10471E1
:1019A0002EC06A95C9F03150D8F109B10471011304
:1019B0000BC008942795299320E4555500F46A95A7
:1019C00069F701E069B10BC0102F66E026952993F5
:1019D00020E4555518F3E2CF0FEF69B10000162F40
:1019E000455500F0404066E014710030E2F221F00D
:1019F000000009B1047103C009B10471A9F0011319
:101A000009C00894279568F200C06A95A9F700E01C
:101A100069B1E5CF102F66E0269528F20000ECCFE3
:101A200011E01CBB002717C03B503195C31BD040B1
:101A300011E01CBB0881033CF9F00B34E9F0209164
:101A400079011981110F1213EDCF093651F10D32C1
:101A500011F0013E39F7009380013F915F914F9162
:101A60001F910F912F916F91CCB3C0FD69CFDF9182
:101A7000CF91CFBFCF91189520918001222369F398
:101A800010917E01112329F534302AF130937E0123
:101A900020937A0110917B013BE0311B30937B0155
:101AA0001AC000917E010130A4F40AE530910401CE
:101AB00034FD12C000930401CEE6D1E011C0052729
:101AC00010E000C00BB919C0052710E0221F00C0AC
:101AD0001DC04AE502C032ED432FC4E1D0E032E040
:101AE0001AB114615C9A0BB11AB954E120E869E4A7
:101AF00020FF05270BB92795179500C000001C3F54
:101B0000F0F66695A8F7A1F720FF05270BB92795F2
:101B1000179500001C3FC0F629913A9541F70B7EBE
:101B200010917F01110F0BB9C651D04011F01093E5
:101B3000790111E01CBB00611AB11B7E402F4B7E66
:101B400055E05A95F1F70BB91AB94BB986CFA7E70B
:101B5000B0E0EDEAFDE00C94B52155985D9880E881
:101B600090E00FB6F89480936100909361000FBEEF
:101B700080BF8091640081608093640080916400E4
:101B800088608093640083B7817F83BF439A289ADB
:101B90000E94CF1C0E94731C0E946B1C0E94611C3F
:101BA0004CD0D3D253D284EC99E024EF31E0F90148
:101BB0003197F1F70197D9F7559A5D9A0E946D1EFA
:101BC0007894CE01019660E070E047E750E00E9413
:101BD00001228FEFF5D380E6A9D380E012D40E94D2
:101BE000561D36D2CE01019636D0CE01019654D480
:101BF000F6CFF89455985D9828E088E190E00FB60C
:101C0000F894A895809360000FBE20936000FFCFEA
:101C10001F93CF93DF93162FC8E3D1E0688170E064
:101C2000665E7E4F412F50E00E94F8218881810F2F
:101C30008883DF91CF911F910895389A5B98539ACA
:101C400088EE93E024EF31E0F9013197F1F7019745
:101C5000D9F753980895ABE3B0E0E1E3FEE00C94CC
:101C6000A5214C010E94D91C3C0180911801909142
:101C700019019301281B390BC9018139914008F0E2
:101C800082C124E2422E512C4C0E5D1E940120593B
:101C90003F4F3BAF2AAFC4018C589F4F9CA78BA7E7
:101CA000D401AB58BF4FBEA7ADA7F401EA58FF4F10
:101CB000F8ABEFA794012F583F4F3AAB29ABC401C3
:101CC0008E589F4F9CAB8BABD401AD58BF4FBEA37A
:101CD000ADA3F401E159FF4FFEABEDAB11C0709223
:101CE00019016092180180913801E82FF0E0E65E5A
:101CF000FE4F9CA190838F5F809338018E3148F412
:101D0000C2010E94811C8111EACFEB96E2E10C94A2
:101D1000C12110923801CE01099664E079DFCE012D
:101D2000059664E075DFCE01419664E071DFCE0177
:101D30000D9664E06DDFCE014D9662E069DFCE0165
:101D40004F9661E065DFCE01809664E061DF8AAD89
:101D50009BAD61E05DDF8BA59CA561E059DF8DA5A2
:101D60009EA561E055DF8FA598A961E051DF89A9A3
:101D70009AA961E04DDF8BA99CA961E049DF8DA1A3
:101D80009EA161E045DF89859A85AB85BC85803A57
:101D90009648A140B10540F08FE996E8A1E0B0E097
:101DA00089879A87AB87BC878D819E81AF81B885F3
:101DB000803A9648A140B10540F08FE996E8A1E04D
:101DC000B0E08D839E83AF83B88789899A89AB8978
:101DD000BC89803A9648A140B10540F08FE996E869
:101DE000A1E0B0E0898B9A8BAB8BBC8B8D859E85F7
:101DF000AF85B889803A9648A140B10540F08FE997
:101E000096E8A1E0B0E08D879E87AF87B88B8D8D77
:101E10009E8D883E934020F087EE93E09E8F8D8FBD
:101E20008F8D843610F083E68F8FEBA5FCA5808123
:101E3000883110F087E18083ADA5BEA58C918C33ED
:101E400010F08BE38C93EFA5F8A980818C3310F010
:101E50008BE38083A9A9BAA98C91803210F08FE11D
:101E60008C93EBA9FCA980818C3008F089C0ADA1CE
:101E7000BEA18C91843610F083E68C9388E0FE013D
:101E80003596D40101900D928A95E1F788E0FE0124
:101E90003D96D401189601900D928A95E1F78D8DAB
:101EA0009E8DF401918F808F8F8D828F88A199A153
:101EB000AAA1BBA1838F948FA58FB68F69857A85E0
:101EC0008B859C850E94F21F2AE939E949ED5DE383
:101ED0000E9480200E94C61F5B016C016D817E8183
:101EE0008F8198850E94F21F2AE939E949ED5DE367
:101EF0000E9480200E94C61F6FA378A789A79AA777
:101F0000D40150966D937D938D939C935397F401D8
:101F1000A48AB58AC68AD78AADA9BEA9BC91BFAB2F
:101F20002B2E312CF101EE0FFF1FF9AFE8AFCF01DF
:101F30004F96880D991D60E070E042E050E00E94ED
:101F40000122A114B104C104D10409F058C08FA129
:101F500098A5A9A5BAA5892B8A2B8B2B19F58FA932
:101F60008F5F883208F080E0EDA9FEA980838AE1C6
:101F700091E060E070E04EE150E00E940122C0CEAE
:101F80008BE0808374CF1092190110921801109287
:101F900038018AE191E060E070E04EE150E00E949B
:101FA00001226FCE6D857E858F85988920E030E097
:101FB000A901EFA0F8A409A51AA50E94D91E0FEF48
:101FC00010E020E030E0ADB7BEB711960D931D9341
:101FD0002D933C93149720E030E0A901EFA0F8A4E2
:101FE00009A51AA5A12CB12C65010E94941EF1012E
:101FF0007096EE0FFF1FE80DF91D6083B0CF698961
:102000007A898B899C8920E030E0A90186017501DD
:102010000E94D91E0FEF10E020E030E0ADB7BEB750
:1020200011960D931D932D933C93149720E030E06F
:10203000A90186017501A12CB12C65010E94941E95
:10204000E8ADF9ADE80DF91D678F81CF419A08958C
:10205000CF93DF93319B18C010923C01C09139019E
:10206000D0913A01209719F4DF91CF910895809192
:102070003B01882391F110923A011092390110929C
:102080003B01DF91CF910895C0913901D0913A0180
:10209000209799F10E94D91C8C1B9D0B8935924089
:1020A00018F3809100018F3F99F18A3069F18FEF29
:1020B0008093000180913C018F5F80933C018230CE
:1020C00070F197DD809100017BD110923A0110925E
:1020D000390181E080933B01C7CF0E94D91C8C1B42
:1020E0009D0BC39740F280913D018F5F8230A0F03D
:1020F00010923D0180E085D1BECF0E94D91C909303
:102100003A0180933901B0CF86E480930001DCCF9F
:102110008AE080930001D8CF80933D01ECCF8FEF10
:10212000D3CF29982A988EBD8AE08A95F1F700C00E
:102130008DB52A9A0895299A2A988EBD8AE08A95A3
:10214000F1F700C08DB52A9A089581E084BD83E03F
:1021500085BD569A579A229A219A5F9A29982A9A67
:1021600080EB94E024EF31E0F9013197F1F701972A
:10217000D9F75F9880E593EC0197F1F75F9A80EBD0
:1021800094E024EF31E0F9013197F1F70197D9F7A5
:1021900081E0C7DF8CED95E024EF31E0F901319764
:1021A000F1F70197D9F781E1BCDF88EE93E024EFE6
:1021B00031E0F9013197F1F70197D9F781EBB1DF00
:1021C00081E0B9DF8CE2B7DF8DE2B5DF82EBA9DF1A
:1021D00081E0B1DF8CE2AFDF8DE2ADDF83EBA1DF29
:1021E00081E0A9DF8CE2A7DF8DE2A5DF81E0A3DF3C
:1021F0008CE2A1DF8DE29FDF84EB93DF87E09BDF42
:1022000080EC8FDF82EA97DF82E095DF84E893DF5E
:1022100081EC87DF85EC8FDF82EC83DF8AE08BDF68
:1022200080E089DF83EC7DDF8AE885DF8AE283DF77
:1022300084EC77DF8AE87FDF8EEE7DDF85EC71DF6F
:102240008EE079DF80E26DDF86E36BDF80E673DFAF
:102250008AE367DF85E06FDF8AE263DF80E06BDFC0
:1022600080E069DF80E067DF8FE765DF8BE259DFC1
:1022700080E061DF80E05FDF80E05DDF8FE95BDFD2
:1022800080EE4FDF8FE057DF8AE155DF8FE053DFCD
:1022900088E151DF8FE24FDF88E24DDF80E24BDFE4
:1022A00082E249DF8FE147DF8BE145DF83E243DFF5
:1022B00087E341DF80E03FDF87E03DDF82E03BDF17
:1022C00080E139DF81EE2DDF8FE035DF8BE133DF19
:1022D0008FE031DF87E12FDF83E32DDF8CE22BDF1F
:1022E00089E229DF8EE227DF80E325DF80E323DF39
:1022F00089E321DF8FE31FDF80E01DDF87E01BDF45
:1023000083E019DF80E117DF89E20BDF88EE93E0DD
:1023100024EF31E0F9013197F1F70197D9F783E123
:1023200000DF80E593EC0197F1F70895CF93C82F74
:1023300086E3F7DE8C2FFFDECF910895A3E0B0E0B7
:10234000E4EAF1E10C94B421182F8AE22B8349834B
:102350006A83E7DE80E0EFDE812FEDDE80E0EBDEFA
:102360004981842FE8DE8BE2DCDE80E0E4DE6A81F6
:10237000862FE1DE80E0DFDE2B81822FDCDE8CE247
:10238000D0DE2396E3E00C94D02180E060E04FE9BA
:102390002FE7D4DF299A2A9820E880EA1EBC9AE029
:1023A0009A95F1F700C09DB51EBC9AE09A95F1F799
:1023B00000C09DB5815091F7215079F72A9A089570
:1023C000982F91509E3F60F094B59F7794BD8111F6
:1023D00011C05E98809164008062809364000895CB
:1023E000909164009F7D9093640094B5906894BD33
:1023F00087BD08955E9A8091640080628093640036
:10240000089590910101891741F180930101813074
:1024100039F1C0F489E695E190933F0180933E0144
:1024200080EB96E19093410180934001AEDFE09113
:102430003E01F0913F01309709F0099581E08093CA
:10244000420108958F3F91F710923F0110923E0193
:102450001092410110924001E9CF8F3F71F0089531
:102460008DEE98E190933F0180933E0181E299E1E6
:102470009093410180934001D9CF80930101109244
:102480003F0110923E011092410110924001CECFC7
:1024900081E0809343010895CF93DF93EC01809115
:1024A000430181111DC080914201FE01E159FF4F9E
:1024B000882381F080818093020110924201E09193
:1024C0004001F0914101309711F0CE010995DF9163
:1024D000CF9108958081909102018913ECCFF7CFBD
:1024E0008FEF8FDF80E060E04FE92FE727DF10926A
:1024F0004301D9CFA0E0B0E0E0E8F2E10C94A821DC
:102500007C01C62ECA9487E28C1510F467E2C62EB1
:1025100080E00CDF00E010E030E2B32E40E4742EE7
:102520005FE1852E87E2CC2D8C1508F4C85DD0E0E4
:10253000CC0FDD1FCE0DDF1DAA24A394D12CC80122
:10254000880F991F0E96982E990C692C6394D110C0
:102550001AC010925F01B0926001709261011092F6
:102560006201B0926301809264015880892D6CE50C
:10257000462D20EAE3DE84E4652D0E946C1BD39493
:10258000A394DD2031F370925F01B092600110924C
:10259000610180926201B0926301109264015980DE
:1025A00098012D0D311D200F311F225F3F4F822FCB
:1025B000880F482F4F5F6CE520EAC0DE84E4652D6C
:1025C0000E946C1B82E0A812DACF0F5F1F4FCA94E3
:1025D0000931110509F0A6CF80E6A8DECDB7DEB738
:1025E000EFE00C94C421CF93DF93882309F461C0FA
:1025F00080910301813009F473C080E480935F010E
:1026000010926001109261018FE18093620110923B
:1026100063011092640181E08093030187E868E61A
:102620004EE920E88BDE299A2A9880E090E014C0D9
:1026300020E030E03EBD3AE03A95F1F700C03DB50C
:102640002EBD4AE04A95F1F700C02DB501968034C1
:1026500022E0920709F440C0FC01E75CFE4FE491E0
:10266000EE2331F3EF3F09F44EC020915F01E29F6A
:1026700090011124232F330F330B259540916001D6
:10268000E49FA0011124352F40916101E49FF001E6
:102690001124EF2FFF0FFF0BE595CE2FD22FDD0F6B
:1026A000DD0FDD0F40E2349F900111242C2B3D2BD8
:1026B000C1CF80910301882381F010925F011092B5
:1026C00060011092610110926201109263011092F8
:1026D000640110920301A2CF2A9ADF91CF9108954D
:1026E00080E480935F0180E2809360011092610139
:1026F0009FE190936201809363011092640182E0F4
:10270000809303018BCF2091620130916301E091AE
:102710006401C3CFA1EEB1E0E0E9F3E10C94A5219F
:10272000982FCF51DE4F6883C15ED1403E0127E331
:10273000621A2EEF720A27EEF301208388EB818361
:1027400087E18283238326E9248385838CEE868335
:102750008FE7878385E180878DEE81878EE582878D
:1027600081E1838780EF84878EE385878EE086878B
:102770008FEF8787108A118A292F245F82E0692FC3
:102780004DE4DCDD299A2A982FEF3FEF212C312CE4
:1027900077E1B72E78018201B0925F01F0E2F09309
:1027A0006001B09261016BE060936201F09363019C
:1027B00060936401C9018C519F4FC452DE4F9983CD
:1027C0008883CC5DD140D30108C0E0E0F0E0FE9307
:1027D000EE9301978217930769F1FC01E758FC4FCC
:1027E000E491EE2391F3EF3F09F4E2C0F7E1EF9FAC
:1027F000A0011124452F550F550B4595542F550F0A
:10280000550F550F60E2E69FF0011124EF2FFF0FE7
:10281000FF0BEE0FFF1FE295F295F07FFE27E07FA2
:10282000FE278A01E42BF52BFE93EE930197821786
:10283000930799F6CF51DE4F8881C15ED140C552D2
:10284000DE4F8883CB5DD140C252DE4F19830883AF
:10285000CE5DD140C052DE4FB882C05ED140C5527D
:10286000DE4F2881CB5DD1402150C552DE4F2883F9
:10287000CB5DD1402F3F09F4A3C0C552DE4F288164
:10288000CB5DD140822F90E0FC01EE0FFF1FE80FDF
:10289000F91FE60DF71DC080D180028160E4C69E5D
:1028A000C00111246FEF70E00E9455214B0160932D
:1028B0005F01E0E4DE9EC00111246FEF70E00E9432
:1028C00055212B0160936001F0E40F9FC00111249A
:1028D0006FEF70E00E9455215B0160936101C69427
:1028E000C694C694C0926201D694D694D0926301E5
:1028F0000695069506950093640189E0289FB0012E
:102900001124665F7F4F20E030E018E0812F90E0D7
:10291000FC01E20FF31FE20DF31DE75FF84FE491B6
:10292000EE23D1F1EF3F09F448C0F0E08E9EA00104
:102930008F9E500D9E9E500D1124452F550F550B07
:1029400045954E9ED0014F9EB00D5E9EB00D112458
:102950005B2FAE9ED001AF9EB00DBE9EB00D112478
:10296000AB2FBB0FBB0BA595EA2EF42EFF0CFF0C73
:10297000FF0CE0E25E9FA00111244E295F29FC01BB
:10298000E60FF71FEE0FFF1F81E090E08C0F9D1FF9
:10299000E80FF91F51834083115008F0B7CF275F2C
:1029A0003F4F645B7F4F2B31310509F0AECF57CFDE
:1029B000E0E0F4E058E54BE034CFA02FA601D4CFFF
:1029C000C252DE4F08811981CE5DD140C052DE4F28
:1029D000B880C05ED140FE013196808191813296EF
:1029E0009EBD6AE06A95F1F700C09DB58EBD8AE094
:1029F0008A95F1F700C08DB5E615F70571F79BE1F3
:102A0000290E311CC452DE4F28813981CC5DD14062
:102A1000ECE62E16310409F0BFCE2A9ACF51DE4FD4
:102A2000E2E10C94C121CF93DF93682F282F285F18
:102A300086E24BE283DC299A2A9880E090E012C07B
:102A400020E030E03EBD3AE03A95F1F700C03DB5F8
:102A50002EBD4AE04A95F1F700C02DB501968033AE
:102A6000910599F1FC01E353F34FE491EE2341F317
:102A7000EF3F21F120915F01E29F90011124232F6C
:102A8000330F330B259540916001E49FA001112481
:102A9000352F40916101E49FF0011124EF2FFF0FCA
:102AA000FF0BE595CE2FD22FDD0FDD0FDD0F40E2BE
:102AB000349F900111242C2B3D2BC4CF2091620117
:102AC00030916301E0916401EDCF2A9ADF91CF91BB
:102AD0000895EF92FF920F931F93CF93DF9389E0B6
:102AE0008093650188E08093660188E490E090938C
:102AF0006801809367018DEB97E090936B01809361
:102B00006A0180E38093690110925F0187E38093FB
:102B100060019AE0909361011092620180936301D9
:102B2000C5E0C093640182E362E046E051E020E04A
:102B3000F5D382E362E346E051E020E0EFD38AE49C
:102B400060E64BE051E020E0E9D38DE160E64DE046
:102B500051E020E0E3D3C0935F018EE280936001F7
:102B600099E39093610192E09093620180936301F5
:102B70008CE18093640182E46CE040E151E020E06C
:102B8000CDD382E464E145E151E020E0C7D382E4A3
:102B90006CE340E151E020E0C1D382E464E445E12C
:102BA00051E020E0BBD384E13EDF84E43CDF1092BF
:102BB0005F0180E28093600190E490936101109244
:102BC0006201809363018FE1809364018BE560E093
:102BD0004BE525E6B3DB299A2A98C1E0D0E080E0F6
:102BE00090E09EBD2AE02A95F1F700C09DB58EBD0C
:102BF0008AE08A95F1F700C08DB5C536D10509F494
:102C000049C0BE01882777FD8095982F0E94F41F48
:102C100020E030E04AEC52E40E945E1F20E030E009
:102C20004FE753E40E9480200E94C61F611104C038
:102C300080E090E02196D5CF6F3F29F180915F0130
:102C4000689FC0011124892F990F990B85952091B8
:102C50006001629F90011124932F20916101629F76
:102C6000B0011124672F770F770B6595062F182F6A
:102C7000110F110F110F20E2929FC0011124802B20
:102C8000912B2196AECF809162019091630160916A
:102C90006401ECCF2A9A8BE565E64EE926E64EDB29
:102CA000299A2A98C4E4D0E011C080E090E09EBD4B
:102CB0009AE09A95F1F700C09DB58EBD2AE02A955D
:102CC000F1F700C08DB5219709F444C0BE018827F3
:102CD00077FD8095982F0E94F41F20E030E048E8AF
:102CE00052E40E945E1F20E030E04FE753E40E9470
:102CF00080200E94C61F6623C1F26F3F21F18091A0
:102D00005F01689FC0011124892F990F990B859548
:102D100020916001629F90011124932F2091610105
:102D2000629FB0011124672F770F770B6595E62E10
:102D3000F82EFF0CFF0CFF0C20E2929FC001112423
:102D40008E299F29B4CF8091620190916301609197
:102D50006401EDCF2A9ACDB7DEB7E6E00C94CD2121
:102D6000AFE1B0E0E6EBF6E10C94A5216C01FC01CB
:102D7000E159FF4F4F966081BDDB89E0E5E6F1E068
:102D8000808388E0E6E6F1E0808388E490E0E7E68F
:102D9000F1E0918380838DEB97E0EAE6F1E09183A7
:102DA000808370E3E9E6F1E070835FE5652E51E032
:102DB000752EF301108260E6862E61E0962E87E381
:102DC000F4018083E1E6AE2EE1E0BE2E9AE0F5014B
:102DD0009083F2E64F2EF1E05F2EF2011082A3E61F
:102DE0002A2EA1E03A2EF101808315E0E4E6F1E01D
:102DF0001083F601248135814681578182E062E0AB
:102E000005E07F8F26D4F6012081318142815381F4
:102E100082E062E31ED4F601228D30E040E050E013
:102E200088E360E602E015D4F601538D448D358DBC
:102E3000268DBDE0EB2EF12CEC0EFD1EEDB7FEB79E
:102E4000F282E18280E191E094838383558316824C
:102E50004783108631871286238714860E94292291
:102E600082E066E7A7012FE059D2F601208D318D6F
:102E700040E050E082E060E603E0EBD380E4F30161
:102E8000808380E2F4018083F50110829FE1F201EA
:102E90009083F1018083E4E6F1E01082EDB7FEB7A4
:102EA000F282E18284E291E094838383F601EC581C
:102EB000FF4F8081EDB7FEB785831682F601EB5890
:102EC000FF4F8081EDB7FEB787831086F601EA5881
:102ED000FF4F8081EDB7FEB7818712860E942922BD
:102EE00082E06CE6A70128E019D282E1E5E6F1E094
:102EF000808380E1E6E6F1E0808380E291E0E7E62E
:102F0000F1E0918380838DEF9CE0EAE6F1E091832C
:102F100080837F8DE9E6F1E07083F30110838EE218
:102F2000F401808399E3F501908392E0F2019083AC
:102F3000F10180838CE1E4E6F1E08083F6016485B1
:102F4000758586859785AE01435E5F4F68D42D8D6C
:102F500030E040E050E082E06CE002E07AD32E8D79
:102F600030E040E050E08EE26CE001E072D3F60128
:102F70006085718582859385AE01435E5F4F4FD436
:102F80002D8D30E040E050E082E06CE302E061D360
:102F90002E8D30E040E050E08EE26CE301E059D34A
:102FA000F601E059FF4F80811EDBF60164857585CF
:102FB000868597850E94F21F4B015C01F6016489AA
:102FC0007589868997896F5F7F4F8F4F9F4F0E94CA
:102FD000F21F9B01AC01C501B40170D720E030E0C5
:102FE00040EC50E40E94802020E030E040E05FE3CD
:102FF00001D7CCD720E030E0A90116E0E12EF12C7A
:1030000000E010E0D6D68DE185DBF60160857185A4
:1030100082859385E7D74B015C01F6016089718950
:10302000828993896F5F7F4F8F4F9F4FDBD79B01C3
:10303000AC01C501B40142D720E030E040EC50E4DF
:103040000E94802020E030E040E05FE3D3D69ED7AE
:1030500020E030E0A901ADD68DE45CDB6F96E2E1C3
:103060000C94C121A0E0B0E0E8E3F8E10C94A921C0
:10307000862E8A9427E2281510F467E2862E27E22E
:10308000922E98188C010F5F1F4FB12C30E2C32E87
:1030900040E4642E5FE1752EC92DC8528B1408F0F0
:1030A000C92DD0E0CC0FDD1FAA24A394D12C780128
:1030B00081E0E81AF108CE018D0D911D880F482F8F
:1030C0004F5F60E026E73AD9D11013C010925F013C
:1030D000C09260016092610110926201C09263012E
:1030E0007092640186E7F7016081F6D2D394A394CD
:1030F000E2CF60925F01C092600110926101709214
:103100006201C09263011092640186E7F801608158
:10311000E3D2F2E0AF12EACFB39493940E5F1F4F65
:1031200027E2B212B9CFCDB7DEB7EEE00C94C521DD
:10313000CF93DF93482F4D5F68E720E8FFD8299AA7
:103140002A9880E090E012C020E030E03EBD3AE0F6
:103150003A95F1F700C03DB52EBD4AE04A95F1F72A
:1031600000C02DB501968032910599F1FC01E3561E
:10317000F84FE491EE2341F3EF3F21F120915F01FD
:10318000E29F90011124232F330F330B259540919B
:103190006001E49FA0011124352F40916101E49F5B
:1031A000F0011124EF2FFF0FFF0BE595CE2FD22F4B
:1031B000DD0FDD0FDD0F40E2349F900111242C2B39
:1031C0003D2BC4CF2091620130916301E0916401F5
:1031D000EDCF2A9ADF91CF91089589E08093650120
:1031E00088E08093660188E490E090936801809382
:1031F00067018DEB97E090936B0180936A0180E308
:103200008093690110925F0187E3809360019AE0E7
:1032100090936101109262018093630185E0809335
:10322000640189E268E743E151E020E077D085E777
:1032300068E743E151E020E071D08AE179DF86E67A
:1032400077CFEF92FF920F93CF93DF9300D0CDB75C
:10325000DEB77C01FC01E159FF4F4F96608102DF30
:1032600089E08093650188E08093660188E490E0BE
:1032700090936801809367018DEB97E090936B01C9
:1032800080936A0180E38093690110925F0187E374
:10329000809360019AE090936101109262018093A3
:1032A000630185E080936401F701648575858685F7
:1032B0009785AE014F5F5F4FB2D2298130E040E089
:1032C00050E088E068E702E0C4D12A8130E040E0C5
:1032D00050E08EE168E701E0BCD1F70160857185BF
:1032E00082859385AE014F5F5F4F99D2298130E08F
:1032F00040E050E084E568E702E0ABD12A8130E0AD
:1033000040E050E08AE668E701E0A3D10F900F901B
:10331000DF91CF910F91FF90EF900895A1E0B0E081
:10332000E4E9F9E10C94A521782E462E522EFA01FB
:103330002081222309F43EC16A01612C639400912B
:103340006A0110916B0130916501F7E00D3B1F0799
:1033500009F425C1203209F4E7C080916901281BD6
:10336000A22EB12C832E912C472D4150430F20913A
:103370006601240D872D642D0E949E1180916601A7
:10338000889DB001899D700D1124299A2A986A9D03
:10339000D0016B9DB00D7A9DB00D1124F801EA0F9C
:1033A000FB1FE491E11193C040E050E062307105F1
:1033B000D0F0FD013196E00FF11F060F171F0A0F25
:1033C0001B1F5EBD8BE08A95F1F78DB54EBD8491D4
:1033D000811150C040E050E00DB407FEFDCF3196A2
:1033E000E017F10771F72A9AF60181916F018E3289
:1033F00009F4CAC08A3309F421C180916501780EAD
:10340000F601208121119ACF552089F1651478F5B4
:10341000109165016394412F470D41502091660141
:10342000240D872D642D0E949E1120916601129F0C
:1034300090011124299A2A982115310591F080E0F4
:1034400090E01EBCFAE0FA95F1F700C04DB51EBC45
:103450004AE04A95F1F700C04DB5019628173907A3
:1034600081F72A9A10916501710E651498F22196E0
:10347000E2E187C78F3F21F120915F01829F900198
:103480001124232F330F330B259540916001849F26
:10349000A0011124452F90916101899FC001112441
:1034A000892F990F990B8595282E322E330C330CCA
:1034B000330C20E2429FA0011124422953298CCFD2
:1034C000209162014091630180916401EDCFEF3F53
:1034D00021F120915F01E29F90011124232F330FEE
:1034E000330B259540916001E49FA0011124452FE5
:1034F00080916101E89FC0011124892F990F990BD8
:103500008595E82EF22EFF0CFF0CFF0C20E2429F67
:10351000A00111244E295F2949CF209162014091D9
:10352000630180916401EDCF432F4150470D2091FD
:103530006601240D872D642D39830E949E112091F0
:1035400066013981329F90011124299A2A98211508
:10355000310509F448CF80E090E01EBC4AE04A956E
:10356000F1F700C04DB51EBCEAE0EA95F1F700C0E6
:103570004DB501968217930781F72A9AF60181913A
:103580006F018E3209F036CF80916A0190916B0104
:103590008D5B974009F031CF24E0720E31CF822F3E
:1035A00090E0FC01B097E435F10508F0D6CEEC5C74
:1035B000FF4F02C7612C28CF832E912C6DE0A62EE1
:1035C000B12CD2CE832E912CFCE0AF2EB12CCCCEE0
:1035D000832E912CBBE0AB2EB12CC6CE832E912C2A
:1035E00090E1A92EB12CC0CE832E912CE1E1AE2E1C
:1035F000B12CBACE832E912C7EE0A72EB12CB4CE66
:10360000832E912CAAE0AA2EB12CAECE55E0852EA9
:10361000912CA12CB12C35E005E717E0A5CE84E074
:10362000882E912CA12CB12C34E00DE917E09CCE12
:10363000832E912C4FE0A42EB12C96CE80916A015E
:1036400090916B018D5B974009F0D7CEF5E07F0E2E
:10365000D7CEACE0B0E0EEE2FBE17BC6682E762E82
:1036600049015A01211531054105510599F110E033
:103670008AE0C82ED12CE12CF12CCA01B901A70196
:10368000960126D61F5F2115310541055105A9F781
:10369000011708F4102FCE01019660E270E04BE0B4
:1036A00050E0AFD6402F50E0411B510981E090E03F
:1036B0008C0F9D1F480F591FC501B4012AE0A8D6E1
:1036C000862D672DAE014F5F5F4F20E027DE2C96E1
:1036D000EEE05BC611E0DCCFFF920F931F93CF9318
:1036E000DF93F82E862F60E04FEF20E00F2DFCD205
:1036F000182F882309F490C0682F80EC9FE370E0B6
:10370000C0D5299A2A981F1508F03EC08F2D1EBCDF
:103710009AE09A95F1F700C09DB51EBC9AE09A9583
:10372000F1F700C09DB51EBC9AE09A95F1F700C074
:103730009DB51EBC9AE09A95F1F700C09DB58150E9
:10374000181728F3111122C02A9ACDB7DEB7E5E089
:1037500025C620E080E08EBD9AE09A95F1F700C082
:103760009DB52EBD9AE09A95F1F700C09DB58EBD2E
:103770008AE08A95F1F700C08DB52EBD9AE09A9542
:10378000F1F700C08DB511501123F1F2169F900191
:10379000179F300D11240024220F331F001C220F0D
:1037A000331F001C232F302D222399F22F3F69F164
:1037B000332780915F01829FA001839F500D1124C8
:1037C000452F550F550B4595942F80916001829F91
:1037D000F001839FF00D11248F2FE0916101E29F92
:1037E000A001E39F500D1124452F550F550B459512
:1037F000C42FD92FDD0FDD0FDD0F90E2899F9001DF
:1038000011242C2B3D2B832FA6CF90916201809108
:10381000630140916401ECCF60EC7FE372CFA0E0E4
:10382000B0E0E4E1FCE19CC5EA01DED320E030E059
:1038300040E85AE365D4D62EE72EF82E092F902FB4
:10384000A5D3162F70E080E090E0CED39B01AC01B1
:103850006D2D7E2D8F2D902FCCD220E030E040E2D8
:1038600051E44ED4B0D492D3143608F013E6188342
:103870006A3008F069E06983CDB7DEB7E7E08CC550
:103880008091BC008B7F8093BC003C98449A88E870
:1038900093E10197F1F734990FC040E428E833E150
:1038A00050E202C0415041F0C9010197F1F788B1DF
:1038B000852788B9349BF6CF3C9A3D9A449A459A1D
:1038C00008958AE28093B800DBDFE4E6F0E08081CF
:1038D000806880830895229A239A259A2C9A2A9A9E
:1038E0008CE58CBD0895589A80E290E09093C500D5
:1038F0008093C40080E98093C10086E08093C20079
:10390000089530915A0120915B013217A9F0E0919E
:103910005B01F0E0EC5BFE4F2081FC012083809195
:103920005B018F5F80935B01863120F010925B0119
:1039300081E0089581E0089580E008951F920F923C
:103940000FB60F9211248F939F93EF93FF93809163
:103950005A0190915B01891B87FD1FC08531D4F40A
:10396000E0915A01F0E08091C600EC5BFE4F80834D
:1039700080915A018F5F80935A01863110F0109226
:103980005A01FF91EF919F918F910F900FBE0F9071
:103990001F9018958091C600F4CF8A5EDFCF85E036
:1039A0008093B10082E0809370008CE98093B30033
:1039B00008958FB7F89420916C0130916D018FBFFD
:1039C000C9010895CF93DF93FC018181833009F40D
:1039D0003FC040F0843069F1853029F180E0DF910B
:1039E000CF910895813059F18230C1F7828163818E
:1039F000C481D581482F4F5F262F2F5F0E949E11D3
:103A0000299A2A98DEBD8AE08A95F1F700C08DB523
:103A1000CEBD8AE08A95F1F700C08DB52A9A80E084
:103A2000DF91CF9108950E94F90D80E0DF91CF9151
:103A300008950E94481280E0DF91CF91089510927E
:103A40005C01868180935D018FEFDF91CF910895B6
:103A500082810E94E01180E0DF91CF910895299A40
:103A60002A9820915C0130915D012317C0F46623F0
:103A7000B1F0FC0104C09E2F981B961780F4919121
:103A80009EBD9AE09A95F1F700C09DB520915C012A
:103A90002F5F20935C0130915D01231760F32A9A18
:103AA00081E0231711F080E008950895CF93DF930C
:103AB00060917E01635067FD13C080917B01CCE073
:103AC000D0E0C81BD109CE57DE4F80917A018D32EC
:103AD00009F446C080915E0187FD88C010927E0186
:103AE0008091040184FF2FC0609105016F3F59F15F
:103AF000693008F45FC068506093050180916E01E1
:103B000098E8892780936E01CCE068E0E0917C0121
:103B1000F0917D0180915E0186FF60C0862FAFE647
:103B2000B1E094919D9331968150D9F7F0937D0146
:103B3000E0937C018FE691E00E94980CCC3009F074
:103B400049C0C093040194E189B1847131F491506A
:103B5000D9F710927F0110927901DF91CF910895EA
:103B6000683009F0BBCF83EC80936E018AE58093C7
:103B7000040110925E018881807609F041C09A812B
:103B800010927701898181114CC01092780127E74A
:103B900031E082E030937D0120937C018F3FB1F1D1
:103BA0009F81911104C09E81981708F4892F8093FA
:103BB000050194CF1092050180916E0198E8892744
:103BC00080936E0161111FC08FE691E060E00E945A
:103BD000980CC4E08FEF80930501B3CF862FAFE63A
:103BE000B1E091919D938150E1F7A0CFCE0137DFF5
:103BF0008F3F99F0882309F471CF109205016ECFA1
:103C0000CE01E0DECBCFC62FCC5F80CF988197FD71
:103C100016C090E890935E01CACF8EE180930401B4
:103C20005DCF853071F08630F1F08830B1F08930A9
:103C300071F027E731E08A30A1F080E0ABCF8E81D0
:103C4000E8CF90937F0127E731E080E0A3CF909306
:103C5000810127E731E080E09DCF21E831E081E07C
:103C600099CF81E097CF8B81813049F08230C9F0C4
:103C7000833069F080E090E490935E018FCF8FE411
:103C800098E190937D0180937C0182E1F4CF9111C2
:103C900010C087E998E190937D0180937C0184E0D6
:103CA000EACF8DE398E190937D0180937C0182E1DE
:103CB000E2CF913051F09230E9F681E698E19093AD
:103CC0007D0180937C0186E1D6CF87E798E19093D0
:103CD0007D0180937C0180E2CECFE9E6F0E0808137
:103CE00082608083E89A08950F93CF93E62FF42F94
:103CF000C22F282F30E040E050E0261B3109410957
:103D00005109A02FB0E0AC1BB109A6D22F2F30E093
:103D10002E1B3109442737FD4095542FFBD28C2FA1
:103D2000820FCF910F9108954F925F926F927F9281
:103D3000AF92BF92CF92DF92EF92FF920F931F93B9
:103D4000CF93DF93CDB7DEB729013A01621B730B26
:103D5000840B950B29893A894B895C892A193B097F
:103D60004C095D09298B3A8B4B8B5C8B9B01AC0119
:103D700069897A898B899C8975D2E418F5080609C6
:103D80001709A8019701C6D22A0D3B1D4C1D5D1DC8
:103D9000B901CA01DF91CF911F910F91FF90EF9070
:103DA000DF90CF90BF90AF907F906F905F904F90DB
:103DB0000895EF92FF920F931F9362177307840782
:103DC000950738F09701A8016217730784079507D4
:103DD00038F0B901CA011F910F91FF90EF9008953B
:103DE0009B01AC01B901CA011F910F91FF90EF90A7
:103DF00008955058BB27AA270ED048C139D130F0BA
:103E00003ED120F031F49F3F11F41EF42EC10EF488
:103E1000E095E7FB24C1E92F4AD180F3BA17620786
:103E200073078407950718F071F49EF562C10EF4CC
:103E3000E0950B2EBA2FA02D0B01B90190010C01BA
:103E4000CA01A0011124FF27591B99F0593F50F4D2
:103E5000503E68F11A16F040A22F232F342F44272A
:103E6000585FF3CF469537952795A795F040539522
:103E7000C9F77EF41F16BA0B620B730B840BBAF0F2
:103E80009150A1F0FF0FBB1F661F771F881FC2F75D
:103E90000EC0BA0F621F731F841F48F48795779571
:103EA0006795B795F7959E3F08F0B3CF9395880F28
:103EB00008F09927EE0F9795879508950CD0E6C0E6
:103EC000DED040F0D5D030F021F45F3F19F0C7C00C
:103ED000511110C1CAC0EBD098F39923C9F35523EF
:103EE000B1F3951B550BBB27AA27621773078407ED
:103EF00038F09F5F5F4F220F331F441FAA1FA9F3A3
:103F000033D00E2E3AF0E0E830D091505040E69594
:103F1000001CCAF729D0FE2F27D0660F771F881FF5
:103F2000BB1F261737074807AB07B0E809F0BB0BE4
:103F3000802DBF01FF2793585F4F2AF09E3F510508
:103F400068F08DC0D7C05F3FECF3983EDCF38695F8
:103F500077956795B795F7959F5FC9F7880F911D7E
:103F60009695879597F90895E1E0660F771F881F6A
:103F7000BB1F621773078407BA0720F0621B730B1D
:103F8000840BBA0BEE1F88F7E095089598D088F05F
:103F90009F5790F0B92F9927B751A0F0D1F0660F35
:103FA000771F881F991F1AF0BA95C9F712C0B13050
:103FB00081F09FD0B1E008959CC0672F782F8827AB
:103FC000B85F39F0B93FCCF3869577956795B3958F
:103FD000D9F73EF490958095709561957F4F8F4FFE
:103FE0009F4F0895E89409C097FB3EF49095809503
:103FF000709561957F4F8F4F9F4F9923A9F0F92FAF
:1040000096E9BB279395F695879577956795B7952C
:10401000F111F8CFFAF4BB0F11F460FF1BC06F5F12
:104020007F4F8F4F9F4F16C0882311F096E911C024
:10403000772321F09EE8872F762F05C0662371F045
:1040400096E8862F70E060E02AF09A95660F771F59
:10405000881FDAF7880F9695879597F9089597F94D
:104060009F6780E870E060E008959FEF80EC08951E
:1040700000240A9416161706180609060895002447
:104080000A9412161306140605060895092E0394C1
:10409000000C11F4882352F0BB0F40F4BF2B11F435
:1040A00060FF04C06F5F7F4F8F4F9F4F089557FD94
:1040B0009058440F551F59F05F3F71F04795880F96
:1040C00097FB991F61F09F3F79F08795089512162D
:1040D00013061406551FF2CF4695F1DF08C01616D9
:1040E00017061806991FF1CF86957105610508948A
:1040F0000895E894BB2766277727CB0197F90895A1
:104100000BD0C4CFB5DF28F0BADF18F0952309F043
:10411000A6CFABCF1124EECFCADFA0F3959FD1F38A
:10412000950F50E0551F629FF001729FBB27F00D65
:10413000B11D639FAA27F00DB11DAA1F649F6627BA
:10414000B00DA11D661F829F2227B00DA11D621F09
:10415000739FB00DA11D621F839FA00D611D221FC3
:10416000749F3327A00D611D231F849F600D211DA7
:10417000822F762F6A2F11249F5750408AF0E1F04A
:1041800088234AF0EE0FFF1FBB1F661F771F881F93
:1041900091505040A9F79E3F510570F060CFAACFD3
:1041A0005F3FECF3983EDCF3869577956795B7957E
:1041B000F795E7959F5FC1F7FE2B880F911D9695A8
:1041C000879597F908957BDFE0F09E37D8F0963910
:1041D000B8F49E3848F4672F782F8827985FF9CF76
:1041E00086957795679593959539D0F3B62FB170ED
:1041F0006B0F711D811D20F48795779567959395B9
:1042000002C01CC077CF882371F4772321F0985027
:10421000872B762F07C0662311F499270DC0905184
:10422000862B70E060E02AF09A95660F771F881F52
:10423000DAF7880F9695879597F908959F3F31F0A3
:10424000915020F4879577956795B795880F911DC4
:104250009695879597F90895B7FFB4C0B3D0821BA0
:10426000930B0895DB018F939F93ACD0BF91AF91D7
:10427000A29F800D911DA39F900DB29F900D1124C0
:104280000895AA1BBB1B51E107C0AA1FBB1FA6179D
:10429000B70710F0A61BB70B881F991F5A95A9F7EF
:1042A00080959095BC01CD01089597FB072E16F4DB
:1042B000009406D077FD08D0E4DF07FC05D03EF47B
:1042C000909581959F4F0895709561957F4F0895C2
:1042D000A1E21A2EAA1BBB1BFD010DC0AA1FBB1F0A
:1042E000EE1FFF1FA217B307E407F50720F0A21B7C
:1042F000B30BE40BF50B661F771F881F991F1A94E9
:1043000069F760957095809590959B01AC01BD0112
:10431000CF010895052E97FB16F4009406D057FDA3
:104320000CD0D6DF07FC09D07EF49095809570956F
:1043300061957F4F8F4F9F4F0895509540953095D1
:1043400021953F4F4F4F5F4F08952F923F924F92CD
:104350005F926F927F928F929F92AF92BF92CF9215
:10436000DF92EF92FF920F931F93CF93DF93CDB71E
:10437000DEB7CA1BDB0B0FB6F894DEBF0FBECDBF96
:1043800009942A88398848885F846E847D848C8467
:104390009B84AA84B984C884DF80EE80FD800C8170
:1043A0001B81AA81B981CE0FD11D0FB6F894DEBF53
:1043B0000FBECDBFED010895EE0FFF1F0590F491E4
:1043C000E02D099409D0A59F900DB49F900DA49F56
:1043D000800D911D11240895A29FB001B39FC001CB
:1043E000A39F01D0B29F700D811D1124911D0895CE
:1043F000FB01DC0102C001900D9241505040D8F702
:104400000895DC0101C06D9341505040E0F70895DC
:10441000BB27FA01A62F6217710581059105330BA1
:1044200030FB66F0AA27660F771F881F991FAA1F07
:10443000A21710F0A21B63953850A9F7A05DAA330C
:1044400008F0A95DA19336F7B111B1931082CA01AA
:1044500002C2AEE0B0E0EEE2F2E285CF0D891E8945
:104460008EE08C831A8309838FEF9FE79E838D8371
:10447000CE014996AC016F89788DCE01019608D0A6
:10448000EF81F885E00FF11F10822E96E4E087CFD0
:10449000ACE0B0E0EDE4F2E258CF7C016B018A01C0
:1044A000FC0117821682838181FFB9C1882483941D
:1044B000912C8C0E9D1EF7019381F60193FD859141
:1044C00093FF81916F01882309F4A5C1853239F4E6
:1044D00093FD859193FF81916F01853221F4B7019E
:1044E00090E0C9D1E8CF512C312C20E02032A8F443
:1044F0008B3261F028F4803251F0833271F40BC0BA
:104500008D3239F0803349F4216028C02260246064
:1045100025C0286023C0206121C027FD27C0382F77
:1045200030533A3078F426FF06C0FAE05F9E300D33
:104530001124532E13C08AE0389E300D1124332EDF
:1045400020620CC08E3221F426FD65C1206406C0B5
:104550008C3611F4206802C0883641F4F60193FDD0
:10456000859193FF81916F018111C0CF982F955450
:10457000933018F09052933028F40C5F1F4FFFE3F4
:10458000F9830DC0833631F0833771F0833509F03C
:104590005AC022C0F801808189830E5F1F4F4424D6
:1045A0004394512C540114C03801F2E06F0E711C79
:1045B000F801A080B18026FF03C0652D70E002C025
:1045C0006FEF7FEFC5012C873BD12C0183012C8538
:1045D0006FE7262E222217C03801F2E06F0E711C01
:1045E000F801A080B18026FF03C0652D70E002C0F5
:1045F0006FEF7FEFC5012C8718D12C012C8550E877
:10460000252E222A830123FC1AC005C0B70180E2AF
:1046100090E031D13A94832D90E048165906B0F3DA
:104620000EC0F50127FC859127FE81915F01B7013E
:1046300090E021D131103A94F1E04F1A5108411421
:10464000510479F7E5C0843611F0893639F5F8015F
:1046500027FF07C060817181828193810C5F1F4FAA
:1046600008C060817181882777FD8095982F0E5F43
:104670001F4F4FE6B42EB22297FF09C09095809548
:10468000709561957F4F8F4F9F4FF0E8BF2A2AE0CA
:1046900030E0A4011CD1A82EA81842C0853731F4FF
:1046A0003FEEB32EB2222AE030E024C099EFB92EBB
:1046B000B2228F36B9F020F4883509F0ACC00DC0B5
:1046C000803721F0883709F0A6C002C020E1B22A65
:1046D000B4FE0BC084E0B82A08C024FF09C0E6E09D
:1046E000BE2A06C028E030E005C020E130E002C06C
:1046F00020E132E0F801B7FE07C06081718182815C
:1047000093810C5F1F4F06C06081718180E090E053
:104710000E5F1F4FA401DBD0A82EA818FFE7BF2211
:10472000B6FE0BC02B2D2E7FA51450F4B4FE0AC08C
:10473000B2FC08C02B2D2E7E05C07A2C2B2D03C079
:104740007A2C01C0752C24FF0DC0FE01EA0DF11D6D
:104750008081803311F4297E09C022FF06C0739442
:10476000739404C0822F867809F0739423FD13C0DC
:1047700020FF0EC05A2C731458F4530C5718732C86
:1047800007C0B70180E290E02C8775D073942C8528
:104790007314B8F304C0731410F4371801C0312C2B
:1047A00024FF11C0B70180E390E02C8764D02C85F2
:1047B00022FF1CC021FF03C088E590E002C088E70B
:1047C00090E0B7010CC0822F867881F021FD02C0F5
:1047D00080E201C08BE227FD8DE2B70190E04BD073
:1047E00005C0B70180E390E046D05A94A514C8F301
:1047F000AA94F401EA0DF11DB701808190E03BD04D
:10480000A110F6CF05C0B70180E290E034D03A9411
:104810003110F9CF50CEF7012681378102C02FEF3A
:104820003FEFC9012C96E2E1ACCDFC01059061504F
:1048300070400110D8F7809590958E0F9F1F0895B6
:10484000FC016150704001900110D8F7809590955F
:104850008E0F9F1F0895DC01FC01672F7191772354
:10486000E1F7329704C07C916D9370836291AE172B
:10487000BF07C8F308950F931F93CF93DF938C0165
:10488000EB018B8181FD03C00FEF1FEF1AC082FF88
:104890000DC02E813F818C819D812817390764F4DA
:1048A000E881F9810193F983E88306C0E885F985F9
:1048B000802F0995892B41F78E819F8101969F83D7
:1048C0008E83C801DF91CF911F910F910895FA0156
:1048D000AA27283051F1203181F1E8946F936E7F3F
:1048E0006E5F7F4F8F4F9F4FAF4FB1E03ED0B4E030
:1048F0003CD0670F781F891F9A1FA11D680F791F71
:104900008A1F911DA11D6A0F711D811D911DA11D81
:1049100020D009F468943F912AE0269F1124301991
:10492000305D3193DEF6CF010895462F4770405D2C
:104930004193B3E00FD0C9F7F6CF462F4F70405DDB
:104940004A3318F0495D31FD4052419302D0A9F736
:10495000EACFB4E0A6959795879577956795BA9530
:10496000C9F700976105710508959B01AC010A2EF6
:1049700006945795479537952795BA95C9F7620FCD
:0E498000731F841F951FA01D0895F894FFCF8C
:10498E00FFFFFF015AFF4B6270730025006D73002D
:08499E004D42004D4270730010
:00000001FF
